:10FE500038B504460D460DF043FF0848216801609F
:10FE600061684160A16881600CF07CFB0CF06BFB69
:10FE70002846BDE8324007F090B800BFD8470020C0
:10FE8000BF7D0100B3AA0100D1910100CFAC0100F8
:10FE90002965010035AF0100BF430100F3130100E4
:10FEA000F93B0100390001000A00C0860200000091
:10FEB00094CC01000200000090CC010000613100F0
:10FEC000BCFE0000010000000000D0020A05000096
:10FED000000000000201000000000000100000000F
:10FEE00000000000EC000021000000000000000005
:10FEF000E4FE0000C8FE000000000000CCFE000090
:10FF0000D0FE0000D4FE0000D8FE0000DCFE0000A1
:10FF1000E0FE0000B4460020DFF800F0419500103C
:10FF2000DFF800F071950010DFF800F0D1950010B7
:10FF3000DFF800F03D970010DFF800F06597001043
:10FF4000DFF800F029980010DFF800F0F5980010B5
:10FF5000DFF800F0C9990010DFF800F0F9990010FF
:10FF6000DFF800F0159A0010DFF800F0319A001069
:10FF7000DFF800F0A19A0010DFF800F0F59A001009
:10FF8000DFF800F0159C0010DFF800F08D9C0010E9
:10FF9000DFF800F0099D0010DFF800F0459D00102B
:10FFA000DFF800F0D19D0010DFF800F02D9E00106A
:10FFB000DFF800F04D9E0010DFF800F06D9E00109D
:10FFC000DFF800F08D9E0010DFF800F0AD9E00100D
:10FFD000DFF800F0CD9E0010DFF800F0ED9E00107D
:10FFE000DFF800F00D9F0010DFF800F0499F0010CF
:10FFF000DFF800F0699F0010DFF800F0D19F0010DB
:020000040001F9
:10000000DFF800F011A00010DFF800F031A00010C0
:10001000DFF800F075A00010DFF800F0F1A000108C
:10002000DFF800F009A10010DFF800F0B5A1001022
:10003000DFF84019087070472DE9FE430D4628048B
:1000400050D5DFF83019087800F0ADFD040046D037
:10005000DFF8247939680126002918BF11F1010F52
:1000600007D0DFF81809007800F040FD4FF0FF31AD
:1000700039602078812802D0822828D02BE0002007
:100080008DF808608DF80900A688A77994F8028099
:10009000B00A3F2807D1C6F3C21020B100F025F8FE
:1000A00000F02AF803E000F020F800F084F8814620
:1000B000204600F00CFD9DF8080080B100F001FC26
:1000C0004B463A463146404600F0BAF907E0204632
:1000D00000F064FB064616B1204600F0F8FC85F4FB
:1000E000004000E00020BDE8FE8302AB0DF10902F4
:1000F000214630467047000038B500F07F04C00943
:1001000000F00700401E04280D4652D8DFE800F03A
:10011000030C2C474C00122C4BD12A7CE96828890F
:10012000BDE8384000F0E7BF2889E968012C17D006
:100130000B2C11D00D2C0BD0132C05D0192C38D131
:10014000BDE8324001F0D9B8BDE8324001F0C2B894
:10015000BDE8344001F090B8BDE8344001F07EB80D
:10016000BDE8344001F027B828891B2C11D01D2C84
:1001700007D0432C1DD1AA89698902F0C6F8002056
:1001800032BD6B7C2A7CE96801B0BDE8304002F0EA
:10019000C9BA2A7CE968BDE8384002F0F9BA2046BD
:1001A00001B0BDE8304012E2204601B0BDE8304069
:1001B0008AE1012032BD0B4640F21D41401A00F099
:1001C000978040F2E471401A00F09580801E00F0A4
:1001D00098802A3800F09780363800F08F8040F2FF
:1001E0009E31401A00F09480401E00F09380401E23
:1001F00000F09280801F00F091804FF47F71401AD0
:1002000000F08E8040F6FC31401A00F08C80801E99
:1002100000F08C80001F00F08B80083800F08A808E
:10022000401E00F08980401E00F08880401E00F0D3
:100230008A80C01E00F08C80401E00F08C80401E22
:1002400000F08C80401F00F08D80401E00F09180F7
:10025000401E00F08980401E00F08F804DF6E23194
:10026000401A00F08C80401E00F08D80C01E00F00F
:100270008E80401E00F08F80401E00F08F80401E58
:1002800000F09480401E00F09780401E00F09680A1
:10029000401E00F09780401E00F09680401E00F047
:1002A0009680401E00F09680C01E00F09580801E53
:1002B00000F09680401E00F09680401E00F098806E
:1002C000801E00F09980401E00F09B80801E69D047
:1002D000401E00F09C80401E00F09E80401E00F0FA
:1002E0009E80801E00F09F80401E00F0A280A5E04E
:1002F0001889FFF711BE9868FFF712BE986802F0E0
:1003000049BE02F0A3BD59891889C9B2FFF70CBED6
:1003100002F09EBE02F0ABBDFFF70ABEFFF70CBEB7
:10032000188902F0C1BE986802F077BEFFF708BED8
:10033000FFF70ABEFFF70CBEFFF70EBE1889D9689B
:10034000C0B2FFF70DBE1889D968C0B2FFF70CBE66
:100350001889FFF70DBE188902F0F5BDD9689868B5
:10036000FFF70ABEFFF70CBE9A7A597A187A02F0A4
:10037000FFBD1889C0B202F004BEFFF705BE1889A0
:10038000C0B2FFF705BE1889C0B2FFF705BED96835
:100390009868FFF705BE9868FFF706BE1889C0B2D7
:1003A000FFF706BE1889C0B2FFF706BE5989188943
:1003B000C9B2C0B2FFF704BEFFF706BE1889C0B2CB
:1003C000FFF706BEFFF708BE9868FFF709BE188959
:1003D000FFF70ABEFFF70CBE1889C0B2FFF70CBECC
:1003E0001889FFF70DBE59891889C9B2FFF70CBEED
:1003F000D9681889FFF70CBE18895989C0B2FFF770
:100400000BBE59899A891889C9B202F004BE1889AD
:100410005989C0B2FFF704BE188902F0EABD1889F5
:10042000C0B202F0D3BD59891889C9B2C0B2FFF772
:10043000FBBD1A69D968986802F023BD0120704796
:100440002DE9F843089D804605F10C000F4616463D
:10045000994680B200F029FB040016D0802121705B
:1004600040F27F6084F801906080A780A67104F15B
:100470000C00E571A0602A46099900F0C3FA2146F4
:100480004046BDE8F44300F031BBBDE8F18310B550
:100490000022841E012C02D9A41E02D004E01029DF
:1004A00000E004290DD00BE0A0F12004402C03D281
:1004B00003F03AFC024604E0A0F18003102B00D3C5
:1004C0000222104610BD0000F8B5401E05280C465B
:1004D0001546DFF8AC644FD8DFE800F0030C1518C0
:1004E0002A3D00F04BF808BBE2683146284603F08D
:1004F000FFFEF2BD00F042F8C0B9E268314628467E
:1005000003F006FFF2BD03F02AFF0FE0A06868B118
:10051000DFF870140160DFF870140A88828003210C
:100520000181912214218271418123E00220F2BDD8
:10053000DFF858341C6854F8087F0022002100209E
:10054000B847B071010AF171010C000E707231727E
:10055000042028700EE04FF6FF70ADF8000002F0A6
:1005600011FCADF800000222022028706946B01D7F
:1005700000F048FA0020F2BD0120F2BD257A667A2B
:100580003146284683E738B5012815461C4602D077
:10059000022809D00DE0049B0A462146284601B0F6
:1005A000BDE8304004F010B80846BDE8324004F021
:1005B0002FBB0846BDE8324004F038BB0B4601288B
:1005C0001146184608BF04F03BB804F048BB2DE9BB
:1005D000FC410F4615460024DFF8A46380B30328CE
:1005E00049D0062837D007283AD008283FD00A2813
:1005F00046D00B2852D00C2869D00D2800F08F80EF
:100600000E285ED00F2853D010284CD011283DD092
:1006100012283FD0302864D031286BD032285BD0EC
:10062000332800F08180342800F08280352800F0E3
:100630008E80362800F08E80372800F09380A9E065
:100640007869019038690090FB68BA7A797A387ACB
:1006500004F050FB84E0F968387A04F075FB7FE021
:10066000FB68BA7A797A387A04F0B7FB78E0387A9E
:1006700004F0E7FB74E0F968387A04F0C0FE6FE03C
:100680003A7B7989387A05F017F869E0B86805F09F
:1006900050F865E0B86805F080F861E0F968B8687E
:1006A00005F0E8F85CE0B97A388905F031F957E0EF
:1006B000387C0090FB68FA7AB97A388905F077F9C6
:1006C0004EE0FA68B97A388905F0B0F848E039891F
:1006D000F86805F02CF943E0F968B86805F0ACFC5F
:1006E0003EE03889798926282FD028282DDA04F091
:1006F0003BFE35E04FF6FF78ADF800803889FF28E3
:1007000023DA262821D028281FDA04F03AFE4045B3
:10071000ADF8000019D002202870022210E0B97A4A
:10072000388905F0E1FC1BE0B86804F0B0FB17E085
:10073000387A04F001FC009038B1042129700422B9
:100740006946B01D00F05EF925E0022423E004F0C4
:1007500018FC05E07989FA683889C9B202F0DCFC36
:10076000044618E03F89B11D384602F09DFD04465D
:1007700040F201403F1A04D03F1F04D0FF1E04D0B6
:1007800005E0022004E0102002E0042000E0012047
:10079000287000E001242046BDE8F6812DE9F041F3
:1007A00084B00546002001218DF809008DF808105D
:1007B000AC88A879AE78042C804669D8DFE804F0CC
:1007C00068030A28440002AA0DF10901284600F036
:1007D0007EF85BE00027102814D013280DD01428D1
:1007E00007D0152854D1EA68A97A288901F040FF7A
:1007F0004CE0A86803F0C0FD07E0A97A288903F05F
:10080000B5FD02E0287A03F0AEFD8DF8087040E0F7
:100810000027A8B1042804D0052806D006280AD04D
:1008200036E0A86805F04FFD33E02889E968C0B2DA
:1008300005F022FD2AE000F03EF805F0DDFC25E0A1
:10084000A86805F034FD21E0062821D8DFE800F093
:100850001B20140F20040A002889E968C0B200F0A8
:1008600063FE13E000F027F800F02FFE0EE0E968C9
:10087000288900F008FE09E02B69AA7BA989A868ED
:1008800000F0D6FD02E0A86800F0ABFE074600E0ED
:100890000127284600F01BF99DF8080038B100F048
:1008A00010F83B46424621463046FFF7C9FD00207E
:1008B00004B0BDE8F08169892889EA68C9B2C0B28C
:1008C00070479DF809003249019100907047F8B5D2
:1008D0000D4681792A4F00240429164626D0102976
:1008E00010D0112912D0122915D0132922D0142981
:1008F00026D015292CD017292FD018290ED0192928
:100900000FD033E0007A05F001FE24E0817A0089FF
:1009100006F055F826E006F07DF823E006F066F8CC
:1009200020E0C168008905F0FCFF0FE0806802F05C
:1009300055FE10E0C268817A008902F05CFE05E095
:10094000837C028AC168007A02F002FD04460EE050
:10095000008902F096FD347009E00269C168007AEE
:1009600002F0B6FDB8710120287000E00124204695
:10097000F2BD0000D648002064430020DD4800207E
:100980001047002001020200AAFE00006043002080
:100990001647002000B583B00821ADF800100B22E7
:1009A000ADF802200190684600F026F890470EBD91
:1009B00030B585B008248DF806108DF808208DF824
:1009C0000400062500F018F80393ADF80040ADF8D8
:1009D00002506846904705B030BD80B5052006F04E
:1009E00072F80821ADF800100C2000F005F8ADF801
:1009F00002006846904702BDDFF824160A68704777
:100A000006F070B803E011F8013B00F8013B134613
:100A10005A1E002BF7D1704711444B1E03E013F808
:100A2000011900F8011B11464A1E0029F7D1704731
:100A300070B505460E46B0B206F070F8040003D05B
:100A400032462946FFF7DEFF204670BD10B513463B
:100A50005A1E3BB110F8013B11F8014BA342F6D0EE
:100A6000002010BD012010BD10B5044610460A46F6
:100A70000146204606F070F8204610BD03F066BC23
:100A800010B5DFF8A025DFF8A035926A11541C7864
:100A90000019115410BD10B5DFF88825DFF888451E
:100AA000936A22788018195410BD10B5040001D142
:100AB000002010BD04F10C0080B206F02FF828B120
:100AC000002101600481FF2181720C3010BD80B5CE
:100AD00008B9052002BD10F8021CFF2901D004202E
:100AE00002BD0C3806F026F8002002BD38B50C46D1
:100AF000010621D5DFF82C150A78FF2A08BF4D78AA
:100B000005D08B6ADFF8205529788A189D5CFF2D67
:100B100002D1FFF762FF0DE000F094F9FF2104F825
:100B2000021C2346014600222846FFF741FF40B140
:100B300000F037F8012032BD2146BDE838400022E0
:100B400000E032BD70B50C000546164616D02806EA
:100B500048BFFFF742FFDFF8D0140A78954203D36D
:100B600000F01FF8032070BDA4F10C0108680028F4
:100B700004BF8A7AFF2A03D000F013F8052070BD65
:100B80008D72012EDFF89C04214603D10C3000F059
:100B900057F802E00C3000F03BF800F035F8002088
:100BA00070BD204693E72DE9F0410546DFF87C044F
:100BB000DFF87074016888478046F86800260024D2
:100BC00058B110F8021CA94202D01CB9064601E037
:100BD000BCB9044650F80C0CF2E74FF4004128462B
:100BE00000F0A7F82CB13246214607F10C0000F0C6
:100BF00034F8DFF83C140A68404690472046BDE8C8
:100C0000F08100F001F8EEE74FF4004128463FE0A4
:100C100038B500F00FF8002145F80C1C226812B915
:100C2000256006E00A4652F80C1C0029FAD142F869
:100C30000C5C0CE00446DFF8F4030D46016808473D
:100C400038B5FFF7F7FF216845F80C1C2560DFF881
:100C5000E0130A68BDE83240104770B50446DFF87B
:100C6000CC030E46016815468847A6F10C0123689F
:100C70000A689E420CBF226045F80C2C00220A60D4
:100C8000FF228A72BDE87040DFF8A4130A6810479B
:100C90002DE9F0418046DFF89003DFF8886305789E
:100CA0005FEA08600F462AD50420FFF7FEFE040025
:100CB00008BF042037D04FF6FF7020806780A4F172
:100CC0000C073078FF280FBF7678B16A2D184E5D7B
:100CD000FF2E04D1FFF765FFFFF77FFE0DE04046D2
:100CE00000F0B0F8FF21B9722346014600223046D9
:100CF000FFF75EFEB8B1FFF754FF012013E0A845EF
:100D000010D200F012F8DFF82C13096831F818201F
:100D1000174321F8187000F026F87069FFF73AFEC3
:100D2000002000E00320BDE8F081DFF80003016847
:100D3000084738B50D46DFF8F0120A7890420446AD
:100D40000ED2BA4802689047BA49096831F81420AF
:100D500022EA050521F8145000F005F8002032BD04
:100D6000032032BD0846B2490A68104730B5AD4C81
:100D70000020E06083B005F031FF06F07AF8AA4861
:100D80000578680005F0CAFEA0626A00FF21FFF73F
:100D90006BFE0822FF21201DFFF766FE06F0C0F85B
:100DA000142100F023F90198A06115210820ADF865
:100DB0000210ADF800006846296888470198801E37
:100DC000E06100203EBD30B585B00820ADF80000E0
:100DD000012001901B21934D914C686AADF80210DF
:100DE00004900FF27901286A039102906846216805
:100DF00088470299296208B1FFF7EFFD00F050F82B
:100E00000820ADF800000A21ADF802104FF0FF30C5
:100E10000190684621688847F0E780B50021814A43
:100E20000A441379FF2B08D0834207D0491C0829B4
:100E3000F5D3FFF7D2FDFF2002BD107141F0800114
:100E4000C8B202BD10B580F08004082CA8BFFFF71F
:100E5000C4FD74482044007910BD000038B5044634
:100E6000FFF763FF05466F48416A8C4204BF406943
:100E7000FFF790FD6E490A682846EBE610B5044678
:100E8000608850B9A079FFF7C8FFFF28E07102D150
:100E90006FF0030010BD002010BD6FF0010010BD09
:100EA0002DE9F04F85B005F0B9FF00245FEA000896
:100EB00003D005F0C4FE4FF0FF385A4F38690028C0
:100EC00000D0804781E06D1C8D427CD2B86A405DC5
:100ED0009042F8D1EDB2FF2D75D016F8080CFFF74F
:100EE0009CFF16F8061C012908BF307002D00229A9
:100EF00008BFB07031462846FFF7F8FD65E04D4E5B
:100F00003068E4B230F8140018B9641CE0B28842CA
:100F1000F5D3E0B28842DFF81891DFF810A11DD2B6
:100F2000DAF8000080473168E4B231F814B00022EA
:100F300000F057F8404A3C70594652F824202046A9
:100F400090478346FF203870DAF800008047316808
:100F500031F814204BEA020200F043F805F05EFF7E
:100F6000044644452CD004B9344CF869A04238BF3B
:100F70000446DAF80000804706460820ADF8000075
:100F80001C21386AADF8021001906846296888472C
:100F9000786A401C08217862ADF800100490132292
:100FA0002749386A03910290ADF8022001946846FF
:100FB00029688847029838623046D9F80010884777
:100FC00005B0BDE8F08FFFF708FD072100F00EF82F
:100FD00015499DF80620029E097800288FD100252A
:100FE00072E721F81420D9F8001008470820ADF85E
:100FF0000210ADF800006846094D2968084710B591
:1010000048B1002300E05B1CDCB2944205D2DBB2A5
:10101000C45C8C42F7D0002010BD012010BD000040
:10102000D84700209C440020A8FE0000DC47002098
:10103000E0470020F047002080FE00008EC2F52827
:101040005D0E0100DFF800F0F5950010DFF800F00C
:1010500031960010DFF800F05D9600100A4610B5DA
:10106000052A18BF042A03D0062A18BF072A08D168
:101070000C24484B62431A4422F8301D9070002023
:1010800010BD022010BD38B50D460446288805283D
:1010900018BF042803D0062818BF072801D16868A4
:1010A00008B9022032BD0121204605F088FC08B9AC
:1010B000142032BD4FF6FE70844207D0204605F062
:1010C000BAFC2989884201D21B2032BD32480078FF
:1010D00000282946204603D0BDE8344003F080BBF9
:1010E000BDE8344003F032BB80B52C4B009313466F
:1010F0000A4601211AE070B50D4684B00446164632
:10110000EB88AA886988288801F082FE58B10020FF
:1011100002900196042000902A46214B122120467D
:1011200003F0AAFA00E0182004B070BD03F0D6FA6C
:1011300002BD38B504461B480129017011D11A4877
:101140000088051DADB20120FFF77CFF94FBF5F090
:1011500082B2284601B0BDE8304000230021FFF7ED
:1011600075BFBDE832400020FFF76CBF03B50D48E6
:101170000078012881B003D102AA01A9FFF76AFF14
:1011800007BD094A001F10800348017070470648D8
:101190000088704784480020E6460020E1480100AE
:1011A0005F490100DB480020FC460020704700003A
:1011B0006E490860704780B5002200920B460122FC
:1011C0006B4900F0BAF802BD80B50A88172A05DB22
:1011D000002200920B4603226649F2E7022002BD7C
:1011E00038B50D460446A878012818BF02280DD14D
:1011F000288800281CBF6868002807D0022103F057
:1012000050FD00902B4605225B4931E0022032BDA3
:1012100038B500F01EF81CBF6868002806D000F042
:1012200036F800902B460722544921E0022032BDB7
:1012300038B500F00EF81CBF6868002807D00221FE
:1012400003F02FFD00902B4609224D4910E00220AB
:1012500032BD0D46044628880028704738B500F096
:1012600024F808B100F013F800902B460B224549F2
:10127000204600F062F832BD38B500F016F808B12B
:1012800000F005F800902B460D223F49F0E70121C0
:1012900003F007BD38B500F008F808B1FFF7F7FF15
:1012A00000902B460F223949E2E70D460446686854
:1012B000704738B5FFF7CDFF1CBF6868002807D01E
:1012C000022103F0EEFC00902B4611223049CFE7BB
:1012D000022032BD80B5002100910023132270E767
:1012E00038B50D460446A86810B1052103F0D9FCB5
:1012F00000902B4617222749BAE780B500210091BC
:10130000002319225DE738B5FFF7CFFF10B10321A5
:1013100003F0C7FC00902B461B2209E038B5FFF70D
:10132000C4FF10B1032103F0BCFC00902B461D222A
:101330001949204605F093FF32BDF8B504460698DA
:10134000009015461E46204605F089FF07000AD189
:1013500006480268100006D0012D04BF3078451CF5
:10136000E9B2204690473846F2BD00000048002010
:10137000637001007F70010099700100F37001003B
:101380003771010053710100AB710100CF71010091
:10139000D37101000D7201003D720100DFF8581C8D
:1013A0000870704738B5DFF8544CDFF8545C20768D
:1013B0002878C00005F0B2FBE061C8B1002108E068
:1013C0004FF6FF7220F8312000EBC10300225A6073
:1013D000491C2A789142F3DB052000F0AFF8207E0B
:1013E00001F058F8BDE83240DFF8180C05F029BAD2
:1013F00031BD38B50C46200418D5DFF8000C007E4E
:10140000FFF7D1FB05000ED02878B02808D1284678
:1014100000F0FDF820B1297905F1080003F010F97A
:101420002846FFF754FB84F4004032BD002032BD53
:101430007CB506001C460DD0ADF800108DF80220DA
:101440000196684600F0B8FF05001AD1CCB1768944
:10145000300001D1022514E00C2005F05FFB08B933
:1014600013250EE00021016086808460DFF8981B60
:101470000A6812B9086004E00A4611680029FBD125
:101480001060284676BD30B50C46DFF87C1B05465B
:10149000086883B0002201E00246006898B18388A2
:1014A000AB42F9D10368002A0CBF0B60136005F052
:1014B00041FB6946284600F0CDFF010002D10CB186
:1014C000019921603EBD01203EBD70B550BB012990
:1014D00026D1DFF8280BC169002300E05B1CDFF890
:1014E000204B2478A34217DA31F833404FF6FF75CA
:1014F000AC42F3D0002400E0641C467EE5B2B54265
:10150000ECD201EBC305E4B26D680C266643AD5B1B
:10151000002DF1D0012070BD1078BDE870400DE0C5
:10152000182070BD022070BD0022002803BFDFF824
:10153000CC0A407E08700222104670472DE9F8431D
:10154000DFF8B87A0446002078760C25F869DFF8D1
:10155000B06A406805FB04F870B105F0EBFA0020B2
:1015600006E0F969C0B201EBC00100224A60401CEC
:101570003278C1B29142F4D3307808FB00F080B2E7
:1015800005F0CCFA5FEA000928D0307808FB00F2B9
:1015900000214846FFF768FA00200FE0516805FB7C
:1015A0000CF34FF0000E21F803E019440CF1010C8C
:1015B000C1F808E0A445F1DBC144401C3278C1B257
:1015C000914208D2F969C0B201EBC0024FF0000CA1
:1015D000C2F80490EEE77C76002000E01320BDE81E
:1015E000F28301460020C90705D5002310220121FE
:1015F000DFF8180C1CE77047DFF80C1A096821B1F6
:101600008A888242FAD188687047002070472DE9A5
:10161000F04186B004460020ADF8100001208DF89E
:101620001200DFF8D859286A38B9FFF7B0FD05F085
:1016300075FA0028286200F0E2801822002128466E
:10164000FFF712FA2079461C02284FF6FF7817D0D0
:1016500006282CD008282FD00A2833D00C2857D0A1
:101660000E2800F08B80102800F08D80122800F0EA
:101670008F80162800F09380182800F09780BBE038
:10168000FFF785FD288029466088FFF79DFD00282B
:101690002189288804D0814228BF01462980A0E002
:1016A000814228BF0146608802F039FFA4E004A906
:1016B000204600F0AEF87DE004AA0021204600F0AC
:1016C0002CF977E000F0A0F8070052D0608805AB55
:1016D00042460B2102F078FF03006B6024D0207992
:1016E000BDF81620039000953946BDF8140002900D
:1016F0000020019000F026FA070004D160882946F6
:10170000FFF7ACFD29E0162F686808BF00272BE023
:1017100000F07AF807002CD0608805AB42460D2116
:1017200002F052FF686020B92089ADF8100011273F
:1017300045E02179BDF8162003910346BDF8141049
:101740000291618901910095394600F0FBF907008B
:1017500006D160882946FFF78FFD002841D12AE095
:10176000162F686808BF002703F079FA380001D106
:1017700021E001272089ADF810001CE004A92046D3
:1017800000F06EF916E004A9204600F0E9F911E036
:101790000DF1120204A9204600F086FA0AE00DF1CC
:1017A000120204A9204600F0C0FA03E004A9204672
:1017B00000F029FB0746380011D0162F11D06078B1
:1017C00014280CD0207928702F712946BDF81000FC
:1017D00068806088FFF7EFFC08B1012601E0162F52
:1017E0000AD160882B46F2B2162102F08EFE18B1A3
:1017F000F1B2284602F024FF204602F0BDFD9DF81C
:10180000120006B0BDE8F08120890DF1160100F04C
:10181000B9BE2DE9FA47044686B06088DFF8DC5788
:1018200005F0B1FD80460DF1120000F0D4F800275C
:1018300081464FF0FF0AB9F1000F5BD009E0BDF817
:1018400010304354BDF81000696892B2000A885401
:10185000571CBFB2A8F1050087424BDA20790390EC
:101860000026A8F1070080B20290019605F11A0047
:1018700000902B6ABDF812206088494600F0CCFB2E
:10188000002802BF6A8B208A904214D1296A6069BD
:10189000FFF7DCF878B1686858B900F055F907210E
:1018A00002F092FE686020B9069920890880112014
:1018B00030E0B9F80A60BDF81220618904AB4846EF
:1018C00000F086FE002E8146B5D06868C655781CAB
:1018D0006A6880B231121154411C4A1C6868B9F11F
:1018E000000F89B2ABD100F801A092B2686800F88D
:1018F00002A0571CB8B248B13F04B80C2880294652
:101900006088FFF785FC28B1162003E0069920893E
:1019100008800A2008B0BDE8F0872DE9F0430446AE
:1019200085B060888846914605F02DFD851EADB2D4
:10193000DFF8C87601E0401C2081A81E3989884262
:101940002FDB5FEA08002CD104A800F044F8060061
:1019500027D070892081BDF81020317A608800F08E
:101960009DFD5FEA00081CD120793B6ABDF810207C
:1019700003903146A81E80B200F0EBF800F0E2F8C8
:101980005FEA00080DD173897A8B396A608800F0AC
:101990002AF85FEA000804D120894FF6FF718842D7
:1019A000C9D1388901000AD0798890FBF1F03880DC
:1019B00039466088FFF73CFC50B1162008E05FEA2A
:1019C00008002089A9F8000008BF4FF00A08404627
:1019D00005B0BDE8F0830090237B6189208904F184
:1019E0000D0200F0A0BD2DE9F84682468946154655
:1019F0001E4605F0C8FCDFF804460746208990B96A
:101A000000F0A3F80921504602F0DEFD606008B93D
:101A1000112023E0A81C60803A1F208901466B1822
:101A20009A4206D203E06088A91C8842F4D00120C3
:101A300014E0401C2081606846542089411C2181AB
:101A4000310A62681154606823892A46494618445D
:101A5000FEF7D8FF2089281820810020BDE8F286F3
:101A60002DE9F047044686B06088DFF890750D4692
:101A700005F089FC0026A0F10109A0F1010814E09D
:101A80003888798B0346C9188845BCBFA9EB00008C
:101A9000788378687A8B396A1844FEF7B3FF388800
:101AA000798B0818761C3880B6B2A0898642BCBFF4
:101AB0003888404534DAA06810F8162000EB46005C
:101AC00004A9407802EB002080B200F05BFD010029
:101AD00009D14FF0010A00F02BF8786808B103F043
:101AE000BEF85046DDE02079BDF8102003901FFAC3
:101AF00089F000F02EF83B6A00F024F800288246B6
:101B0000E9D178680028BBD100F01EF80F2102F05F
:101B10005BFD00287860B3D100F00AF81120E1E7FE
:101B200060883946FFF7B6FB0028DBD01620D9E7DE
:101B3000A06810F8161000EB4600407801EB00207A
:101B400028807047608867E2608800234FF6FF7244
:101B5000704702900020019007F11A000090704732
:101B60002DE9F047044686B06088DFF89054894636
:101B700005F009FC059004F10D0204A80090237BF8
:101B80006189208900F0CFFC0026B24607464FF05D
:101B9000FF0810E0696801F8068080B2696801F802
:101BA0000080461C68686A8B296AB6B28019FEF705
:101BB00029FF688B8619B6B2FFB1BDF81020397ABB
:101BC000608800F06BFC5FEA000A13D12079BDF851
:101BD0001020039039460598801F80B202900020A3
:101BE000019005F11A0000902B6AFFF7ABFF5FEA46
:101BF000000A10D07889A9F80000002E48D0688823
:101C000096FBF0F0288029466088FFF752FB0028F9
:101C100047D0162045E07EB9FFF796FF112102F06C
:101C2000D3FC686020B97889A9F80000112038E059
:101C3000688B001D688009E0688B6988021D9142ED
:101C4000DDD10599891F80198142D8DB69687889BF
:101C5000885579896A68701C80B2090A1154461C3B
:101C6000BDF8102061890DF11203384600F0B0FC78
:101C70000746701C002FB6B28CD06A68BDF81210EF
:101C8000915580B2BDF812106A68090A115488E7AC
:101C90005FEA0A002089A9F8000008BF4FF00A0A8D
:101CA000504606B0BDE8F087FEB504460D462089D3
:101CB000164602A900F066FC07002ED0387A80068E
:101CC0000BD5BDF8080000F0A1F903000BD0608827
:101CD000122239469847070020D1607C002814BFA3
:101CE0005220207901E00E2718E00190002000909A
:101CF0006389E2682189608800F08AFA070007D1C9
:101D0000607C68B96088FFF7E5FA48B11620FEBD2F
:101D1000162F03D10027377002E001272089288081
:101D2000607C00B100273846FEBD2DE9F041044635
:101D300082B00D4660889046012104F040FE0027E5
:101D400018B9142060700E205BE02089694600F00D
:101D500019FC060051D0307A80060BD5BDF8000082
:101D600000F054F9030013D06088122231469847DE
:101D7000070043D16688304600F008F928B94FF6CD
:101D8000FF7000F003F9A0B3068000219B4E02E033
:101D90000E2733E0491C737ECAB29A4229D24268A8
:101DA000C9B20C234B4313441A88002AF2D10C22E7
:101DB00004F108011846FEF725FE002088F800000F
:101DC0000C2204F108013046FEF71CFEA28960884F
:101DD0000023172102F0F8FBB06060B1A2892169ED
:101DE000FEF710FE60883146FFF77AFA40B1162000
:101DF00007E0092702E0112700E001272089288059
:101E00003846BDE8F6812DE9F043044683B060888A
:101E1000894600F0BBF800265FEA00084CD0207A23
:101E2000012845D1414604F1080000F051F8A0B165
:101E3000D8F804701820019078880090BB88BA68A0
:101E40003988608800F0E4F90646162E02D1002099
:101E5000B8602DE060B3388828E000270EE00190DC
:101E600068880090AB88AA68608800F0D1F90646BF
:101E7000162E18D10020A8607F1CFFB25F48407E5C
:101E8000874215DAD8F804100C227A430A44154622
:101E900029880B000CD07B1C83421DBF9089002831
:101EA00016201820DBE7002EE6D02888A9F80000CD
:101EB000404600F080F82EB96088FFF71EFA20B186
:101EC000162003E0162E08BF00263046BDE8FE832C
:101ED0002DE9F84F0C460020002700264FF00C0B90
:101EE00046490DE0984202BFBCF8025093B2AB42A3
:101EF00024D1BCF80430DF19BFB29A1892B2761C14
:101F00004B7E9E420FDA63680BFB06FC9C44BCF8D8
:101F1000003043B10028E5D1BCF80470BCF80220C1
:101F20001846BA18EAE7022E2DDB38004FF00009F8
:101F300004D002F07BFE5FEA000801D1002023E01C
:101F4000CA461AE00BFB0AF14518A96859B1AA88DC
:101F500008EB0900FEF756FDA88848441FFA80F9EF
:101F6000A86802F07CFEBAF1000F04D00C22002118
:101F70002846FEF779FD0AF1010AB2456068E1DB07
:101F8000C0F8088087800120BDE8F28F10B51B4A99
:101F9000D269002100E0491C194C2478CBB2A3423D
:101FA00007D2C9B232F831308342F4D102EBC1001A
:101FB00010BD002010BD70B5044600250BE0B068D0
:101FC00008B102F04CFE0C2200213046FEF74CFD19
:101FD000002030806D1C0949497EE8B2884207D252
:101FE0006068EDB20C216943461830880028E6D1BC
:101FF0004FF6FF70208070BDFE4600201448002080
:102000004C480020B72201003848002080B5FFF777
:10201000F3FA00B1806802BD2DE9FE4F0D468046FF
:10202000287AC00693461E464FF0000A0CD5584643
:10203000FFF7ECFF030000F0E4800A222946404647
:1020400098470028824649D128780C9F0D9CDDF8DE
:102050003890022816D100F018F94FF42051401A98
:10206000012810D9801E3AD0401E14D0FD3876D0F9
:10207000401E00F07D80401E6AD0401E6FD0401E82
:1020800000F09180A7E0002C2AD1E868017839801F
:102090000278416883E0002C22D1012038800021A1
:1020A000E868007830706889401C80B200F06AFAF5
:1020B000398860B10278921C511839804189717059
:1020C0004189090AB17002784168F01C68E0081D76
:1020D000388004220021701CFEF7C6FC93E0002C1F
:1020E00062D1E8680488042038803470200A707057
:1020F0000DF10201204600F045FA05001ED0EC6803
:10210000BDF802204FF6FF786B46414600F060FABA
:1021100040B92B786A688B48022105F0E3F808B9CA
:10212000ADF80080207802280AD161680222301DB3
:10213000FEF768FC3888801C388001E0ADF800406C
:10214000BDF80000B070BDF80000000AF0705AE061
:1021500054BBE8680168404605F048F902E01CBB42
:10216000E8680088022139803070000A70704AE007
:10217000E868FEF745FC82B2A242B8BF4FF0070AFA
:1021800041DB944208BF002206D009EB04019142D2
:10219000B2BF4A46121B92B23A80E96821443046E7
:1021A000FEF730FC2FE014B14FF00B0A2BE0E8688B
:1021B0000721398001783170417871704188B170A0
:1021C0004188090AF17001793171C1887171C08843
:1021D000000AB07117E05846FFF70EFA00281CBF3E
:1021E000D0F800C0BCF1000F0BD00F980290CDF8D2
:1021F000049000943B46324629464046E0478246DA
:1022000001E04FF00E0A5046BDE8FE8F0846002060
:102210002DE9FE438046894617461E4602A94846D8
:1022200000F0B0F905002CD0BDF80800FFF7E4F984
:1022300000281CBFD0F804C0BCF1000F1FD00A98C2
:102240000B9C0090019433463A4629464046E047AD
:102250000646B8B9FE2C15D02878022812D100F015
:1022600014F842F6021188420CD13878797800EBE4
:10227000012082B24946404600F047F802E00E26AF
:1022800000E001263046BDE8FE83686801784078AA
:1022900001EB002080B27047E0B58DF808200223E2
:1022A000120A8DF80920FE2201920022009202AA51
:1022B000FFF7AEFF0EBD7CB50129044605D002290B
:1022C00022D1012104F07BFBF0B92046FFF75EFE2E
:1022D00008B1FFF770FE01A800904FF6FF750223CA
:1022E000194A2946012000F01EF90BE0F068016848
:1022F000204605F061F8BDF8042000232946304649
:1023000000F066F90600F1D173BDF8B50F4F044631
:102310003878FF280D46164611D00A20FEF7C5FB77
:1023200068B1B12101704480002141700171C58004
:10233000068101463878BDE8F440FEF7D7BBF1BD11
:10234000000000009CCC0100A4CC0100FE4600204F
:1023500070B5DFF8385A28780624604304F0DEFBB5
:10236000DFF82C1A086008B9132070BD0020FF2286
:1023700006E03380401C0023F270B2703371C0B2AB
:102380002B7898420ADA0B6804FB00F61E440028FA
:102390000CBF4FF6FE734FF6FF73EAE70FF25140A2
:1023A00001F0DEFF0FF61510FEF702FF0FF65510D5
:1023B00004F047FA002070BD70B50446208868B16B
:1023C00060680378426800F040F948B960680378B3
:1023D0004268DFF8C00900F03AF908B9022070BD80
:1023E000A078C01F0A2801D3182070BDDFF8A859B3
:1023F0002888010004D02188C0F58030884201DAA5
:10240000012070BD0C2004F089FB060001D11320CF
:1024100070BD002008E06268298880B202EB0012DB
:10242000401C5181491C298081B222889142F2D3FB
:102430000020306008222146301DFEF7E3FA68686C
:1024400010B96E6004E0084601680029FBD10660FF
:10245000002070BD38B502460846DFF83C194C68CC
:10246000002301E02346246894B1A5686D89954254
:10247000F8D12268002B0CBF4A601A6018B10822FC
:10248000211DFEF7BFFA204604F054FB002032BDA8
:10249000012032BDDFF804190870704710B50446FA
:1024A00010461422114203D000F0DAF8012204E0B1
:1024B0004A0608D500F0D4F8002201462046BDE8BF
:1024C000104004F0BEBAC80701D4022010BD00209D
:1024D00010BD70B505460E46B0061C4609D510461F
:1024E00000F0BEF801462846BDE87040012204F025
:1024F000A8BA8820064210D0104600F0B1F8014674
:1025000006F00802284604F09CFA010009D0617A1E
:1025100041B1217A012904D070BDB00701D4032054
:1025200070BD002070BD2DE9F0478146DFF86808D6
:1025300044688A4690461E4600E02468FCB10027A5
:1025400000E07F1CA188B8B28842F6D2A068BFB272
:1025500000EB07156889484528BF8245F1D33EB195
:10256000297868683346424604F0BCFE0028E8D06B
:10257000089810B1A16849890180284600E0002030
:10258000BDE8F087F0B5DFF81028546800E0246853
:10259000E4B1A5686E89B042F9DBA788BA19904208
:1025A000F5DA4FF0000C01E003F1010C1FFA8CF298
:1025B000BA42ECD21FFA8CF305EB0312B2F80AE030
:1025C0008645F1D101B10E801046F0BD0020F0BD6E
:1025D0002DE9FC4104460027ADF804704FF6FF7862
:1025E0006089404515461E4608D001AA0092401C4D
:1025F0002378626880B2FFF796FF07462378626807
:1026000000F023F830B923786268DFF8880700F01B
:102610001EF808B160890CE023786268DFF8800753
:1026200000F015F858B11FB1BDF80400A84203D05E
:10263000284600F0D2F803E07889404400E0608941
:1026400006B130803846BDE8F681DFF85807022130
:1026500004F048BE80B500F0F3FA00B1008802BD76
:1026600080B500F0EDFA08B1807802BD102002BDFF
:1026700070B5012982B00446154616D0032918D03A
:10268000052925D0072927D0092929D00B292BD0A6
:102690000D292DD00F292FD0112931D0132933D056
:1026A000172934D0192936D039E02946FEF783FDA1
:1026B00033E0FEF76CFDADF8000069462046FEF7FA
:1026C00083FD06002CD12988204601F028FF27E051
:1026D0002946FEF785FD20E02946FEF799FD1CE01E
:1026E0002946FEF7A5FD18E02946FEF7B7FD14E0E0
:1026F0002946FEF7C1FD10E02946FEF7CBFD0CE0B0
:102700002946FEF7D6FD08E0FEF7E4FD05E0294680
:10271000FEF7E6FD01E0FEF7F0FD064600E00226CA
:10272000304676BD2DE9FC410E46054617461C464F
:1027300001A900F092FA804638BB380014D000207E
:10274000ADF8000069463088FFF71CFF012FBDF887
:10275000000018BF0027FFF783FF01463A462846CE
:1027600004F06FF9804680B931462846FEF7D6FD61
:10277000804650B9019DFF2C07D0AB1C1E22294674
:102780000FF2555001F0ADFEEC704046BDE8F68109
:102790007CB50D460446164601A900F05EFA1728DE
:1027A0001AD0300014D00020ADF800006946288807
:1027B000FFF7E8FE012EBDF8000018BF0026FFF766
:1027C0004FFF01463246204604F03BF9010003D199
:1027D00029462046FEF797FD76BD10B50446FFF763
:1027E00039FF01001CBF611E0C18A0B210BD000013
:1027F0002DE9F0430D4689B08146A87800261E28B1
:10280000174614D1484600F03CFA06001EBFB078C7
:10281000FE28FF2822D0002000900022AB78F0781C
:10282000494601F033FE304600F040FA16E0122827
:1028300004BF6878012813D0484600F022FA060049
:102840000ED0327910000BD0100607D4A978484674
:1028500001F078FE307940F080003071002069E0AE
:10286000DFF838452078FF2812D0A878811E172974
:102870000ED200F08AF958B1A87800F0B3F938B157
:10288000287810B96878012804D1A878122801D0D6
:1028900006204FE0A87800F078F9844602A800905E
:1028A000AB88AA6869782878E0470028804640D13C
:1028B000A87800F097F9024602A94846904780465A
:1028C000D8B9AB78042B34D002A80090002220782D
:1028D000494601F0DBFD804658BBA97802A801F00B
:1028E00049FE08B100203870A878122804BF697822
:1028F00001291ED0EEB130711BE06878C8B9A87804
:102900008DF800008DF804806946A878042818BF67
:102910000628BDF80800ADF802004846FEF74BFC5B
:1029200028B16B4601221621484601F0EEFD4FF01A
:102930000008404609B0BDE8F083002070472DE94B
:10294000FE430D46804628886988814201D30100F4
:1029500001D101206DE00021ADF8041002914FF685
:10296000FF7900E0401C00210091002369880022CB
:1029700080B2FFF7D8FD070037D0BDF8040000286B
:1029800038D16B464A460521404601F01DFE040041
:1029900001D111204DE002943878022806D101209F
:1029A0008DF80600BDF80000860827E002208DF8AB
:1029B00006001221BDF8000090FBF1F638781028CF
:1029C00013D1788904F8010B102200F034F8103488
:1029D000BDF80400401CADF80400B1B2BDF804001D
:1029E000884202D278894845BCD1BDF8040080B93C
:1029F0000A201EE09DF806000128DFD13878022861
:102A0000F3D1788904F8010B022200F014F8A41C19
:102A1000DEE701A94046FEF7E3FB48B101AB052222
:102A20001621404601F071FD10B1029802F017F92D
:102A30000020BDE8FE837889000A04F8010B2046D7
:102A40007968FDF7DFBF10B582B04C8808888442F2
:102A500001D3020001D1012016BD00F016F808B91B
:102A60000A2016BD002016BD10B582B04C8808881B
:102A7000844201D3020001D1012016BD00F005F807
:102A800008B90A2016BD002016BD002200924A1D7A
:102A90000B79214647E510B5044682B008466946E1
:102AA0000088FFF76FFD08B9012016BD017ABDF857
:102AB00000202046FFF7F2FC16BD70B582B0064636
:102AC0000D46002401E0641CA4B2A888844229DADF
:102AD000286810F8142000EB44006946407802EBA7
:102AE000002080B2FFF74EFD50B9286810F814108E
:102AF0000170286800EB440149784170012076BDDF
:102B0000017ABDF800203046FFF7C8FC0100DAD09A
:102B1000296811F814200A70296801EB44025278E0
:102B20004A7076BD002076BD10B50C4682B0208874
:102B30006188814200D308B9012016BD23799948E4
:102B4000621DFFF784FD08B9102016BD002000901B
:102B5000237961882088621DFFF7E5FC08B90A2007
:102B600016BD002016BD38B504460D4669462888B6
:102B7000FFF708FD08B9012032BD017ABDF8002039
:102B80002B462046FFF7A5FC32BD022814D00428AE
:102B900014D0062814D008281AD00A2812D00C28DD
:102BA00012D00E2812D0102812D0122812D01628B7
:102BB00012D0182812D013E07B4870477B4870472A
:102BC0007B4870477B4870477B4870477B4870471D
:102BD0007B4870477B4870477B4870477B4870470D
:102BE00000207047022814D0042814D0062814D0DE
:102BF000082814D00A2818BF0C2812D00E2812D08A
:102C0000102812D0122818BF162810D0182810D05B
:102C100012E06F4870476F4870476F4870476F48C1
:102C200070476F4870476F4870476F4870476F48EC
:102C300070470FF20900704700207047002070476E
:102C40005549496800E0096829B18A685289824279
:102C5000F9D1081D70470020704710B50C4600F0F0
:102C600010F860B104B120608078FE2801D11720EF
:102C700010BDFF2801D1002010BD162010BD02207C
:102C800010BD10B5424A1268002100E0491C3F4CBB
:102C90002478CBB2A34207D2C9B206234B43D45AFD
:102CA0008442F3D1D01810BD002010BD10B50446E9
:102CB000A01C01F01EFCFF20E07010BD10B50C46FA
:102CC000FFF7DFFF30B101794A1C944204BF01F0E5
:102CD0008001017110BD000010B582B004001EBF5C
:102CE000A078FF28FE280BD0002000901E2321880A
:102CF000E078172201F0CAFBFE20A070FF20E070F0
:102D000013BD000070B504464FF6FE70844282B0D9
:102D100037D008004FF6FF760AD12046FFF7B1FF03
:102D200078BB3046FFF7ADFF05002AD0048073BDA5
:102D3000012906D12046FFF7A4FF050021D02E80EF
:102D40000BE002291DD10121204603F038FEC0B955
:102D50002046FFF796FF050013D0A878FF280ED075
:102D6000FE2807D0002000901E23E8781422214678
:102D700001F08CFB2846FFF799FFFF20A870002088
:102D8000287173BD0448008870470000D9480020AE
:102D9000444800209CCC0100184600200047002039
:102DA000A0CC010098CC0100757001008F7001006B
:102DB000B17001003971010087710100AF7101002C
:102DC000FB70010057710100E57101002B720100D9
:102DD0003B2901003F290100472A0100692A01001F
:102DE000972A0100BB2A0100292B0100672B010053
:102DF000DFF800F0DD8A0010DFF800F0A18B001092
:102E0000DFF800F0D5700010DFF800F09D580010DA
:102E100030B540F67B44851FA5423CBF8D1FA542BF
:102E200012D2814210D3B2F5FA7F0DDAA3F10A0073
:102E300040F67744A04207D2501C49004843B0EB0B
:102E4000C30F8041C00F30BD002030BD80B505F0FC
:102E50004AF88DF8000005F099FE774900200870C7
:102E60006A4676490880012140F6034063E080B558
:102E70000FF26022412141F20200FFF7B9FF00206A
:102E800002BD7CB5002808BF00294FF620442DD193
:102E900062BB01A805F0B5FD9DF8040000EBC00081
:102EA000451DEDB2284603F039FE060018D020205B
:102EB0003070042070700020B0709DF8040000286D
:102EC0000CBF0022721D311DF01C05F089F832463E
:102ED0002946204606F078F8304603F02BFE15E030
:102EE00004218DF801102020072106E005F078F874
:102EF00004218DF80110202000218DF800008DF8AC
:102F000002106A460321204606F05EF8002076BDD6
:102F100080B500208DF800006A46494800788DF899
:102F20000100042100208DF80200464800788DF849
:102F3000030042F20200FFF75BFF002002BD012008
:102F400070470120704738B5044642F216052946FD
:102F50000020FFF751FF204605F0D9F88DF800005A
:102F600020B16A4601212846FFF742FF002032BD0A
:102F700080B5012305F0A5FA00F01BF842F21E000F
:102F8000D9E780B5012105F059FB00F012F842F2B3
:102F90001D00D0E780B530B1014608222A48FDF770
:102FA00031FD002000E0122000F003F840F66340FD
:102FB000C1E78DF800006A460121704780B542F2F2
:102FC00013010C20FFF718FF002002BD80B51D2162
:102FD0008DF8001004218DF8011010B9FFF710FFD3
:102FE00000E011208DF802006A4603214FF61D40D3
:102FF0000DE080B51C208DF800006A4604208DF895
:10300000010003210C208DF802004FF61C4005F052
:10301000DBFF002002BD05F02DBD80B530B10B49AE
:1030200002780A7040784870002000E01220FFF714
:10303000C0FF42F201007EE7244F0020264F00200F
:10304000484300204A430020BC480020B4480020E8
:1030500000B585B06A460DF1020101A8FFF7D4FE64
:103060008DF80800212107208DF8090002AA02A886
:10307000817002218DF80B109DF804108DF80C1052
:10308000BDF802108DF80D10090A8DF80E10BDF86C
:103090000010C171090A017241F201000921FFF714
:1030A000A7FE002005B000BD10B582B004460DF1AA
:1030B000030105F0ACFC8DF800008DF80140200AFA
:1030C0008DF802006A46042141F20540FFF790FEA8
:1030D000002016BD000000800000C000000000E4D9
:1030E0000000002822000000000000040000F7C3D8
:1030F000B37E00000000000000000000000000009F
:1031000000000000000000000000000000000000BF
:1031100000000000000000007CB5144600254FF4BC
:103120008063C21ADFF8CC6A21D0521E26D0521E0C
:1031300029D0521E2ED0521E33D0521E38D0521ECD
:103140003FD0521E44D0521E47D0521E4ED0521E67
:1031500074D0521E79D0521E00F07E80521E00F0B4
:103160008380D21E4DD0083A00F08A8090E0012979
:1031700011D1207802280ADC707393E002290AD169
:10318000208830858EE0012905D1207801287DDC5A
:10319000B07387E0012979D12078052876DAF073B9
:1031A00080E0012972D1207801286FDC307479E049
:1031B00010296BD11022214606F13C00FDF722FCBC
:1031C00070E0012962D1207801285FDC707469E029
:1031D00001295BD12078307564E0042956D120683C
:1031E000DFF8401B884251D2F0625BE000294DD1EC
:1031F00003F0FEF910B900F06EFC17E00120F07545
:1032000050E0072942D10622611C6846FDF704FC04
:1032100020780022694600F05BF904460A2C40DA67
:1032200003F0E6F930B9204600F061FC502001F0CF
:103230007DF822E031190120087733E0012925D1FA
:103240002078012822DCB0742CE001291ED12078DE
:103250000A281BDAF07425E0012917D12078C11F54
:103260000A2913D270751DE001290FD1B17D207894
:10327000B075002908BF012814D100F0CDFB11E082
:10328000012903D114B1207870760BE0182509E0EC
:10329000282806DA022904D1218802F065F80546BB
:1032A00000E00225284676BD38B500244FF480633F
:1032B0000D46C21ADFF83C191CD0521E1CD0521EFB
:1032C0001CD0521E1CD0521E1CD0521E1CD0521E8E
:1032D00020D0521E20D0521E20D0921E21D0521E2D
:1032E00021D0521E21D0521E21D0521E21D00A3A86
:1032F00022D024E0487B20E0088D24E0887B1CE07D
:10330000C87B1AE0087C18E010223C312846FDF703
:1033100079FB1BE0487C10E0087D0EE0C86A28605D
:1033200014E0887C09E0C87C07E0487D05E0887DE2
:1033300003E000F0BDFB00E0487E287006E028288E
:1033400003DA02F01EF8288000E00224204632BD95
:103350002DE9F04F93B09B46904601AB0022C3E9A4
:103360000022DFF8904801AA00F0B2F88146B9F1D6
:103370000A0F71DA062707FB09F505F1200003AAF9
:103380000E2100F031FB0028607B0CBF9DF8196016
:10339000002602280CBF4FF0010A4FF0000ABBF1D3
:1033A000080F07FB09F703D1300758BF223700D5B4
:1033B00021371C2200210CA8FDF756FB0CAA1C216A
:1033C000F8B200F095FF06F0010660B99DF84A00DA
:1033D000C01F0A2807D2CDF800A00CAB002231464E
:1033E000404602F0E4FA1422002103A8FDF73CFB5A
:1033F00005F1240003AA00F0F6FA80B91022FF219B
:1034000003A8FDF7FCFD50B9253507AA0421E8B251
:1034100000F06EFF03AA3146404602F007FA09F1B8
:10342000700008AA00F0DFFA98B908A800F023FAA3
:10343000002508AE294636F8210038B108AA02EB6B
:103440008102014692784046FEF726FF6D1C042D4E
:10345000F0DB484600F007FBBBF1040F04BF607BC4
:1034600002280AD1607C002100B10121A07B00B1BB
:1034700004200143404602F037FE002013B0BDE8AF
:10348000F08F70B503F0B4F808BBDFF86847E07D53
:10349000012809D100F01FFB0021E1750A2204F187
:1034A0001C00FDF7E1FA0CE000256619307F0128C9
:1034B00004D1284600F01BFB002131776D1C0A2D3A
:1034C000F3DB502000F032FFBDE87040A4E270BD95
:1034D0002DE9FF4115460C460A266279022102F0C9
:1034E000C002C02A08BF002102D0402A08BF012123
:1034F000020018BF022803D0032818BF00290DD1ED
:10350000204600F074FA06460A2E3CDA002D3AD026
:10351000062221462846FDF775FA34E0022910D12B
:103520000027DFF86C890E207843404406222146AC
:10353000C01DFDF78BFAF0B97F1CFFB20A2FF2DB3A
:1035400021E001291FD100270620784323306A4655
:1035500000F049FA50B91022FF216846FDF74FFDEF
:1035600020B92146684602F067FD20B17F1CFFB2FA
:103570000A2FE9DB07E00A2F3E4604DA1DB129468F
:10358000304600F017FA304604B0BDE8F081F8B5D7
:103590000C4615264FF6FF71884215460BD10027C1
:1035A0002A462146384600F00DF900B100267F1C5E
:1035B0000A2FF5DB10E003F0D4F960B1811D4079EA
:1035C0000022FFF785FF0A2806DA2A46214600F086
:1035D000F9F8002600E014263046F2BD10B5DFF8F9
:1035E0001446217B2063262001F0BEFE207BBDE82F
:1035F0001040FDF7D3BE38B50446002508000ED1B3
:10360000DFF82037DFF81C07B2FBF3F300FB1322CF
:103610002146104602F0A5F9050003D001212046FD
:1036200002F076F9284632BD7FB5DFF8C865054659
:10363000A978306B062900F0BB80092976D00A29C9
:1036400021D00B2905D00E2968D00F2900F07F80EA
:10365000B1E000281CBF0468002C07D02869009046
:103660006B7B2A7B6989E81CA047A4E028696989EB
:10367000002814BF0120F06A02F073F90028F4D08A
:103680006889012180E068780024002833D1A97975
:10369000C80730D5706B70BB0E2200F08FF86869D8
:1036A00038B1007C8DF806000622686900F111012E
:1036B00009E0A88803F055F900287CD041798DF8FD
:1036C00006100622811D6846FDF79CF9A9799DF830
:1036D0000D00890801F0010108438DF80D0029460D
:1036E000684600F0D7F828B9307B0221FDF7D0FA00
:1036F000002061E01524306B00281CBF4368002BBC
:1037000059D06A78A88801219847200053D0336B9C
:10371000A88822465C680321A0474CE000281CBF13
:103720004368002B47D06A7802213EE0E878002207
:10373000291DFFF7CDFE0A283DDA06235843253020
:1037400005F10C020421C0B200F0E2FD33E0A888CC
:10375000B17C09B1F17C17E0717B09B9052113E057
:1037600003F0FFF8040026D0A87AC1070FD56079CE
:1037700068B1E968C1F3402149B96A46A11DFFF764
:10378000A7FE20B9A888032102F0C2F813E06179EE
:10379000A88805F1080200F0F3FA306B00281CBF7E
:1037A0004368002B07D000220021A888984702E038
:1037B000A888FFF766FE012004B070BD00216846AE
:1037C000FDF752B970B5054606236B4388B00E4627
:1037D0001446203304AA0E21D8B200F089FD002837
:1037E00038D10622FF2104A8FDF709FC90BB7035F3
:1037F0006A461021E8B200F07BFD48BB684600F045
:103800003AF8300009D1102200216846FDF7F7FB95
:10381000F0B91022FFF7D2FF12E0694600F01DF860
:1038200038B9200016D06946002000F016F888B19B
:1038300006808178A1420BD084700CB900210180F0
:10384000684600F018F86A461021E8B200F060FD02
:10385000012000E0002008B070BD002231F82230C5
:10386000834205D0521CD2B2042AF7DB00207047F5
:1038700001EB82007047002130F82120D24320F86C
:10388000212000EB8102491C9378DB4304299370CB
:10389000F2DB70472DE9F043DFF85863DFF8F0956D
:1038A0008046706B85B00D460E24E8B9B8F1000F64
:1038B00018BF002D71D0404600F099F80A283076E4
:1038C00012DB002704FB07F00622FF214844FDF726
:1038D00096FB40B97F1CFFB20A2FF3DB707E0028F5
:1038E00014BF37780A273776337E0A2B55DA062736
:1038F000706B7B43D0B9203342460E2100F052F862
:10390000307E00F0B0F81022FF21FFF758FF307E24
:10391000703000F04AF8307E44430E22414609EBF5
:103920000400FDF76FF87563002037E0826832B15C
:10393000213300F036F8716B00208860F4E70269EB
:1039400032B1223300F02DF8716B00200861EBE7F3
:1039500042693AB12333102100F024F8716B002042
:103960004861E1E7C26892B12433102100F01AF8EF
:10397000706BC168307E474301F110022537042186
:10398000F8B200F0C5FC716B0020C860CCE7B07DD8
:1039900008B100F05DFA00F0E2F9012005B0BDE8E1
:1039A000F0831C21D8B200F0B3BC6A461021C0B22B
:1039B00000F0AEBC30B50A2885B00C4600DA0CB970
:1039C00002200EE00623584320306A460E2100F004
:1039D0000BF8050004D1062269462046FDF712F8CF
:1039E000284605B030BD1021C0B200F081BC70B5D2
:1039F00004460025DFF898640E206843062221461D
:103A00003044FDF723F828B96D1CEDB20A2DF3DB25
:103A10000A2070BD284670BD38B500240E2106234B
:103A2000DFF86C0461436343451820332A460E21B6
:103A3000D8B200F05DFC58B10622FF212846FDF700
:103A400013F80622FF21E81DFDF70EF80020687329
:103A5000641C0A2CE2DB6749887D08B100F0F8F9A4
:103A6000BDE831407BE138B50A230A24614A611E72
:103A7000E4B2144414F8014C844206D00C46C9B296
:103A80000029F4D1DBB2184607E00B46FAE7141818
:103A9000115C657815546170401C0928F7DB092B0F
:103AA00005DABDE838400A21052000F031BC31BDFF
:103AB00070B500240025DFF8D8630E206843062285
:103AC000FF213044FDF79BFA00B9641C6D1C0A2DE0
:103AD000F3DBE0B270BD10B50024204600F007F81B
:103AE000641CE4B20A2C01DA0100F6D010BD2DE905
:103AF000F047404D297E884290B0044609D1287B8A
:103B00000121FDF716F9287B0221FDF712F900F0DB
:103B1000B4F90625654305F1200607AA0E21F0B287
:103B200000F0E6FB002848D10622FF2107A8FDF798
:103B300066FA002841D11C22FF21FFF740FE102227
:103B4000FF210BA8FCF790FF0E22FF2107A8FCF72E
:103B50008BFF07AA0E21F0B200F0DAFB064605F152
:103B600021006A461C21FFF722FF074605F12200CB
:103B70006A461C21FFF71BFF804605F12300FFF773
:103B800014FF814605F12400FFF70FFF824625351B
:103B90006A460421E8B248EA070700F0B9FB49EA9F
:103BA00007074AEA0707074370340BAA1021E0B25F
:103BB00000F0AEFB07433E4300E00026304610B065
:103BC000BDE8F08710B5B34C207304F14C0002F04F
:103BD000FCFDFFF721FF22460A21052000F088FBAB
:103BE00030B10020C0F109012154401C0A28F9DB42
:103BF00010BD000040440020F0B50D46280485B0FB
:103C0000A44C25D5207BFCF7CEFF04001DD02178E5
:103C10000120B0290FD0B12905D0D02904BF2046FA
:103C2000FFF702FD0DE0207960B92289E188608804
:103C3000FFF7ADFC06E0217904F1080000F000FD7B
:103C400000E010B12046FCF742FF85F4004066E03A
:103C5000A80709D500210020FFF71CFE002885F0E9
:103C6000020551D1022150E0E80753D5606B8688E8
:103C7000A06B4FF6FF7748B904F12A0100910223A7
:103C8000854A39460120FEF74EFCA06385F0010508
:103C9000A16B21B3FF200390022200230292019323
:103CA0000DF11200009004AB628D3046FEF7B4F9BE
:103CB00068B99DF810209DF8110002EB002290B227
:103CC00028B1A06B418992B23046FFF760FC628D4B
:103CD000A06B00233946FEF77BFCA063A0B9206BE4
:103CE00000281CBF4368002B0BD0606B808800222B
:103CF00001219847606B236B80885C680022032158
:103D0000A04700F0BAF803E00121207BFCF7C0FFD8
:103D1000284604E068074CBF85F00400002005B089
:103D2000F0BD000040420F0010B506240246203AC4
:103D300092FBF4F40623012003FB1422052A0DD87C
:103D4000DFE802F00305050707090E2904E01C2936
:103D500002E0102900E0042908BF002010BD80B552
:103D6000FFF7A6FE0228A7BF02208DF800000A2157
:103D70008DF800106A460121052002F03DFA01BDD0
:103D800070B5AAB006460D46144602F0EAFD08B921
:103D900014205BE0A422FFF711FDADF800603D4E5A
:103DA000F07B317D279A8DF804005208707D8DF8E4
:103DB000A0004B0801F0010040EA420222F002029A
:103DC00003F0010342EA4302080922F4807200F082
:103DD000010042EA0022480922F4007200F00100CA
:103DE00042EA4022880922F4806200F0010042EA9F
:103DF00080228908307C22F0040201F0010142EAAD
:103E00008102002827928DF8050006D0102206F1C5
:103E10003C010DF10600FCF7F5FD707C30B11DB1E1
:103E2000279840F002002790012100E000219DF832
:103E300099000143B07B8DF8991000B10420014333
:103E40008DF899106846214601F014FD2AB070BD26
:103E500038B5FCF781F800240E210D486143451860
:103E60000622FF212846FDF7CAF810B92946FCF7BB
:103E700077F8641C0A2CEFDB31BD10B5054C606B84
:103E800018B1FCF724FE002060630A20207610BDE4
:103E90004847002040440020A4CC0100002010B579
:103EA000DFF830446070207082B000F008F9002123
:103EB00000F002F90099B1F5801F02D100F0E7F897
:103EC0000CE0080004D100F0E2F800F022F905E06F
:103ED00000F0C0F800F0AEF804206080607816BDF5
:103EE00038B5DFF8F0532C78210001D0012032BD25
:103EF0006988C1F5805189B2814200D350B900F080
:103F0000A1F80020687000F004F9002802BF6C7866
:103F1000002C0124204632BD13B5DFF8B823BDF8CC
:103F2000021050881C46C9B200F0CEF8010009D03A
:103F3000DFF8A403049A0003A3B2000E05F082F890
:103F4000002016BD012016BD2DE9FB4382B0DFF82D
:103F50008443BDF80A800020607015466088994649
:103F60005FFA88F100F0B0F8060016D00027FFB223
:103F7000A9B28F4254D2DFF86003000301236A46DE
:103F8000B1B200F099F89DF8000019F807108842C6
:103F900004BF761C7F1CEAD042E0ADB2ED1C681075
:103FA00005EB9075AD10AD0460882D0C2818001D30
:103FB00041F20101884203DB00F044F800F0A9F867
:103FC00066884FF6FF7045F40041ADF80000ADF88B
:103FD0000210AF1900F02AF8BDF80200C0F30E007D
:103FE000ADF8020000F022F8AA05120E494630464C
:103FF00000F013F95FFA88F040F4004000F014F884
:10400000BDF80000C0F30E0000F00EF8607820B993
:1040100060882D1D2D186580002005B0BDE8F08357
:10402000A8B28742B9D1F7E7ADF80000012269468E
:10403000B8B2F2E080B54FF48010009001226946DA
:10404000002004E080B5002000900122694600F0C5
:10405000E4F801BD70B5A14801688847054600F045
:1040600023F906469C4800030021000E05F00BF8DA
:1040700005F014F80446304600F00CF90CB100F0DD
:1040800004F92846BDE8704095490A68104710B504
:1040900082B040F6FC7400F012F8214600F00CF8F3
:1040A000009911F1010F03D1241FA4B2042CF2DAFC
:1040B0008848241D448013BD000E04F0C3BF864809
:1040C000000304236A46704738B50C46051F00E01C
:1040D0002D1FADB2042D16DBFFF7F1FF2946FFF7C8
:1040E000EBFFBDF80010BDF80200A14203D1C0B241
:1040F0002D1AA8B232BD0104EAD4011D8D42A8BF19
:104100002D1AE5DA01E0002032BD002002F0DBFCD0
:10411000F9E72DE9F04F83B000F0C6F86D4FDFF8F6
:10412000B89183467888041F4FF0FF080025A4B299
:104130004FEA193A2DE04FF088508119042201A866
:1041400004F0C2FFBDF804005FFA88F188421BD07A
:10415000BDF80600361A361FB6B2311F40F6FC72A3
:104160009142E8D3BDF802104FF088500B1D421960
:10417000611A9BB289B25FFA8AF004F063FFBDF85E
:10418000020045192D1DADB2BDF80200241A241FEE
:10419000A4B2042C26DB04236A4621465FFA8AF087
:1041A00004F050FFBDF800104FF6FF70814201D0BF
:1041B00008000ED1BDF802100804E8D4091D8C4295
:1041C000E2DA002002F07FFC584600F063F800209D
:1041D00021E00104D8D45FFA88F18842D4D0804627
:1041E0002E1FB9E7FFF736FF45B12A464FF0885139
:1041F00009F1040004F042FFFFF71CFF584600F0ED
:1042000049F8787828B9291DC5F580557980A8B274
:1042100001E000207880BDE8FE8F2DE9F0472E4CAC
:1042200005460E46240B82B017462946E0B204F03C
:104230002AFF8146294801688847804600F034F803
:104240008246BA003146484604F018FF504600F056
:1042500021F801E02D1D361D3846471EC0B270B151
:1042600004236A46A9B2E0B204F0ECFE042231460F
:10427000684604F065FF0028ECD000F006F84046E0
:1042800017490A689047BDE8F38712480121417039
:104290000170704700B9704710B5124A1248136890
:1042A0005C680121A04710BD70B50F4C204604F09A
:1042B00079FF0546C0B250B10A4A13685E68002112
:1042C0002046B047204604F06DFF0028FAD1E8B23E
:1042D00070BD0000F846002000E00100DC4700202F
:1042E000E0470020D8010010004003400020D5E541
:1042F000E0B5ADF806000B460020ADF808008DF8DB
:1043000004000092DDE901010022FFF705FE0EBD69
:1043100082B01346ADF802000A460020ADF8040052
:104320008DF80000DDE9000102B00DE6642807DC2D
:104330000003642190FBF1F0C0F5805080B2CFE51E
:1043400004207047DFF800F00158001080B502210A
:104350006846FFF7F7FFBDF8000002BD70477047E1
:10436000814908607047814908707047032290FBBB
:10437000F2F080B2FCF7DDBE0178B02904BF4178CD
:1043800000290CD10179122903D1417C012906D1E0
:1043900001E01B2903D140880121FCF7E7BE7047EB
:1043A00010B5734C607002F035FB401C2070042186
:1043B0006078FCF753FEBDE81040FDF7C9BF38B583
:1043C0000C46200411D56A484078FCF7ECFB050048
:1043D00008D02878A02804BF284600F008F828460E
:1043E000FCF775FB84F4004032BD002032BD30B5CF
:1043F00087B0044601208DF8000001A9204602F094
:1044000003FE05002AD19DF806105748C9070AD5B2
:104410004368180005D060886A4601A99847054698
:104420001CE006251AE00368180006D060886A467A
:1044300001A99847050001D110E006259DF8050067
:1044400060B99DF806008DF810008DF8145000201A
:10445000ADF8120004A96088FCF7ADFE9DF80000DD
:1044600000281EBFA068002800F0F9FB45B99DF8A0
:104470000600122806BF9DF8051001291B2803D04D
:1044800060880121FCF772FE07B030BD2DE9F041D4
:104490000446FF2C0D46164698461FD02020FCF7F8
:1044A00004FB070018D0B02038707E707D8087F83C
:1044B0000480069929B1182207F10800FCF7A2FA36
:1044C00004E0182207F10800FCF7CEFA394620462E
:1044D000FCF70CFB002002E0132000E00220BDE806
:1044E000F08110B54FF47A746243BDE8104004F0D7
:1044F000AABE10B504001EBF2078FF28FE2803D0F6
:1045000004F0A9FEFF20207010BD80B50093134673
:104510000A46014615480078FFF7B8FF02BD30B5DE
:1045200083B004460D4602F019FF50B901A800906F
:10453000ADF804507F230D48007800222146FFF794
:10454000A5FF37BD00B583B07E238DF804108DF82C
:10455000052001A900910022014604480078FFF7D8
:1045600095FF07BD000000003C480020FF460020EA
:10457000D9480020052923D006291BD0072918BFB8
:1045800009291DD00B2918BF0D2919D00E2913D0C8
:104590000F291CBF1129122912D0162918BF17295B
:1045A0000CD01B2918BF1D290AD0522918BFD229A7
:1045B00006D007E0C06870470068704780687047A1
:1045C000406870470020704770B5052914461D46A5
:1045D00016D0062912D0092918BF112910D0122986
:1045E00012D0162918BF17290CD01B2918BF1D2956
:1045F0000AD0522918BFD22906D007E0072606E0C4
:10460000022604E0052602E0032600E001264FF61C
:10461000FF72944203D102F0B6FE841B02E0D2295D
:1046200008BF0C34301980B200F0F2FA38B105B18D
:104630002C807142BDE8704009B200F032BB70BD01
:1046400080B5FFF797FF18B1BDE8024000F007BB47
:1046500001BD0000DFF800F0E9940010DFF800F081
:10466000A19400100A7802704A7842708A78C9785A
:1046700002EB0121418070472DE9FC410D461646B1
:104680001F460A9A0999044601AB00F0F0F98046EA
:1046900008BB0199089808703346DFF8580501787F
:1046A000491CCAB2002A06BF012101220A46017034
:1046B000294601980271009701980279204600F07E
:1046C0000DF8804620B901981E2100F015FA02E08D
:1046D000019800F0F5F94046BDE8F6812DE9F0417A
:1046E000044684B00E4617469846172000F090FA0C
:1046F000050026D00A9A100003D04146281D904795
:1047000000E00020010A2E70E9706F70A87005218A
:10471000001DADF80800ADF8001001956946DFF8FE
:10472000D80400780028204602D000F059F801E0B3
:1047300000F00CF80446200004D0284600F08FFA60
:1047400000E01324204604B0BDE8F08110B50B88CA
:10475000DFF8A8240C2463431A44303A536833B971
:104760004B685360098950811181002010BD1620CB
:1047700010BD80B5052000F00FF858B9062000F0F4
:104780000BF838B9042000F007F818B9072000F03A
:1047900003F800B1012002BD0C2210B5DFF85C1453
:1047A00042431144A1F1300484B06168A9B1DFF83B
:1047B000482412787AB1ADF8000001916946208949
:1047C000ADF80800608900F00BF810B1606800F0E7
:1047D00046FA00206060012000E0002004B010BD17
:1047E00070B50D4604462889010004D0DFF8101486
:1047F0000988814201D21B2070BD6868042100F045
:1048000050FA0646288930702889000A7070288876
:10481000B0702888000AF0702889051D4FF6FE70D8
:10482000844213D10C20FCF740F901000CD09020F9
:1048300008704C8002200871CD808E60DFF8C403C0
:104840000078FCF753F918E0132070BD3346AAB284
:1048500000212046FFF7FEFE010007D002280ED0FF
:10486000072810D012280CD01F280DD1DFF888039C
:1048700001780A001CBF491E0170002070BD142081
:1048800070BD022070BD042070BD38B50446002004
:1048900060600879022821D1CA88042A1EDB886852
:1048A00001784378C57801EB0321837889B203EB63
:1048B00005230D1D95429BB210D1052B18BF042B6B
:1048C00003D0062B18BF072B08D1218123806FF05E
:1048D000030100F0E6F96060002032BD012032BD26
:1048E0000B88037002220B881B0A43700B88012B74
:1048F00006D14A88827004224988090AC1700CE0F6
:10490000022B0AD14A8882704A88120AC2708A88A9
:10491000027106228988090A417110467047022AED
:104920001BDB0A784B7802EB032202800288012A03
:1049300005D18A78C97802EB012141800BE0022A77
:1049400009D18A78CB7802EB032242800A7949792F
:1049500002EB0121818000207047012070470A8806
:1049600002700A88120A42704A8882704A88120AC3
:10497000C2708A8802718A88120A4271CA8882715A
:10498000C988090AC17108207047082A18D10A7815
:104990004B7802EB0322028011F8022F4B7802EBD6
:1049A0000322428011F8022F4B7802EB032282800F
:1049B00011F8022F497802EB0121C18000207047D5
:1049C00001207047022A00D101E0012070470A78D7
:1049D000497802EB0121018000207047F8B50446B8
:1049E0000D4616461020FCF760F8070016D0A020F0
:1049F00038707D80002078702EB10C223146381D31
:104A0000FCF700F804E00C220021381DFCF72CF81C
:104A100039462046FCF76AF80020F2BD0120F2BDBD
:104A20002DE9F04180460D4616461F462020FCF732
:104A30003CF8040019D0A2202070667065800698AA
:104A400020716771079929B1182204F10800FBF75A
:104A5000D9FF04E0182204F10800FCF705F821460C
:104A60004046BDE8F041FCF741B8BDE8F08170B5C3
:104A70001E0004460D4621D0012101F0A0FFD8B14F
:104A800061480078002100E0491CC9B2814211DA76
:104A90005E4B1B6803EB01125388002BF4D10020FE
:104AA000107001F14000508022B1D4801572326044
:104AB000002070BD152070BD142070BD012070BD98
:104AC00010B5044610220021FBF7CEFF23E00022A0
:104AD00000E0521C4C4909788A420BDA4B490968BC
:104AE00001EB02114B88002BF3D00B798342F0D1FC
:104AF00008467047002070474FF47A724A4300F12D
:104B0000090301460FF2190004F09DBB10B50446DD
:104B1000607A04F0A0FBFF20607210BD000000006E
:104B200010B504001CBF6088002807D0172120465C
:104B300000F005F82046BDE81040C1E710BD1CB5E7
:104B40000446207804280FD10020019000900A46E6
:104B5000E188207A1323FFF763FFE18802B0BDE804
:104B60001040122205202EE013BD072170B5044627
:104B7000002539BB18E025480068EDB200EB0516AA
:104B8000307800281CBF707AFF280CD0F088A04233
:104B900009D13046FFF7BAFF14213046FFF7CFFFA7
:104BA0003046FFF78DFF6D1C17490978E8B288423F
:104BB000E1D30425FF222146284600F004F86D1CAD
:104BC000082DF7DB70BD10B50C240C4B6043184466
:104BD000A0F13004608988420AD1606840B1FF2AA0
:104BE0001CBF0178914203D100F039F800206060C9
:104BF00010BD0000DC480020E6460020844800206C
:104C0000FC460020E4460020E5460020E84600205F
:104C100080B5001D80B2FFF721FD28B1BDE804403A
:104C20006FF0030100F03DB802BD000070B505460D
:104C30002D4801688847064605F1080080B201F05A
:104C40006DFF040005D02948A5800168216004603B
:104C5000083427490A6830469047204670BD70B531
:104C60000446214801688847204A0546106800210B
:104C700001E00146006870B100F108039C4222BFC8
:104C800086889B19A342F4D3036800290CBF1360E4
:104C90000B6001F04FFF2846BDE8704014490A68D8
:104CA000104738B504460D4600F00FF858B16D4274
:104CB000611900F10803994222BF808818188842C0
:104CC00001D3084632BD204632BD01460748006880
:104CD00038B100F10802914222BF8388D2188A427B
:104CE000F5D3704700000000DC470020E4470020B7
:104CF000E047002038B50225012918BF04291C46C9
:104D000010D100F047FB05000CD10599049800F084
:104D100055FB204600F05FFB00F03DF901F001FA81
:104D200004F022FB284632BDDFF800F0A198001005
:104D3000DFF800F0BD980010DFF800F0D9980010FF
:104D4000DFF800F06D98001070B5DFF8F0650546EB
:104D500030680C4608B1112070BD00F0E7F801D1B1
:104D6000122070BDDFF8D805806800281CBF0078CD
:104D7000002801D1102070BD0C2001F0CFFE306062
:104D800040B3012001F095F93068057000213068CA
:104D900041700A222146801CFBF734FE00F0C4F962
:104DA000040002D000F0A9FA15E0DFF898050078B9
:104DB000032810D11D2000F0E4FADFF88C150880DC
:104DC00048B1DFF8880500784EF66022042101F032
:104DD00076FF00E01324204670BDF8B50C46DFF8DE
:104DE000701509781546052211421E4627D0012C60
:104DF000DFF84C1502D18F680FB301E0CF68F7B12F
:104E0000202D02DA2A0002D00EB90220F2BD08706D
:104E10001F220021781CFBF727FE2A463146781C0A
:104E2000FBF7F0FD3D70284624B1791CBDE8F44045
:104E3000FFF77ABF791CBDE8F440FFF779BF122075
:104E4000F2BD38B5DFF8F444216809B9122032BD4B
:104E50000978814201D0032032BDDFF8F054287870
:104E6000022101F044FFDFF8D8140020488004211B
:104E7000287801F03CFFDFF8D014002008800320E0
:104E8000216848700020BDE83240FFF755BFF8B5F3
:104E9000044600F04BF801D11220F2BD1CB120787D
:104EA00001F0D3F808B90220F2BD6078801C2028F8
:104EB00023DA207800F0A3F908B11820F2BDDFF85A
:104EC00080546B680021002202E0B61C71181B6838
:104ED0005BB15E68767828B9C9B27718BF1C202FFD
:104EE000F3DB0120B61CB218F1E7D0B238B160781C
:104EF000D2B28018801C202801DB0B20F2BD0820D4
:104F000001F00CFE06000FD0082200F07CF8686863
:104F100030B100E0084601680029FBD1066000E0DE
:104F20006E6074600020F2BD1320F2BDDFF8200433
:104F3000007805210842704710B500F01CF801D137
:104F4000002010BDDFF8F8335968002201E00A465E
:104F5000096869B14C6824788442F8D14C680868C3
:104F6000002A14BF10605860084601F0E3FD00E01D
:104F70000024204610BDDFF8D8130978052211421D
:104F80007047DFF8CC0300780521084218BF00F015
:104F900043B91220704770B5DFF8A443A06818B178
:104FA00001F0C8FD0020A060E06818B101F0C2FD6A
:104FB0000020E0600521DFF89853287808421CD0D3
:104FC00004F1100001F0FEFB2878002605210842BC
:104FD00011D000F077F9A06060B100F013F800F094
:104FE00071F9E06010B100F00DF804E0A06801F084
:104FF000A1FDA6601326304670BD002001F0E2FB43
:10500000002070BD20220021FBF72EBD2DE9F047C6
:105010008288DFF82863DFF82853316842F20607F8
:10502000D31B4FF0010805D09B1E012B60D99B1E9E
:105030000FD00BE08068007841B1020003D101205D
:105040004870FFF779FE01006BD038E04FF00008A0
:1050500067E0806807780029F8D04878BD4C0128BF
:1050600033D100F058F9DFF8E492B0B1012000F03C
:1050700088F98246BAF1420F0AD399F800004EF639
:105080006022022101F01BFEAAF13C00688010E0C2
:105090004FF47A7000FB0AFA02E000F072F98246DF
:1050A000BAF1000F05D099F800005246022101F034
:1050B000EEFD316802204870207818B9384600F0BB
:1050C00004F92EE0002020702BE0207848BB03205C
:1050D000FBF7EBFC48B1D0210170477004218170CF
:1050E000014630680078FBF701FD00F006F918E092
:1050F00080680778287842F208018A420CBF0126AE
:105100000026FF280DD00420FBF7CFFC010008D0BB
:10511000D02008704F7002208870CE702878FBF77E
:10512000E5FC4046BDE8F087F0B5844F386885B0AF
:1051300070B3847801F05CFA28B10A2000F021F9FC
:1051400005460B200DE000F0E6F828B1062000F03F
:1051500018F90546072004E0082000F012F905467A
:10516000092000F00EF906467648007800F01BFA98
:105170003968CA7A039203468A7A029228460A1D3F
:1051800001922246C97800913146FFF7D9FD00E02F
:10519000012005B0F0BD38B5014668486B4D026886
:1051A0002878674C01291ED161880B0002D0694B19
:1051B0001B7823B112B31078BDE8324041E63C2998
:1051C000A8BFA1F13C000CDA022101F090FD60883B
:1051D0004FF47A7101FB00F22878022101F057FDAB
:1051E0000020608031BD4AB159490978490705D589
:1051F000022101F07CFD002060807CE031BD50493F
:10520000496800E0096829B14A6812788242F9D1F8
:105210000846704700207047F8B54D4800780024D4
:105220000521084201D11220F2BD454DA86810B9F0
:1052300000F048F8A860E86810B900F043F8E860AA
:10524000A86800281CBFE968002901D11320F2BD1D
:10525000FFF7D8FEE868FFF7D5FE6E6812E09B1CEA
:1052600050185918401C117071684978491C017018
:10527000716809784170801C71684A784968FBF749
:10528000C1FB3668AA6896B13CB97068117843785A
:105290005F18BF1C202FE2DB01247368E9685B788C
:1052A0000A789B1C88189A18401C0A70DCE7107852
:1052B000511CFFF739FDE868411C0078FFF738FD05
:1052C0000020F2BD202001F029BC38B51B4D04465A
:1052D000286878B10320FBF7E8FB48B1D0210170C2
:1052E000447003218170014628680078FBF7FEFBBB
:1052F00004B100E031BDBDE8314010B50F4C20686D
:1053000040B101F017FC002020600120BDE81040F2
:1053100000F0D4BE10BD80B50948806858B102784D
:10532000431C6946012000F09AFE20B10078C007B6
:1053300001D5012002BD002002BD00001048002060
:10534000DC4500207E45002080450020F8450020F7
:105350007D4500207F450020DFF800F049980010CF
:10536000DFF800F0C9560010282808DA4FF6FF725F
:10537000914204D0CA4A22F810100020704702203F
:105380007047282803DAC64931F8100070474FF6F5
:10539000FF70704770B504460D46C24E1C220021B6
:1053A0003046FBF761FB34777577FAF7C5FD0100EE
:1053B0000EBF012100211220317070BD10B5B94C13
:1053C000E160A06010220021FBF719FE012801D145
:1053D000A0680CE010BD10B5B24C60601022002136
:1053E000FBF70DFE012801D1606800E010BDBDE8AB
:1053F0001040102104F07BBBAA48406870472DE99B
:10540000FC41A84D0446002695F81E80042C0F464A
:1054100024DA2878032818BF102054D101F0E8F8C6
:1054200028B900F00BFE10B900F00AFE08B11220F6
:1054300049E0012C18BF022C1DD1BFB1062200216A
:105440006846FBF711FB00F040F838B90622FF214F
:105450006846FBF709FB00F038F808B1022032E09B
:10546000062239466846FBF7CDFA0BE0062168466E
:1054700004F03DFB06E0032C04D16868694604F0A3
:105480002FFA0646884FAC770421387801F02FFCBC
:10549000002028849EB9ACB1684600F05BF806464F
:1054A00068B9032C0ED11D20FFF76BFF288448B18B
:1054B00038784EF66022042101F001FC02E00EB1C2
:1054C00085F81E803046BDE8F681062269463846DA
:1054D000FBF7BCBA70B5044600252000714E05D11B
:1054E00021B1062206F11000FBF78CFA3078012872
:1054F0000CD10125200004D102203070FDF708FDF9
:1055000004E000203070204600F0A8F8284670BD66
:1055100038B50024E0B10578624A290006D1417807
:10552000837801EB0321D182C078107610780228AD
:105530000ED10124280006D103201070117ED08ADC
:10554000FBF71FFE01E000201070284600F086F8EF
:10555000204632BD10B5534CA17F81B101460622D1
:1055600004F12400FBF74EFAA07F04F1240100F0BF
:1055700008F804F12400BDE81040FFF7EDBE00205C
:1055800010BD79B102000DD04A79012808BF42F060
:10559000C00006D002F03F0203284A7102D142F057
:1055A000400048717047010018BF0121084670474C
:1055B00070B53C4D0446287FFF2815D00A20FBF724
:1055C00074FA060010D0D020307074700820B070CB
:1055D0000622A87FF07005F12401301DFBF712FAB6
:1055E000287F3146FBF782FAE87F01280FD12F4848
:1055F000006818B18068010018BF8047BDE870409E
:10560000294800784EF66022042101F058BB70BD95
:105610002448806870472348C06800687047214864
:10562000C1680A68521C0A60007FFF281CBF4FF443
:105630008041FBF72DBB70471A48807F704738B513
:105640000446184D05F11000FFF78AFE05F1100021
:105650001CB9A97F09B105F1240032BD70B5114D07
:105660000446287FFF2819D00E20FBF71EFA0600FB
:1056700014D0D020307074700020B070062205F174
:105680001001F01CFBF7BEF9E88A70813146287ED4
:105690003073287FBDE87040FBF728BA70BD00006A
:1056A0008C45002060450020F8450020FC45002086
:1056B000DFF800F0259500102DE9F04104468846FA
:1056C000122740464FF6FE7188421646DFF84C59C5
:1056D00008D1A86950B30268100027D0414620467F
:1056E000904720E04FF6FF71884212D1A86938B187
:1056F0000268100004D0414620469047070005D0BC
:105700003146204600F0BDFA07000FD12C706E70B4
:105710000CE001F026F948B10078A04205D13146ED
:105720004046FFF7C5FF074600E003273846BDE8BF
:10573000F08110B5044684B000F072F808B9022078
:1057400029E02088012101F03AF908B9142022E06B
:10575000208801F045F9042812D1DFF8C0088189BA
:105760004FF6FF72914218BF112014D12188818118
:1057700061888180A188C180E1880181218941817E
:1057800000200290019020890090E388A28861881F
:105790002088FDF713FC04B010BD30B5044685B079
:1057A0002088402101F00BF9002836D02088ADF880
:1057B000040000F035F8002500281CBFA07A00285E
:1057C00007D10021684600F0B1F9A07AF0B10225B6
:1057D0001CE091208DF800008DF803503E208DF8DC
:1057E0000100012106208DF80200A088ADF8080014
:1057F0006088ADF80600E088ADF80A002089ADF8B1
:105800000C008DF80350684600F090F920880022C3
:10581000402101F072F8284600E0122005B030BDAA
:105820002389E288A1886088FDF7F2BA70B50C463A
:10583000DFF8EC170978022918BF0129154601D1B4
:10584000122070BD0DB9022070BD01F08AF806006B
:1058500001D1142070BD1CB1307940F002003071CC
:105860001022294606F11800FBF7CCF82869B0622F
:10587000002070BDF8B506000C4601D10220F2BD33
:10588000308801F06EF8050001D11420F2BDDFF878
:1058900090070078022818BF012803D0A87C0828A8
:1058A00002D10CB11220F2BDDFF87077786908B12F
:1058B0001120F2BDB02001F031F9786108B9132050
:1058C000F2BDB02200F0A5FA786931884180A022AB
:1058D000311D001DFBF796F8796902200870A87C3D
:1058E0007969328808280CBF012000200B1DDFF8E1
:1058F0003417097804F008FB06461CB121462846F7
:1059000004F0D7FC300018BF00F038FA3046F2BD82
:1059100038B504460D4601F024F808B9142032BD0C
:105920008DF800506946204604F0F6FB32BD38B5CC
