:04100000FFFFFFFFF0
:0C100400FFFFFFFFFFFFFFFFFFFFFFFFEC
:101010004843002049B40000ADAC0000ADAC000076
:10102000ADAC0000ADAC0000ADAC0000ADAC00005C
:10103000ADAC0000ADAC0000ADAC0000ADAC00004C
:0C104000ADAC0000ADAC000079AC0000CD
:10105000FEE7DFF89008007D7047DFF88828117DF3
:10106000107508467047DFF87C18D1E90023C0E905
:1010700000237047DFF86C08C0690047DFF8641888
:10108000096A08473AE110B501F0D2FB38B1DFF840
:10109000B848A06801F0D5FBA0614FF0FF3010BD4B
:1010A00010B5FFF7EFFF0446DFF89C0880680021C9
:1010B00001F0CBFB00F02BBC38B5FFF7E3FFDFF806
:1010C00098580446A868002101F0BFFB6969081A16
:1010D000A969814238BF002084F3118832BD70B500
:1010E000DFF8746804460D46B068214601F0ABFB9A
:1010F0003461756170BD2DE9F0478046DFF84C081A
:10110000DFF854480768E55989464FF0FF3A0BE08D
:10111000F069B1698847B08A012805D1F068A0EB71
:101120000900504598BF8246E019854212D02E46EC
:101130002D68B08A0128F7D1B8F1010F04BFF0681B
:101140004845E8D13169002907BF0020B08208185E
:10115000F060DDE75046BDE8F0872DE9F041FFF78C
:1011600091FFDFF8F4570446A868012101F06DFBF8
:101170000121A9830021E9836E6929682A68871BF8
:10118000801A711A884204D20020A88384F311883F
:101190002BE084F31188002406E0A61931460120D3
:1011A000FFF7A9FF3F1B0446A742F6D2FFF76AFFED
:1011B0008046E88B012804D131460020FFF79BFFD1
:1011C0000446A96914F1010F08BF084603D0E01BCB
:1011D000814238BF08468119FFF781FF012028842A
:1011E0000020A8832E6088F31188BDE8F08138B50F
:1011F00004461D46A2606869DFF850272061A1619E
:101200002146A869E0610020A0821268DFF8480743
:10121000104400F09FF8288A18B12046BDE83240FB
:101220003CE031BD8260816100220261C361828243
:101230000146DFF81827DFF820071268104489E01C
:1012400038B5DFF814570446288C012804BFA88B52
:10125000002817D1A868012101F0F7FA29686A6906
:101260002B68D21A411A8A420CD3A2681118E16085
:101270000123A3826B69181A82420ED21046BDE880
:1012800034402CE7FFF70CFFA1680818E06001204C
:10129000A082A88B012808BFE88331BD38B5044679
:1012A000FFF7F0FE05462046FFF7CAFF00F012BC2C
:1012B00000218182DFF89016C0684969884203D115
:1012C000DFF8BC070068E9E7704781607047704746
:1012D000808A7047704780B500F001F8FCE738B5A8
:1012E0000024DFF8A05704E0686850F82400804725
:1012F000641C28688442F7DB31BD00BFEFF3118026
:10130000202181F31188704721E001680A6802609A
:101310005060084670470168814201D10120704742
:1013200000207047426808604A6011604160704761
:1013300010B50446FFF7E1FF01462068026822600D
:1013400002685460FFE781F3118810BD00BF406060
:101350000060704738B504460D46FFF7CEFF2C609D
:101360006168696061680D606560FFE780F31188FE
:1013700031BD016842681160416800684160704792
:10138000BCE710B50446107E207261810021DFF8B1
:10139000B8070068204401F045FB002020600120D0
:1013A000606010BDDFF8A0170968084401F04EBB6B
:1013B00038B50446FFF7E4FF0546207C022808D133
:1013C0002046FFF7D6FF002020742946A06800F0D1
:1013D00084FB00F07FBB70B50E4616F1010F18BFFD
:1013E000002E8EB004460AD06B463246DFF85C17FA
:1013F00005A8FFF717FF05A80390022002E00020D0
:10140000039003208DF81000FFF7BAFF05466089AE
:1014100090BB16B985F311883AE000F039FA064618
:10142000DFF82C0700690290C0F818D000F02EFBFE
:10143000DFF81407006869462044FFF773FF9DF842
:101440001000022804BF0398FFF7FAFE85F3118805
:10145000304600F024FAFFF793FF0546039818B1D1
:10146000FFF787FF0020039000200299886185F331
:1014700011889DF810000BE06089401E6081039880
:1014800018B1FFF776FF0020039085F31188012043
:101490000EB070BD70B50546FFF772FF0446DFF869
:1014A000A80600682E183046FFF735FF38B1287AB5
:1014B000C0074EBF01206889401C688135E100F0FB
:1014C000E7F905463046FFF720FF06460120307455
:1014D000F06808B1FFF7ECFEB068214600F0FDFAB5
:1014E00084F311882846BDE87040D8E106E7EFF3A1
:1014F0001180002105E72DE9F8430446DFF8545632
:10150000A06AD5F81080EF68AE682861EC60606A68
:10151000A860206A60620020A08328800120FFF775
:101520009CFD8146FFF7E3FF2169E068A2689047D0
:10153000FFF7DCFF4846FFF790FD01202880C5F843
:101540001080EF60AE60BDE8F1830000F8B5DFF811
:10155000044625696068B0FA80F0C0F11F00616937
:1015600001EBC0063046FFF7D0FE07463046FFF7D6
:10157000D2FE00F097F8606840B1B0FA80F0C0F198
:101580001F00616901EBC006B542EBD3F1BD00005D
:1015900070B5DFF8C0452669FFF7A8FF054660680B
:1015A000B0FA80F0C0F11F00616901EBC000864213
:1015B0000ED200F06DF90646DFF8500601F04AFB46
:1015C0000020208085F311883046BDE8704066E138
:1015D0000020208085F3118870BD10B5002404E040
:1015E0002146002001F087FA641CDFF82406006819
:1015F0008442F5DB002000E0401CDFF81816096883
:101600008842F9D34FF0FF3010BD09E0DFF8440500
:101610000188481E8041C00F7047DFF8381539E156
:10162000002080B590B9FFF761FFDFF828154A6800
:1016300022B180F31188FFF7ABFF02E00A8080F34C
:10164000118800F025F9BDE8024028E101BD000045
:1016500000B17047F8B5DFF8FC446068F8B1FFF7F7
:1016600046FFFFF743FF25696068B0FA80F0C0F1DC
:101670001F0003E0B0FA80F0C0F11F00616901EBC8
:10168000C006B5420BD23046FFF73FFE0746304654
:10169000FFF741FE00F006F860680028EAD100205C
:1016A0002080F1BD18B16068B96988436060384630
:1016B00021E7DFF8A00480687047F8B504460F46BC
:1016C00016461D46FFF742FEA76000F048F808BF27
:1016D000052000F03EF80020A08300F048F8A0624A
:1016E000284600F03EFE00B10220F2BD704770B502
:1016F0000546FFF7FBFE0446A88B00B115E001206C
:10170000A883FFF78AFF0646A86A2946FFF70AFE64
:10171000DFF84004AA6941681143416084F31188ED
:1017200016B9BDE8704033E770BD84F3118870BD11
:10173000616280F311882046704738B504460D4633
:10174000FFF7D4FE616A2943FFF7F2FFBDE832409C
:10175000CDE76061012061698840A0617047306910
:10176000E06070692061B06910F1010F7047F069A5
:1017700060622062DFF8DC036169406901F04BB907
:10178000BCE5EFF311800021BBE5000010B5DFF8E8
:10179000C0430020208101E000F0B6F96068002815
:1017A000FAD06068B0FA80F0C0F11F00A16901EBC7
:1017B000C0006169814209D22269606100682061CC
:1017C00000F1100102F1100001F045F82089002815
:1017D000DFD110BD10B5DFF87843208908B1FFF7DD
:1017E000D5FF00202080BDE81040CAE738B501F0E1
:1017F0002EF800B3002407E02146002001F0B1F9E3
:10180000002100F000F9641CDFF8A406006884429F
:10181000F2DB0024DFF8785606E0286B50F824004D
:10182000002100F0F0F8641CDFF8B4060068844280
:10183000F3D34FF0FF3032BD5FF0000010B594B02D
:10184000FFF79EFFDFF8084301E000F05DF96068F4
:101850000028FAD06068B0FA80F0C0F11F00A169DA
:1018600001EBC0006061006820610020208102203F
:10187000FFF7F3FBFFF785FFFFF782FF00F0D2FFD2
:10188000206900F1100104A800F0E5FF14B010BDBC
:10189000DFF8BC12088801220A807047002010B5CA
:1018A00058B9FFF76DFFDFF8A842208920B1FFF794
:1018B000ADFE08B1FFF76AFF93E710BD00B17047B6
:1018C00010B5DFF88C42208920B1FFF79FFE08B1E8
:1018D000FFF75CFF0020208010BDDFF87402006974
:1018E000704700005C0D0020808F012800D07047F9
:1018F00010B5FFF745FF0446DFF85402C168491EE2
:10190000C16004D184F311880020FFF7B7FB84F392
:10191000118810BD70B5DFF838020469FFF7B8FF11
:101920000546FFF72DFF0646204600F0AFF80320DE
:1019300020752046FFF7D8FF86F311882046FFF771
:1019400005FD284604E00000BC0D0020CCB40000DA
:10195000BDE87040A3E70000BC0D00202DE9F04178
:1019600016460446B069A0600D46706A984610B9E4
:10197000DFF8700500686062376A17B9DFF868053C
:10198000076800F06AFFF26941424AB340B1401E65
:10199000801808402062381A10180840E06101E001
:1019A0002262E7614FF0FF306062A5623069E06259
:1019B00070692063B06A6063B08DA087012804D18C
:1019C000DFF8CC04C168491CC1604146204600F0E4
:1019D0001AF80446404600F0C4FC90B1E01C10E048
:1019E00020B1C219521E1140E16100E0E7610246D8
:1019F000E169606A434600F0D6FC00282062D4D139
:101A00000120BDE8F08170B50D4604462B46DFF895
:101A1000DC24DFF8DC1400F01CFF2061284600F015
:101A2000A0FC38BB012020750020A061A168DFF870
:101A3000600400290AD50021E160DFF8B8140968C4
:101A4000084420642146FFF785FC13E0A2680121C9
:101A50009140E160A168806900F0DDFF2064FFF73C
:101A600017FF0546FFF78CFE0646204600F02AF8D1
:101A700000F002F8002070BD86F3118828460EE7BA
:101A8000D4B400008CB40000044679E62DE9F0419E
:101A900004462F4D266C6F68D4F80C80FFF769FC64
:101AA0003046FFF738FC10B127EA08006860286963
:101AB000A04204BF00206861022020750120288117
:101AC000BDE8F08138B5FFF7DFFF0546294620461F
:101AD00000F003F885F3118831BD2DE9F041DFF8FE
:101AE000B063776804468846E568206C2146FFF7B6
:101AF00019FC45EA0700706001202075308188F3E9
:101B00001188BDE8F0413BE680B5DFF8EC03DFF873
:101B1000EC230068904204D1FFF733FEFFF7DFFBB0
:101B20000DE001000AD1FFF72CFE002001E0009833
:101B3000401C009000980028F9D000E08047BDE8E4
:101B400001401DE600000000DCB40000B1130000FD
:101B5000040E0020E80D002080B500F037FE08B12B
:101B60004FF0FF3002BD00F05FBE00F05FBE00F03E
:101B700055BE38B5044608461146049D1A462B4604
:101B800000F02DFE6060284600F0EBFB00B1012064
:101B900032BD00B585B0002101A8FFF7E8FF03982A
:101BA00004E00099BE2008700098401C0090009846
:101BB0006845F6D305B000BD00F032BEFFF79EBB0E
:101BC000EFF311800021FFF79CBB10B5FFF7F6FF84
:101BD000DFF82C0341698269C90802EBC1010839A9
:101BE000016100244FF0FF31016007E02146002031
:101BF00000F047FE002100F050F8641CDFF80403F9
:101C000000688442F2DBFFF7FDBC00004D150000C8
:101C1000E0B40000E4B40000FEB51746DFF8E822A7
:101C200005460846DFF8D81268821E46C969126860
:101C300051F82010089C914210D001900021DFF84B
:101C4000CC020068009002918F23DFF8C402018863
:101C50000022204600F093FB0120FEBD00F0A6F814
:101C6000AF6070696860306A10F1010F08BFFF2033
:101C700028740020318B01B10120B18C09B140F0F2
:101C80000200E8602146284600F007F80546204695
:101C900000F067FB00B1E81CFEBD38B50446217BAF
:101CA000B4F912008907054602D5217C202907D204
:101CB000A16800F0BFF8B4F912004042608209E068
:101CC000DFF83C02DFF84C12406A40F82540284615
:101CD00000F0B0F8217C284600F0DCF8207BC0073B
:101CE00044BF284600F084F80020E06032BD01299E
:101CF00000D1704710B5B0F91240002C48BF6442C3
:101D0000204600F053F8DFF800020168204600F09A
:101D100091F8DFF8EC11496A002041F8240010BD69
:101D200010B5DFF8DC01DFF8F021C169DFF8EC0164
:101D300001600368934211D0002302E041F8234080
:101D40005B1CDFF8DC412468A34207D20F2B32BFB3
:101D500052F82340DFF8B0412468EFE7DFF8C421F0
:101D60004168126821F47F4101EB0221DFF8B821BC
:101D70005118416020218176DFF8B0110968C160F7
:101D800010BD1DE7000000002021EFF3118081F35A
:101D90001188704780F311887047000040F2000CF2
:101DA000EFF311808CF31188704700001028DFF8E2
:101DB00080110FD3A0F1100252091038012300F056
:101DC0001F0001EB82018340D1F80001C1F880318E
:101DD00018400AE00F2807D108690A6932F00202A8
:101DE00000F002000A6100E0002000BF7047000020
:101DF0001028DFF83C110FD3A0F11002520910385F
:101E0000012300F01F0001EB82018340D1F80001A3
:101E1000C1F8003118400AE00F2807D108690A69A3
:101E200052F0020200F002000A6100E0002000BF50
:101E300070470000DFF8C820D26902EB800002681A
:101E40008A4218BF0160704710B5DFF8E84020698A
:101E500000F010FF0020206010BD30B5DFF8D42066
:101E6000936943605469846025462A78BE2A04D069
:101E7000012200210160104630BD00220029F8D067
:101E800015F8011BBE29FBD0691E591A6118F1E72C
:101E9000040E0020DFF898201028024402D382F8B4
:101EA000F0137047042828BF82F8141D7047000003
:101EB000ECB40000816042607047102804D3DFF862
:101EC00070101038C1F8000F7047DFF834305B68CD
:101ED00001221A80DFF85C2112681300FED010473F
:101EE000FCB40000F4B40000F8B4000015190000C0
:101EF000D5170000E8B40000F0B40000DF120000C5
:101F0000880D0020B0B40000BCB40000A8B40000EC
:101F1000222D0000C1AB00001010000008ED00E011
:101F2000ACB40000C0B400000000FA05B4B4000076
:101F300000E000E0880D00202DE9F0410446FFF7A5
:101F40003DFEFFF7A5FC0546FFF767FB06460020B0
:101F5000FFF783F88046DFF86C059A49406AD1F8AC
:101F6000041D01F0FF0150F82170FC60FFF728FE0E
:101F70007868B9688847FFF721FE4046FFF76DF89B
:101F800006EB0520BDE8F08100F0FF00FFF760BB25
:101F9000000AFFF793BC7CB504460D46E16916467E
:101FA00019B1206ABE2200F089FE206B01902B46F9
:101FB000E06A00903246A16A206AE4692018001F96
:101FC00000F0B0FE76BDDFF854050068704770473A
:101FD000FFF794B9FFF795B90020704710B5044694
:101FE000DFF83C05006800220121204400F059FD83
:101FF0000020606010BD38B50446534D6068296903
:1020000088420BD0DFF8180500684FF0FF312044FC
:10201000FFF7E1F928696060002032BD012032BD80
:1020200031B94160DFF8F81409680844FFF732BAA3
:1020300070470000B8B400000120704700F0A8BE4F
:10204000FFF75CB9DFF8A015C20744BF01220A60A0
:10205000820744BF4FF480720A60400744BF4FF4C8
:102060008030086070470000DFF8C425C30748BF10
:102070001160830748BF5160400748BF91607047B7
:1020800010B504460020D4E90A2347F6906101F018
:1020900079F90123994228BF4FF0FF3010BD10B5E8
:1020A0000C4601F0E7F9011D201AB0F1004F05D8E8
:1020B000081BB0F1004F38BF8C4200D20C462146BD
:1020C000BDE810400120CFE72DE9F04180460A46E7
:1020D000D8E90A01D8E90C45A0FB026701FB0277A9
:1020E000A6196F41340C002244EA07414046FFF72D
:1020F000D6FFC8E90E67BDE8F08180B5DFF8F804C7
:10210000006800281EBFDFF878054068002804D06A
:10211000818811B1002100F084F84FF0FF3002BD3A
:10212000DFF8D404006800281EBFDFF854054068BB
:10213000002806D0818821B1017B002908BF00F06A
:1021400005B8704700000000040E0020F8B50646F0
:10215000FFF776FF0446DFF82C55DFF82C750120D9
:10216000E861FFF76FFFF96A096A14208847306950
:10217000B0F5802F34BF0421010C0120FFF774FF5C
:102180003A681268232100209047DFF800150120EB
:102190000860DFF8FC04016821F4E02141F480319B
:1021A00001600120286084F31188F1BD10B5DFF8CB
:1021B000D004446800F008F86069A169BDE81040E7
:1021C0000847000000E000E001203BE7F8B50446C6
:1021D0000D4601F059F9D4E90A6732463B4601F051
:1021E000D1F83DB1A6FB002306FB013307FB00330A
:1021F000C4E90C23F2BD10B5DFF88804DFF894447D
:10220000002101600121C16121602068FFF7DCFF2E
:10221000DFF884140968096A14208847206810BD13
:10222000000038B50446FFF70BFF05462046FFF7D0
:10223000E2FF85F31188002032BD2DE9F04105460B
:102240001646EA69984630460F46A96901F028F912
:10225000B8F1000F3C46766005D0EA690823414694
:10226000304600F05CF8F6686969CFB9079BAA6848
:10227000E86800F0CBF8070008BF00201BD000F092
:10228000B5F96968396007F10804696849687960D7
:10229000696849680F6069684F6000F07EF803E084
:1022A0000839204601F038F9286810F1010F18BFED
:1022B000206000F023F8BDE8F081F8B505460C4633
:1022C0001646EA69A9691F46304601F0E9F87660CA
:1022D0002FB1EA6908233946304600F020F86869D2
:1022E000F668A0F10801204601F016F9286810F1FF
:1022F000010F18BF206000F001F8F2BD286908B195
:1023000071682150204670470800194606D0130016
:1023100004D011F1010F08BF1047104770472DE995
:10232000F843D1F80C80D8F80090044608681546A8
:102330001E46AF1BA0EB0902BA4288BF3A462046B0
:1023400001F0AEF825606460E519B14588BFB1467B
:10235000E5604A464146284601F0B2F82E60BDE8E5
:10236000F183DFF84C130978012904D118B1C06852
:1023700010B1012000E00020C0B27047000010B58D
:1023800084B0089C0294079C0194069C0094DFF89A
:1023900024432468A0471FBDFEE70146DFF8FC0286
:1023A000006800F063BA2DE9F0410546984684B014
:1023B0000E4617464046FFF7D4FF044617B9DFF82C
:1023C000F8020768002D12BF2846DFF8F002006807
:1023D00043463A46314600F042FA070012D11CB992
:1023E0004046FFF7BEFF68B9DFF8D40200680090EE
:1023F000029601953423DFF8CC0201880022404682
:10240000FFF7BDFF384604B0BDE8F08180B500930A
:10241000002300F001F802BD70B51D46049B0C4678
:10242000FFF7C1FF060003D02A46214600F046FC14
:10243000304670BD0A6942604A6982604969C1607C
:102440007047F8B50446DFF8800200680D4617466D
:1024500000F00AFA616800267A1E0A4018BFBE1A08
:10246000A26873199A4203D2FFF797FF0020F2BDCA
:102470008F19521B921B1944A2606160FFF78DFFF8
:102480003846F2BDDFF844020088012800D07047CA
:10249000E0B50020029001905523DFF83402006877
:1024A00000900022DFF82C0201880020FFF767FF70
:1024B00007BD00207047C2680A6080684860886075
:1024C00070470000880D0020DFF80C02818801B100
:1024D000704738B5012181800024DFF8005204E004
:1024E000686850F824008047641C28688442F7DB41
:1024F000DFF8EC01DFF8EC5100688047002404E0CD
:10250000686850F824008047641C28688442F7DB20
:1025100031BDDFF8C401C08870470000C4B40000BA
:10252000C8B400002DE9F0470D4600268246012D73
:10253000A4BFA90000F0F4FFDFF89C71DFF8A80148
:10254000C7F800A00024D0F800800CE0DFF89C0160
:10255000006830F8140028B158F82410002088478B
:102560004AF82400641CAC42F0DB0120F880B1463C
:1025700001E009F10109DFF878010068814518DA06
:102580000126002402E000200640641CAC420EDA62
:102590005AF8240010F1010F07D058F8241088478A
:1025A0004AF8240010F1010FEDD10120ECE73000D2
:1025B000DFD01EB90FF2541000F008F80020386088
:1025C000BDE8F08700BF4FF0FF30704710B50446FC
:1025D00000F00CF8204600F04BF9DFF81801006815
:1025E000BDE810400047000004200940DFF8D80093
:1025F000006800F039B90000A4B4000038B5054601
:10260000FFF7F4FFDFF8F010DFF8F0304A681B68DE
:1026100001249A4206DA0B6843F822504A68521C99
:102620004A6000E00024FFF7B8FE204632BD0000FB
:102630001820094010B5044600F00AF82046DFF8DB
:10264000C0100968BDE8104008470000FEE7FEE73B
:1026500070B50446DFF84400DFF89C50FFF7C8FF70
:102660006E6806E0296801EB8601761E51F8041CAD
:102670008847012E2046F5DABDE8704000F0FAB830
:10268000800D0020000024438401001080022443B8
:10269000002009402C200940B001001034B5000092
:1026A000184909680847184909680847FEE770474C
:1026B0002635000004B50000480E002018B50000C3
:1026C00000B500001E35000034B5000016350000CE
:1026D00008B50000723400004C0E002094B40000D5
:1026E0001CB500009CB4000028B5000024B5000013
:1026F00020B5000038B50000540E002040B50000A1
:102700003CB500002CB5000030B500007864632EA5
:1027100072756E74696D652E537461727475703A5A
:1027200020276D6178506173736573272065786326
:10273000656564656400000000B587B007216846E0
:10274000FFF7F0FE07B000BDFFF778BC00B581B021
:10275000FEF7BDFDDFF8C001C06801B05DF804EB15
:10276000FEF7C5BF00B581B0FFF7D3FE012818BF43
:10277000FEF76EFC0FF21D00FFF740FFFFF7D0FCE5
:10278000FFF71AFAFEF741FF01B05DF804EBFFF71F
:1027900053B8000000B581B0FEF73FFFFFF778F8AF
:1027A00001B05DF804EB0320FEF757BC10B50446FA
:1027B0000320FEF752FC2046BDE81040FFF73ABF69
:1027C000DFF85811DFF8580188617047DFF8FC0026
:1027D000006810B14069C00F704701207047F0B524
:1027E000044630208FB00D4600901E4613460196D9
:1027F00002AA0021DFF8A801FFF71FFD070009D09A
:10280000009602AB2A462146FFF706FA3046FFF74C
:10281000A8FD00B1002738460FB0F0BDFFF71DBB83
:10282000FFF7AFBAFFF710BBFFF7C0BAFFF7E0BA88
:10283000DFF89800006810B18069C00F7047012070
:102840007047FFF71DBCFFF73FBCFFF7BFBC01207F
:102850007047FFF7A0BB00F08BBAFFF7B4BB10B511
:102860000468A468A04710BDFFF7B2BBFFF7B2BB76
:10287000FFF716BFFFF717BF09B9DFF83411FFF7ED
:102880004EBD01EB410208B9DFF8E40200EBC200E3
:102890007047F0B58FB004463020149F00900D466D
:1028A0001646019702AA2146DFF8F400FFF705FD5E
:1028B000009702AB324629462046FFF7ADF938466D
:1028C000FFF74FFD0FB0F0BD000000004C0E0020E0
:1028D00000B581B00121009100230146DFF80423F7
:1028E000DFF8BC00FFF710FD01B000BD10B588B0E7
:1028F00002AA0B990191182100910146DFF82001ED
:10290000FFF79BFC040008BF002003D002A9FFF7DB
:102910005EFB204608B010BDBC0D0020880D0020D5
:102920000004000010B588B002AA0B99019118218B
:10293000009101460848FFF780FC040008BF002012
:1029400003D002A9FFF74AFB204608B010BD09B921
:10295000DFF8C012FFF7E3BC34B20000F0B5044664
:102960002C208DB00D4600901E461346019602AAFB
:102970000021DFF8A402FFF760FC070009D00096F1
:1029800002AB2A462146FFF7F4F83046FFF7E9FC90
:1029900010B100200DB0F0BD38460DB0F0BD000004
:1029A000F4B1000009B9DFF87412FFF7B8BC0000F9
:1029B00070B0000070B58CB00446019324200090E4
:1029C0000D46134602AA0021DFF85402FFF735FC3A
:1029D000060008BF002005D002AB2A462146FEF7BC
:1029E00006FC30460CB070BD70B58CB004460020BB
:1029F00001900D4624200090164602AA2146DFF8D9
:102A00002002FFF75AFC02AB324629462046FEF769
:102A1000EEFB0CB070BD08B100EBC10070470000C8
:102A200014B2000010B588B00446002001900B4697
:102A30001820009002AA2146DFF8E801FFF73DFCCC
:102A400002A92046FEF760FC08B010BD00B581B0B9
:102A5000012100914FF0FF3301460022DFF8C4014D
:102A6000FFF752FC01B000BD09B9DFF8BC11FFF758
:102A700056BC30B58BB004462420019200900B4622
:102A800002AA0021DFF8A401FFF7D7FB050008BF69
:102A9000002004D002AA2146FEF773FC28460BB0A2
:102AA00030BD30B58BB00446002001900D46242087
:102AB0000090134602AA2146DFF87001FFF7FDFBE4
:102AC00002AA29462046FEF75CFC0BB030BD00B5DB
:102AD00081B0012100914FF0FF330146DFF8502112
:102AE000DFF84801FFF710FC01B000BD09B9DFF8BD
:102AF0004411FFF714BC01EB410208B9DFF83801BB
:102B000000EB0210704770B5044628208CB00D46CB
:102B100000901E461346019602AA2146DFF81C01CA
:102B2000FFF7CBFB334602AA29462046FEF7C5FD38
:102B30003046FFF716FC0CB070BD00B581B0012126
:102B4000009100230146DFF8F820DFF8F000FFF7DE
:102B5000DBFB01B000BD000009B9DFF8E810FFF7AA
:102B6000DEBB4C22514300B937480844704700008F
:102B7000BC0A002070B504463C2092B01546009077
:102B80000B46019502AA00213048FFF756FB0600CC
:102B900008D02B4602AA2146FEF7E0FE2846FFF7A2
:102BA000E0FB10B1002012B070BD304612B070BD15
:102BB00070B504463C2092B00D4600901E46134668
:102BC000019602AA21462148FFF777FB334602AA65
:102BD00029462046FEF7C2FE3046FFF7C2FB12B080
:102BE00070BD0000EF1C000010B58AB002AA0D995C
:102BF00001912021009101461548FFF71EFB0400BA
:102C000008BF002003D002A9FFF714FC20460AB039
:102C100010BD0000A0B0000054B200008CB1000054
:102C200074B2000094B20000B0B10000B4B2000071
:102C3000A5130000CCB000004C0B0020D4B2000063
:102C4000ED16000034B00000B40B0020F4B2000018
:102C500014B3000010B5EFF31484002C1CBF002146
:102C600081F314888047002C1CBF022181F3148853
:102C700010BD000000B5EFF3038212F0FF0F0DD07E
:102C80006A46A2F1200282F309886FF0020E1060FA
:102C90004FF08071D1610849916170475DF804EB94
:102CA000694681F3098880F308884FF00200EFF34A
:102CB000148180F3148870479D2C000062F30F226A
:102CC00062F31F42401810F0030308D0C91A1FD343
:102CD000DB0748BF00F8012D28BF20F8022D1300A4
:102CE00030B414461546103928BF20E93C00FAD804
:102CF000490728BF20E90C0048BF40F8042D89008F
:102D000028BF20F8022D48BF00F8012D30BC7047C5
:102D1000C91818BF00F8012DCB0728BF00F8012DF6
:102D20007047220040F8043D40F8042D40F8041D8F
:102D3000019940F8041D009940F8041D0B4940F822
:102D4000041D81EA0101A1F1010140F8041D40F8D0
:102D5000041D40F8041D40F8041D40F8041D40F80F
:102D6000041D40F8041D40F8041D7047812D00002B
:102D70002DE9F04FC0F800D0D1F800D0BDE8F08FB9
:102D80000498804700980199029ADDF80CE01047FA
:102D900010B5DFF82405046814F1010F08BF002402
:102DA00000F02AFCDFF81415002008600120DFF88D
:102DB00010150860DFF80C15086000F04CFADFF819
:102DC0000805006828B1DFF804050068204600F017
:102DD00022F8DFF8FC14DFF8FC2400200860DFF89C
:102DE000F80401686FF31B4111430160DFF8EC0444
:102DF0000168C1F30131012907D10168DFF8E0243E
:102E0000114041F4003202600160DFF8D80400682C
:102E10000028FAD110BD70B50546DFF8CC040121B9
:102E20000160DFF8C81409680029FAD0DFF8C0444F
:102E3000DFF8C024C02121605368DFF8BC149B0771
:102E40005DBF13681B0C43F0F00372230B7000216D
:102E500001639668304600F031F83146284600F0AC
:102E600061F8DFF89804816D89B240F20F22914237
:102E700014D201680068C1F30361C0F3034001B1DB
:102E8000491E072805D006280EBF0720801C00F029
:102E90000F0041EA0010DFF868140870304600F0B7
:102EA000B2F8DFF860140968C9680220884740203A
:102EB00020600120DFF85014086070BD10B5044692
:102EC000DFF848040068C0F3046000F0C0F921177F
:102ED000491C08181628A8BF152004DA6FF009014C
:102EE0008842B8BF084600F01F00DFF8241440F401
:102EF000F8500880DFF81C04006880074FBF44F0DA
:102F000040640020DFF810140860DFF81004C4F3F8
:102F1000C06181F001010160C4F3806181F00101B1
:102F2000816010BD70B5054682B0084600F0F0F82B
:102F30000246DFF8EC43182100F062F800F014F9C3
:102F400080B20090002340F2FF322C21204600F096
:102F5000A2FBDFF8D063F068C0F30D021C2100F083
:102F60004FF8706800F0FC32142100F049F8306826
:102F7000DFF8B413DFF8B46301EA0002102100F0B7
:102F80003FF8284600F0FAF802460C2100F038F825
:102F9000284600F01EF9400040F02000307228461C
:102FA00000F020F940F010003072284600F023F9BC
:102FB0000246282100F024F8284600F001F94000DC
:102FC00040F06000F072284600F02FF9C00040F099
:102FD00080003070284600F031F98000DFF850138F
:102FE00040F47C400880284600F012F9024608218F
:102FF00000F006F8DFF83C134FF48000086073BD62
:10300000204600F043BBF8B5810C01F00301012913
:10301000C94CC84D02D002292AD026E0216A8A0371
:1030200023D44FF480422A606FF08F06C34AD2F84F
:10303000023033404E0A06F080063343C1F30336B4
:103040003343C2F80230C1F30326D2F801301B0922
:1030500046EA0313C2F801306FF0E7061368334005
:1030600001F0E7011943116002E04FF000412960CF
:10307000B34EB44AB16809075CBF4021A9624FF45E
:1030800000712964800D216AC90C01F0030141F02F
:10309000300110F00300117003D0022826D008D3AD
:1030A00026E00121042000F019FBA74800F0F4F805
:1030B00022E0012000F034FB07463946042000F0EE
:1030C0000DFB042000F02CFBB842FAD1366826F044
:1030D0007F4000F0E1F89D4B1B681B684FF06022B9
:1030E0000721300E98474FF480602860032100E0EC
:1030F0000221042000F0F2FA2068954900F03F0018
:10310000087047F618009349088093480068F1BD9D
:1031100092490968C1F383628303C1F38F2120D4EC
:10312000000400164FF6FF7307E0490804D1194662
:10313000520804BF01220121401C0028F5D40128B7
:103140000FDB490041F00101B1F5803F21BF0121B2
:10315000520042F00102102A24BF0F221946401EDD
:10316000EDE741EA024070477C48016800680002D0
:10317000C1F3870100F440700843704730B55D4CDF
:1031800077490A686568ED07C2F30351C2F3034348
:103190000AD42468250501EB2571240481F3040178
:1031A00003EB247383F304031B0443EA015193B23A
:1031B0001943222824BF02F080400143084630BD55
:1031C0000021202803D367480068C0F30151084656
:1031D00070470121222803D363480068C0F30071BF
:1031E000084670470121222803D35F480068C0F3D6
:1031F0004071084670470021202807D359480068CD
:10320000C10C01F44071C0F384500143084670477B
:103210002028564907D35348554A0068810A02EAD4
:10322000003040EA8151084670470021222803D32C
:103230004D480068C0F3C06108467047002122284D
:1032400003D349480068C0F3455108467047162823
:10325000A8BF20387047234800680028FBD14548A4
:10326000454A416812688908890041F0005141F0DF
:103270000401520748BF41F001010BD4026812F06B
:10328000030F07D041F003024260026802F003021C
:10329000032AFAD141607047384982B20A60C0F30C
:1032A0000740486001208860354800680028FBD04E
:1032B00000208860704700001C13005084046042A6
:1032C0005C600C4008220443800128430001204335
:1032D0008C210840000039014820034004000940C7
:1032E000FFFFFCFC0C0068421010094094022243CE
:1032F00000600C40AC3F005056620840BC120050C9
:1033000002600840A001001094046042B81200500E
:103310006E6208400000094094042A4300002043E4
:1033200000A00C4070130050FFFFFC0041A10C40B6
:10333000DCA10C4040A00C406C1300500A60084017
:10334000A83F005008A10C40BD378600B401001012
:103350000BB00C4070B00C402C20094050130050B2
:1033600078130050981300508C13005000803F4099
:1033700000F03F0000400340B03F00503C600C4074
:1033800084088C431B4213D1094236D12AB18446AA
:10339000B0FBF2F002FB10C2704700F077BAFCD32A
:1033A0000022002370470B0002000021002070471C
:1033B000904271EB030CF6D370B5B1FA81F4B3FA15
:1033C00083F52C1BA340C4F1200532FA05F63343E4
:1033D000A2405FF00046E64002E05B085FEA32028E
:1033E000841A71EB030524BF204629467641F4D3A5
:1033F00002000B003000002170BD012ACFD970B54A
:10340000140C20D0B1FA81F4B2FA82F5C4F1200490
:103410006419B4F12006D6D3B2405FF00044F44002
:10342000002502E052085FEA3303C61A71EB020E70
:1034300024BF3046714664416D41F3D302000B0056
:103440002000290070BD0C46B1FBF2F102FB1145D2
:103450002D0445EA1045B5FBF2F402FB145580B289
:1034600040EA0545B5FBF2F002FB105240EA044089
:1034700070BD0A0009480168426803689942FAD1A0
:10348000100C40EA0140704710B5044A13685068B8
:103490001468A3421946F9D110BD00000820094064
:1034A00062B38B0708D0521E11F8013B00F8013BB4
:1034B00000F024808B07F6D1830740F0208000BF06
:1034C000103A07D330B4B1E83810103AA0E83810F9
:1034D000F9D230BC530724BFB1E80810A0E80810A7
:1034E00044BF51F8043B40F8043BD20724BF31F8F5
:1034F000022B20F8022B44BF0B7803707047083A68
:1035000007D3B1E80810083A40F8043B40F804CB70
:10351000F7D25307E4E701000022FFF7D3BB09000D
:10352000002200F0B9B9010030480068000C00F03A
:103530000700052828BF4FF0FF3070472C490A6864
:10354000C2F30F324BF69A139A424FF0FF3006D176
:103550000868000F0B280CBF0420002070474BF6B2
:10356000BE118A4201D1012070474BF641318A4297
:1035700001D1032070474BF620318A4208BF022058
:10358000704700001A48F8B50068050F1948006830
:1035900000F0FF06802E28BF0026FFF7CFFF04288B
:1035A0004FF0FF3406F10A071DD8DFE800F00312E0
:1035B0001A1A1B00012D12D0032D06D0072D06D09C
:1035C000082D08BF06F116040DE014240BE01524A5
:1035D00009E025B1022D08BF06F1140403E00A2416
:1035E00001E005B93C4660B2F2BD00009412005003
:1035F00018130050A010005080B5FFF79FFF20B9AE
:10360000FFF7C0FF162800DB01BDFEE770B50446DA
:103610000D46164600F05AF9401E8041C00F1A4967
:103620000A68002AFCD0012E02D0022E02D003E04C
:10363000257002E0258000E0256001220A60002854
:103640001CBFBDE8704000F045B970BD38B50446F8
:103650000D4600F03BF9401E8041C00F0A490A6840
:10366000002AFCD0012D02D0022D02D003E02478E4
:1036700002E0248800E0246801220A6008B100F01A
:1036800029F9204632BD000000800C400B4611464F
:1036900004221818BAE710B500EB4100102B1446AD
:1036A00000F5007002D3103B001D240C02999940D4
:1036B00041EA0441BDE810400422A7E738B51D46A1
:1036C0000818102D144602D3103D801C240C022132
:1036D000FFF7BCFF204080B2E84032BD70B5044621
:1036E000E00782B00D46624E05D5A8B200900023D7
:1036F000012200F011F8A00705D5A8B2009001231F
:10370000022200F009F8600705D5ADB2009502234A
:103710000C2200F001F873BD00213046FFF7BBBF5B
:103720000146042907BF1D234FF0C0421C234FF060
:1037300080524F483421FFF7C1BF38B50546FFF727
:1037400099FE4C4CA168401A4FF47A71484305EB3E
:10375000104500F0C3F82169401A48BF404240F6C6
:10376000B9318D4207D2062805DAA068E1688142A6
:1037700001D322685AB940494A68D2074FF4FA6027
:1037800017D4086800F0FF007D21484308E0081ABC
:103790003A494843000C00EB9000904238BF104675
:1037A000C82801D2C82032BDB0F57A6F88BF4FF467
:1037B0007A6032BD80B501210320FFF78FFFFFF74C
:1037C00059FE2C49886001BD80B50120FFF7A8FF94
:1037D000012819D00023012234212548FFF76EFF6C
:1037E00098B100F026F8FFF745FE22498B680A6879
:1037F000C860A2EB9202C01A204B5843000C08602C
:10380000904238BF10460860012002BD10B500216B
:103810000320FFF763FF0120FFF782FF08B100F0EC
:1038200008F8144CFFF726FE606000F057F820619E
:1038300010BD1348006800F065B810B511490A685A
:1038400011490968140424161B384443E41004EB9E
:103850002244120600FB00F3121609065A4358438D
:10386000091604EBA222484302EBA04010BD000061
:1038700000A00C401C230020AC3F005040420F0031
:103880008000001090130050A410005070470000FA
:1038900062F30F2262F31F4200B500BF1300964689
:1038A0009446103928BFA0E80C50FAD85FEA417C52
:1038B00028BF0CC048BF40F8042BC90728BF20F818
:1038C000022B48BF00F8012B00BD0000EFF3108071
:1038D00072B67047EFF3108062B670470748084A27
:1038E00081681278006852B2A0F54070C903504355
:1038F000C913A1EB201080300012704728500940F6
:103900000C13005070B50446FFF7E0FF451EAD41B3
:10391000ED0F074E30680028FCD0A0470120306032
:10392000002D1CBFBDE87040FFF7D4BF70BD000084
:1039300000800C40002804D0082328220021FFF733
:10394000D5B870477047002804D0082324220021EE
:10395000FFF728B870477047002804D008232422B6
:103960000021FFF781B870477047002804D0082372
:1039700030220021FEF780BF7047704740F2FF7091
:10398000DFF8741C086070470020DFF86C1C0860CA
:1039900070470068704738B50446FEF7F5F92568AA
:1039A000002D01D029682160FEF7F4F9284632BDC8
:1039B00070B504460D46266800202860002E03D10D
:1039C000FEF7E2F925600DE0FEF7DEF900E036686B
:1039D00031680029FBD1AE4203D1FEF7DBF90020AC
:1039E00070BD3560FEF7D6F9012070BD002100E002
:1039F000491CC9B20846082807DADFF8002C02EB98
:103A00004010C27F1206F3D470470020704710B4F4
:103A10000022044601E0521CD2B2082A0CDADFF878
:103A2000DC1B01EB4211CB7F1B06F4D5B1F91C3036
:103A3000A342F0D1084600E0002010BC7047F8B562
:103A40000546FEF7A1F90446DFF8580BC17D0A00D0
:103A500029D0491EC175C9B2002924D1DFF8487B9D
:103A600007F15400FFF76EFF0821FDF766FE002DF9
:103A700019D0B86B7030FFF76EFFFDF719FC07F136
:103A8000F4063046FFF767FFB96BC968691ADFF8BB
:103A9000702B1268B1FBF2F1FDF717FC3046FFF70F
:103AA0005AFFFDF7FBFB2046BDE8F240FEF772B976
:103AB00038B50446207B00F00F0002281BD1DFF848
:103AC000E85A95F82000002815D100F06FFDA16894
:103AD0008908A1EB90006FF0704188420BDAB0F1D9
:103AE000704F02DADFF8C81C0818A96BC96801F525
:103AF0007A71814200DB002032BD18B42022816837
:103B000001E04968521E002912D01346DBB2002B97
:103B10000ED00B8840F60304A34203D040F6040401
:103B2000A342EED11822C068203018BCFFF7C8BCF1
:103B300011BC704710B5DFF8CC0A0168DFF8C82A5D
:103B400002EA0104E1430160A1060AD5406880064B
:103B500007D5DFF8B80AFFF7F5FE4FF40051FDF77F
:103B6000ECFD14F4602F0ED0DFF83C0A816904F4F8
:103B7000602211438161A430FFF7E4FE0021BDE81B
:103B80001040FDF7DABD10BD70B5FEF7FDF8064632
:103B9000DFF8144AA06910F4602F2AD0A069450C00
:103BA000EDB22846C00701D5002508E02846800769
:103BB00001D5012503E02846400700D50225681DF0
:103BC00040B200F0E3FFA069012105F1110291402C
:103BD0008843A0613046FEF7DDF804EB8500866877
:103BE000300009D000224FF00063691D6068B047C3
:103BF00002E03046FEF7CEF8A069002806D004F1B6
:103C0000A400FFF79FFE0021FDF797FDE07F8007EE
:103C10000DD56569280006D000224FF000436FF0F3
:103C200001016068A847E07F00F0FD00E07770BD0B
:103C300070B501F005F80546DFF86C49A80726D5F0
:103C4000A36A002B23D00020A0629A69D3E9040163
:103C5000284040F0020010439861DFF8182C5669A4
:103C6000D3E9040126EA00005061D668D3E90401D3
:103C700026EA0100D060194604F13000FFF798FEF3
:103C800004F15400FFF75EFE0221FDF756FDA66A1F
:103C9000A80712D4D6E9040105420ED0E662B26943
:103CA000D6E9040128401043B06104F15400FFF745
:103CB00049FE4FF48041FDF740FDA06A002836D14F
:103CC00004F12400FFF765FE060030D0F068A16B18
:103CD000884209D004F15400FFF734FE4FF48051BC
:103CE000BDE87040FDF729BDB068FFF7E1FE206533
:103CF000002803D0206DBDE87040A0E6DFF8742BEB
:103D00005369D6E9040118435061D368D6E9040128
:103D100041EA0300D0600020D061B0681060D06933
:103D20000028FCD004F12400FFF735FEA66270BD28
:103D3000002084E6F8B5064614461D46376E002F6F
:103D400000D0B8472046800709D4D6E916012040A4
:103D5000294000221346994201D1904209D0C6E978
:103D60001A4506F13800FFF7FFFDBDE8F240FDF708
:103D700091BBF1BDFEE7DFF83028D26B1047DFF8CA
:103D80002818C863704780B5FDF793FC0146DFF83B
:103D90001808806BBDE80440EDE710B5DFF808486F
:103DA000E06B0FF29901884202D1FFF76DFB2064AE
:103DB00004F15400FFF7C6FD0421BDE81040FDF7F3
:103DC000BCBC80B500F03CFFDFF8AC1A084209D05B
:103DD000DFF83808FFF7B6FD4FF00051BDE80440AA
:103DE000FDF7ABBC01BD10B5DFF8BC47A06B406868
:103DF0004068010000D08047A06B41688A68002AB3
:103E000002D1C968002917D0DFF8701A0A68002AA1
:103E1000FAD000220A6040688068010000D0804724
:103E2000A06B4068C068010000D08047DFF8340C08
:103E3000BDE8104000F00CBF10BD000038B50429EB
:103E400056D1DFF8644704F12400FFF7A2FD0028F3
:103E500002D0C068A06304E0E07FC00701D56068BD
:103E6000A063A06BDFF8181A426812780A6009682C
:103E700042681278914208D08569002D05D0002251
:103E80004FF000736FF0FF01A847022001F05AF8CD
:103E9000112001F06CF8DFF80C070121C176A16B4D
:103EA000097C407E014202D10E2001F060F8A06B37
:103EB00040688168002902D1C068002806D0DFF878
:103EC000B4090021C161DFF8BC190160FFF756FD9C
:103ED000DFF8A00900218161DFF89C1941610FF230
:103EE0001500FFF74CFF1920BDE83240FDF780BFF9
:103EF00031BD00002DE9FF410446880040F1858076
:103F00000020FFF770FFDFF86C590020E861DFF850
:103F1000580B2860012000F0E3FE0FF24910FFF774
:103F20002EFF40F60A00DFF87C66308000217180A9
:103F3000317B01F0F001317300217160717B01F080
:103F4000F00141F00101717304F10807D7F8008016
:103F50000021A8F8021000E08846D8F804100029D3
:103F600002D00A888242F7D1C8F8046098F80D00A0
:103F700000F0F00088F80D00DFF8F40BFFF709FD02
:103F80008068008840F6030188421CD040F6040196
:103F9000884218D0388B002815D000207883F8612B
:103FA00004F12C00017801F0F0010170417801F07A
:103FB000F00141F00101417004F120007060707B5C
:103FC00000F0F00070736946386800F069FE6846DA
:103FD00000F075FE386800F071FEE8690028FCD03A
:103FE0000020E8610120FFF79BFB01280BD098F827
:103FF0000D0000F0F00040F0010088F80D000FF215
:104000001100FFF7BCFE38682860BDE8FF810000A2
:10401000DFF8040B014200D1704710B50120FFF713
:104020007FFB012809D10FF23D00FFF7A8FEDFF862
:104030007405DFF84018086010BDDFF8384B2046E3
:10404000FFF789FC3221DFF8B8251268B1FBF2F1E5
:10405000FDF73BF92046FFF77EFCBDE81040FDF779
:104060001DB900002DE9F04184B006460C46DFF88A
:10407000385560041FD5FDF787FE804605F12C00FA
:10408000FFF787FC0646B7694046FDF783FEB80791
:104090000ED4002E0CD0B069B843B061706800280F
:1040A00006D03A460023B6F91C10F0687668B0478F
:1040B00024F4804477E1A0077AD505F13000FFF7BA
:1040C00068FC060068D0FFF718FDB0690021B161F7
:1040D000716800291CD040F002020023F07F00F03C
:1040E0000700012804D0022806D0042808D00AE0DE
:1040F0001A464FF0005306E01A464FF0804302E0A4
:104100001A464FF08053B6F91C10F0687768B8472C
:10411000FDF73AFE0746E88E401CC0F30B00E88628
:10412000286BC17F01F07F01C17705F13000FFF7F7
:1041300032FC3846FDF72EFEB5F93600F16801F184
:104140009402B2F90030984226D195F82000002858
:1041500022D19078002802D10868002804D10020DC
:104160009070FFF76CFC17E0A86B006810F1010F6E
:1041700012D001F17000FFF7EEFBF1680968DFF87B
:1041800080241268B1FBF2F1FDF79FF8F0687030FF
:10419000FFF7E1FBFDF782F824F0020405F130009F
:1041A000FFF7F7FB002800F0FE8044F00204FAE07D
:1041B000A00069D5286C002820D00420FFF7B0FAB1
:1041C00000281BD0FFF760F96864286C696C88428E
:1041D00003D2081A000BF06003E0491E081A000B16
:1041E000F060F06800F58D70F060A0F2EE2040F213
:1041F000D761884202D340F6C410F06000202864E2
:10420000D6F818C0DFF89C73BCF1000F0FD0787B94
:104210000F2108420BD1708C40F60901884206D16B
:1042200000224FF000736FF480713046E04705F1D3
:104230008800FFF7A2FB0022DFF89C19FDF73AFE89
:10424000B87E00280AD00220ADF80000684600F0D1
:10425000FFFCBDF80800A8830020B876012038755F
:10426000F87D401CF8750020F8761920FDF725FE32
:104270007769002F05D000224FF080631146304649
:10428000B84724F000548EE0DFF81873B87F002898
:1042900006D0200704D50020B87724F0080482E077
:1042A00020076CD50020387501203877002000F0F9
:1042B00017FD0FF20910FFF762FD05F18800FFF707
:1042C0005CFB0022DFF81419FDF7F4FD787EB97E5F
:1042D00081F00101084216D10120787640F60900EC
:1042E0003880787B00F0F00040F001007873002007
:1042F0007880387B00F0F000387300207860DFF8B9
:104300007405076038E0286D00282DD0FFF7BCF851
:10431000A864296C401A000BA864E96C4018E86492
:10432000296DB0EBC11F08D205F15400FFF70AFB5D
:104330004FF00051FDF701FA1EE00020E86440F65E
:1043400009003880787B00F0F00040F001007873BD
:1043500000207880387B00F0F0003873002078600F
:10436000DFF81005076007E005F15400FFF7EAFAEF
:104370004FF00051FDF7E1F924F0080413E0A00428
:1043800011D505F12800FFF704FB060009D070687D
:10439000002806D000222023B6F91C10F0687668A9
:1043A000B04724F40054002C06D005F15400FFF768
:1043B000C9FA2146FDF7C1F9BDE8FF8138B50446C9
:1043C00088002CD500F051FCDFF81408FFF7D7FC6B
:1043D000744D687D002805D104F13800FFF7C4FA58
:1043E000FDF758F8FFF7D0FA022000F041FD112048
:1043F00000F052FD207C002802D10E2000F04CFD80
:104400000020A883287E002809D0002028767F4835
:10441000FFF798FA0421BDE83440FDF78EB931BDAD
:1044200030B58DB000F0A5FCDFF8B807016841F0A9
:104430000201016001A8FFF77DFADFF8AC47A07820
:104440000790594D002301AADFF8A01705F1540089
:10445000FEF759FB01A8FFF788FA0020ADF81C0011
:10446000207809900020009001ABDFF87027192117
:1044700005F18800FEF70DFA01A8FFF75BFAE07876
:104480000790002301AADFF8681705F1A400FEF7E2
:104490003AFB01A8FFF769FA0120ADF81C0060782B
:1044A00009900020009001ABDFF848271A2105F1A0
:1044B000D800FEF7EEF900231A46DFF83C1705F1A5
:1044C000F400FEF791FADFF81807FFF758FC4FF6F3
:1044D000FF70A883DFF82407012181760021E977A6
:1044E0004176C17681838177084628640DB030BD5E
:1044F0002DE9F0418EB004460F4690461D46294EE8
:10450000707D002803D1FFF78BFF01207075002F0D
:1045100042D06760B8F1000F3ED0C4F80880FDF7C4
:1045200033FCB17D002939D10121B175FDF732FC91
:10453000002D03D109A800F099FA09AD2868206080
:104540006868E060287A2074E86860612869010082
:1045500000D0A0610022782104F12000FFF798F933
:104560006846FFF7F9F901208DF818006A46002126
:1045700004F13800FEF795FA6846FFF7E4F906946F
:104580006B460022DFF8781604F17000FEF72CFA73
:1045900020460EB0BDE8F0810020FAE7FDF7FAFBF7
:1045A0000020F6E72C22002014210020D0B5FDF7D2
:1045B000EBFBDFF84846217D002906D0DFF84816DE
:1045C0000C68FDF7E7FB2046D0BDFDF7E3FBFEF7E7
:1045D0005BFF10F5003041F10001DFF83026A2FB4F
:1045E000006702FB0177206901460020321847EB83
:1045F00001031846D0BD000000000460700E0020CA
:10460000D0B400000810044020000E0068210020F3
:104610002DE9F84F0446894692469B46FDF7B4FBC8
:104620000546DFF8E065B6F93400B6F93610401AF1
:10463000C0F30B0008283ADAB08E401CC0F30B0020
:10464000B086B6F934804046FFF7D0F9074604F14A
:104650007000FFF780F9FCF72BFEC7F8089087F889
:104660001EA0C7F804B0A7F81C80FC60DDE90A238F
:10467000DFF89C05202110401940C7E90401002003
:10468000F877706A0028394606F1240020D0FFF739
:104690008FF9002811D1B08E00F6FF70C0F30B0027
:1046A000B0862846FDF776FB6FF001007EE02846D5
:1046B000FDF770FB6FF0010078E0A4F89480F87FBC
:1046C00040F08000F8772846FDF764FB40466DE037
:1046D000FFF76EF900280BD1B08E00F6FF70C0F323
:1046E0000B00B0862846FDF755FB6FF001005DE03A
:1046F00004F19400A0F80080F97F41F08001F9777F
:1047000000218170DFF8F444607F217D084207D0EA
:104710000120A07700206077A076E07D401CE07546
:104720002846FDF737FBB06A00283ED1207D0028DF
:1047300003D01920FDF7C1FB37E0E07E002834D11B
:10474000FDF722FB0546207F002805D001202076BA
:104750002846FDF71FFB28E0B868FFF7A9F9306588
:10476000002818D0376D06F1F4042046FFF7F3F85F
:10477000B16BC968791ADFF85C241268B1FBF2F1F9
:10478000FCF7A3FD2046FFF7E6F8FCF787FD284677
:10479000FDF700FB09E02846FDF7FCFA06F154009E
:1047A000FFF7D0F80421FCF7C8FF4046BDE8F28FC0
:1047B000F6FFFF1F2DE9F0410646884614461D46C8
:1047C000FCF72BFF07464046FFF721F98046B8F17A
:1047D000000F05D13846FCF724FF022000212AE013
:1047E00098F81F00072108420AD03846FCF719FF45
:1047F000072198F81F000842FBD1022000211AE08F
:10480000DFF81004D8F804100246914204D0D8F81A
:1048100004103166C8F80400C6E916453846FCF7AE
:1048200000FF06F13800FFF79FF84FF0FF31FCF76B
:10483000D2FDD6E91A01BDE8F081DCB504461800C6
:1048400001D1DFF8D033DDE90667CDE90067204606
:10485000FFF7DEFE002803D500204FF00041DCBD4D
:1048600002224FF0E0430146204602B0BDE8D040AE
:10487000A0E7000000100440020000401C100440AB
:10488000D02108405100070601E042F002022DE964
:10489000F84389461646DFF86C4304F12400FFF71D
:1048A00078F8009006F001080327FDF76DFA054639
:1048B00019F1010F0BD1A06A002803D0A06AB0F94A
:1048C0001C9002E0E08E00F101090020E0774846EC
:1048D00000B2FFF79CF8002837D0A16A884234D193
:1048E00016F0020603D0616A009100216162C17F67
:1048F000012202FA08F21143C177FCF78EFE074647
:10490000B8F1000F02D0DFF8100301E0DFF80C036C
:1049100000F09EF92846FDF73DFA002E0DD10FE07C
:10492000C07F40F004000099C8776846FFF733F86D
:10493000014604F13000FFF73BF800980028EFD162
:104940003846FCF76EFE832789E0002800F084805B
:104950000099814229D104F1F400FEF7FCFFFCF735
:10496000A7FC16F0020602D00020606202E0606A36
:10497000006860622846FDF70DFA0098C07F40F09D
:1049800004000099C8776846FFF705F8014604F16E
:104990003000FFF70DF80098002801D03000ECD16E
:1049A000832737E0009909680091009900292CD0ED
:1049B00009688142F6D104F1F400FEF7CCFFFCF760
:1049C00077FC00980068B10704D50021009A1160B7
:1049D000009013E00168009A1160002101600090CE
:1049E0000CE0C07F40F004000099C8776846FEF7ED
:1049F000D2FF014604F13000FEF7DAFF00980028EC
:104A0000EFD12846FDF7C6F98327832F02D0284629
:104A1000FDF7C0F9DFF8E451E87E002807D004F183
:104A20005400FEF78FFF0221FCF787FE17E0287F76
:104A3000002814D1DFF8E801FFF7A1F904F15400D0
:104A4000FEF780FF0221FCF778FE287D002806D1C2
:104A50006348FFF794F902E02846FDF79BF93846D2
:104A6000BDE8F2830100070601010E040FF2BC113C
:104A70001422FEF725BD38B50446FDF785F9054635
:104A80005E48007D00280ED0204600F0E1F8044684
:104A90002846FDF77FF904F0FF00012801D18120AD
:104AA00032BD022032BD2846FDF774F9012032BD27
:104AB0000A465449896B884201D00320704700217F
:104AC0001046D8E70A464F49896B884201D0032037
:104AD000704700211046CEE738B54A49896B8842B5
:104AE00003D14648007D002802D16FF07F0032BD1F
:104AF000FDF74AF904464B4800F0AAF8054620465F
:104B0000FDF748F905F0FF00012802D1280C40B25A
:104B100032BD6FF07F0032BD0400002070B50E463C
:104B200015468324FDF730F9002E03D0022E15D050
:104B30000AD317E033498A6A002A03D0896A898B2D
:104B4000298010E080240EE02C49897E002903D1C1
:104B50002C49898B298006E0802404E02749097DBF
:104B6000297000E00324FDF715F9204670BD000010
:104B7000382100200822002080B50846FEF747FFB4
:104B8000002801D0806802BD002002BD38B504466F
:104B9000FDF7FAF81B49CA7F520703D522468B7FDF
:104BA0009A4212D001228B8B02FA04F52B438B839D
:104BB0001D4B1D680C34A24025EA02021A601A68D7
:104BC000002A02D1002281F82020BDE83240FDF702
:104BD000E1B80000D0B40000313C0000C33D00004B
:104BE0003D3E0000002009402CAE0000873D000043
:104BF000893B0000353B00009B3D00002C2200203B
:104C0000313D0000142100200430044000093D0023
:104C1000F1EFFF9F353D0000010002040100010497
:104C200065400000010003040C100440FFFFFFFF7B
:104C3000C40900000100000000000000753D0000F4
:104C400021490868C2430A600A680242FAD17047E3
:104C50001E490A68002AFCD1CA610860C869002898
:104C6000FCD00020C86148687047194801686FF09F
:104C70000202114041F40071016003211548816076
:104C800041F2300141610121C160502141610121A6
:104C9000C1604FF4CA6141610121C1600160704788
:104CA0000D4802680A6082684A60C2688A60406B88
:104CB00020F0784040F08050C8607047704701464F
:104CC00010220648FEF7ECBB101004400010044010
:104CD00000000460004104404C1300501800002103
:104CE0007047000020B1082324220021FDF75ABE9E
:104CF000704780B50120009009234FF40072002115
:104D0000DFF80807FEF7C7FC01BD80B500230122CC
:104D10003421DFF8F806FEF7D1FC00B10120C0B263
:104D200002BDDFF8EC0680687047DFF8E416401833
:104D300090F8ED0070470022022904D1012806D125
:104D400040F2EE2203E0012808BF4FF47A721046C9
:104D50007047DFF8BC06D0F8DC007047DFF8B0061B
:104D600090F8E61021B1D0F80C01010018BF0047FF
:104D700070472DE9F041DFF8988608F1E1058AB027
:104D8000A879002861D10120A871DFF88866DFF8D2
:104D90008876307B68717068C8F80C0101A8FFF74D
:104DA000A1FF00200690ADF81400079001AB00228F
:104DB0000FF2F54108F10C00FDF716FE01AB0022E1
:104DC0000FF2A15108F13000FDF70EFE01AB0022F9
:104DD0000FF2D94108F15400FDF706FEB168012039
:104DE0008847DFF8380600787868C0F38154707B14
:104DF00020B1032C02D10120287003E0032C18BF3E
:104E0000022C16D1022000F09DF8032CDFF81016BA
:104E10000CBF4FF47A7042F210700968B0FBF1F1E8
:104E200008F15400FCF751FA08F15400FCF736FA87
:104E300005E0012C03D100F063FAFFF75AFF386850
:104E400040075CBF002000F07DF80AB0BDE8F081AB
:104E500010B508B1140001D1022010BD8160C260FC
:104E600003610146DFF8A80500F028FB002010BD13
:104E700010B50446FCF788FFDFF89415621892F825
:104E8000E8305B1E82F8E830DBB223B98A68012380
:104E9000A3409A438A6066E02DE9F0410546FCF79D
:104EA00073FF8046DFF86815681890F8ED20521EF1
:104EB00080F8ED20D2B2002A3FD10FF2A050DFF8E7
:104EC000644500EB85052E786F88300615D521687E
:104ED000096A384688472168896A384688472168C0
:104EE000096B38468847DFF8401501200860DFF875
:104EF0003C0500688007FAD512E0700606D501EB84
:104F000087010020D1F80011884709E021688969EC
:104F1000384688472168496B384688470228F9D1C6
:104F200006F03F003F2818BFFFF7B6FF687800F093
:104F30003F003F2818BFFFF7AFFF4046BDE8F041F4
:104F4000FCF728BF10B50446FCF71EFFDFF8C014BD
:104F50008A680123A3401A438A60611891F8E82007
:104F6000521C81F8E820BDE81040FCF713BFF8B5EB
:104F70000646FCF709FF0446DFF89454701990F8D0
:104F8000ED104A1C002980F8ED2039D10FF2CC40F9
:104F900000EB8607387800F03F003F2818BFFFF786
:104FA000E6FF787800F03F003F2818BFFFF7DFFFEB
:104FB0007E883878DFF86C7401060ED53968C969C7
:104FC000304688473968496A304688473968C96A2F
:104FD0003046884700F019F812E0400606D505EB88
:104FE00086010120D1F80011884709E03968496934
:104FF000304688473968496B304688470128F9D1DF
:105000002046BDE8F240FCF7C5BEDFF81C140120C5
:105010000860DFF8180400688007FAD570472DE9AA
:10502000F04F002483B04FF0000A0128D04618BF8B
:10503000012664D1DFF8D893D9F8DC0001285DD1CE
:105040000220C9F8DC00FCF723FC0090012000F0EE
:1050500062F9060054D1FCF7E0FADFF8D8130190AA
:105060000C600120FEF75CFB012804D1002000F059
:10507000A7F94FF0010ADFF8C013DFF8B4030C60A2
:1050800000681120FFF751FE08B14FF00108102011
:10509000FFF74BFE08B148F002080F20FFF745FE6E
:1050A00008B148F004080B20FFF73FFEDFF87463F7
:1050B00020B13168096B4FF4806088470A20FFF700
:1050C00034FE20B13168096B4FF481608847DFF806
:1050D0005813DFF86873DFF868B30120086048F000
:1050E0002000316889698847DFF85813012008607B
:1050F00099F80800C00707D5012416E0042673E0DC
:105100000120C9F8DC006CE0584600F0F9F90546CA
:10511000042DF9D0012D04D1326A5268032158467A
:1051200090473868800880003860002000F0F0F96F
:10513000BF4800683068806B804754B9012D04D1A6
:10514000326A5268012158469047386840F003009F
:1051500038600120B849086040463168496988478D
:105160000B20FFF7E2FD20B13168C96A4FF480607F
:1051700088470A20FFF7D9FD20B13168C96A4FF48A
:1051800081608847A849012008600020AD49086077
:105190000320C9F8DC003168496B40468847012884
:1051A000F9D1042000F0B7F8A24901200860A04816
:1051B0000068A54800688006FBD5BAF1000F1CBF47
:1051C000012000F0FDF8FEF785FB082000F0A3F8B1
:1051D00006460120C9F8DC000198FCF722FA00F02D
:1051E00067FA0098FCF75BFB3046BDE8FE8F38B5E8
:1051F0000446FCF7C9FD05462146854800F072F9D2
:1052000028464BE030B5002401288BB004D021D3D0
:1052100003281DD018D31DE001A8FFF763FD7C4DC6
:105220008A490694ADF81440079401AB012205F1B8
:105230007800FDF7D9FB00940023854A2C2105F165
:105240009C00FDF726FB05E000F0BEFA044601E0F5
:1052500000F060FB20460BB030BDFEF76EBA38B5EB
:10526000FCF792FD05466A4890F8E000012410B171
:10527000FFF74BFD04462846FCF78CFD204632BD67
:1052800038B5FCF781FD624D044695F8E00020B189
:10529000FEF79AFA002085F8E0002046BDE832408B
:1052A000FCF778BD000000007047000010B582B028
:1052B0000420FEF735FA022818BF032807D100F0B2
:1052C0001FF8FFF716FDBDE816400220D0E5614843
:1052D000534900684E4CC0F3815003280CBF4FF473
:1052E0007A7041F288300968B0FBF1F104F15400A2
:1052F000FBF7EBFF04F15400BDE81640FBF7CEBF0F
:10530000032000901C234FF0405200213F48FEF73D
:10531000C2B90020704770B504463D4E304600F0DB
:10532000C3F8002598B9304600F0C4F80646B068C6
:10533000204207D03269F36800212046984705468D
:10534000012D05D0304600F0B7F80600EFD1284611
:1053500070BD414901280CBF40F2FF700020086079
:105360000020704770B5FCF70FFD294E294D04460B
:1053700096F8E00028B1FEF727FA68B1002086F819
:10538000E0000220AD68A84706461020FFF7C3FFE3
:105390008EB10320A8470EE0214909683220B0FBF6
:1053A000F1F101B9012106F13000FBF78EFF06F1A2
:1053B0003000FBF773FF2046BDE87040FCF7EABC05
:1053C00038B501281ED1FEF7ABF901281CD0FEF735
:1053D000F1F90F4C1249012084F8E00032200968ED
:1053E000B0FBF1F505B9012504F13000FBF760FFD2
:1053F000294604F13000FBF768FF04F13000FBF7A9
:105400004DFF01E0FEF702FA002032BD00A00C4083
:105410004C0C0020A8AD0000B03F00503D23002000
:10542000D0B40000B80100102820086028200840EF
:105430002C2009400C40094000022243242208404D
:10544000004003408001044314100940515A0000F9
:1054500021580000B43F0050000004608F3F00005E
:105460008F3F01008F3F02008F3F0300903F0001FC
:105470008F3F0101903F0002903F00038F3F0104E6
:105480008F3F00058F1208048F3F00048F3F0006F6
:10549000513F00007F3F01003F3F04003F3F0200BB
:1054A0003F3F01007F3F0200006800280CBF012041
:1054B00000207047006870470068704738B50446A0
:1054C0000D4600F09AFB00212960616869606168FF
:1054D000002914BF0D6025606560FFE7BDE832401C
:1054E00000F08DBB0B684A68002B0CBF42605A600D
:1054F0004A680968002A0CBF01601160704700000B
:10550000006801074CBF042000F003007047000052
:105510002DE9F84F06469348934C0068934D800759
:1055200004D50820A87192482060BFE0FEF7D6F9A4
:1055300080469048006800900027001700F101099C
:105540000098800208D4C8F13E00C0100928A8BF06
:1055500008208145B8BF814687480068C0F30460D1
:10556000FDF775FE824685480068C0F30440FDF7EC
:105570006EFE09EB0A011629A8BF152104DA6FF0A7
:1055800009029142B8BF114601F01F027C4B42F460
:10559000F8521A807B4A126812F0030F18BF0127D5
:1055A000520748BF47F002070EB147F0040795F9CC
:1055B0000720A8EB0202052A02DAAA7997425DD0F9
:1055C000A8F10F0C0026BCF1000FB64607F001024F
:1055D00007F00403DFF8B09123D40CEB0C1C4FEA66
:1055E0002C2EBEF1080F28BF4FF0070E7646072E6F
:1055F00028BF062609EB860A59F82660DAF804A0C7
:10560000AAEB060A0AF0FF0613B1CAF3072B5E44A1
:105610005FEA877B44BFCAF3074B5E440AB106EBDF
:105620001A6659F82E9009F0FF0A13B1C9F307233F
:105630009A44BB0744BFC9F307439A440AB10AEB33
:10564000196A401AACEB0E220099AF717243803296
:105650000128B8BF0120342301F0FF0158430AEBB1
:1056600012224843B0FBF2F0B0F5803F28BF4FF65E
:10567000FF7008F30708A88085F807804348006892
:10568000A988286000201F2904D21F21A98004E0D6
:105690004908401CB1F5007FFAD20F39090940EAE8
:1056A000C1003B490843206000206060BDE8F18FE5
:1056B00010B53848006884B21CB3FEF70FF92B49C7
:1056C00091F90720904205DA6FF07F029042B8BF4F
:1056D0001046C8718888844201D28C8010BD2B4A44
:1056E00012680B68D21A921C202A28BF1F22231A84
:1056F0005208D3401818B0F5803F28BF4FF6FF700E
:10570000888010BD2448026802B9704710B5234B49
:10571000996801F04060B0F1406F21D011480468F1
:10572000A4071DD45C68A4071AD404681B68C3F3DB
:1057300003531C331B0114F0050F06D09A420FD2FD
:105740006FF005012140016010BD934208D20A01AB
:1057500058BF44F00104490158BF44F004040460F8
:1057600010BD000000000940301009403023002027
:10577000FDFDA400B43F0050B81200503C11005091
:105780006E620840242208409C1300500820094003
:1057900000E7A4803410094028500940AC3F005075
:1057A00010B50C18FEF792F8401E8041C00FDFF8CC
:1057B000F0130A68002AFCD0246801220A6008B1AC
:1057C000FEF788F8204610BD38B5DFF8D843DFF87B
:1057D000D8132078897B002508430AD0FCF7D4FA37
:1057E000A178002906BF0121A1700125FCF7D2FA9A
:1057F0000DB1002032BD0220FFF7A4FB0E20FFF701
:10580000B6FBDFF8A803016809B1012032BDDFF85B
:10581000A023402111600121C1610020607032BDD0
:1058200070B5DFF88C0382B0002101604821C160AF
:10583000DFF8800300F1D804A17A002968D001299B
:10584000DFF8742329D110684BF2F5214843050A8B
:10585000DFF868030068C0F38140012806D1FEF735
:105860003DF8FDF7EAFF684305EB9055607B10B10A
:105870000020607305E0D2480068000215EB10209C
:105880004508D0480560290C416001218160C64867
:10589000807B00283AD0052039E0022909D115681B
:1058A000284600F0FDF8A5F2FF5003282ED308206B
:1058B0002DE003292CD1116800F1B805A1F5C061D4
:1058C0002868E961002848BF4042002948BF494292
:1058D0008842A8BF002018DA6868BB4E80B20090EA
:1058E00008234FF47F4230213046FDF7D4FEA868EC
:1058F00000F072F904213046FDF7CDFEA86900F0F2
:1059000071F93046FDF7C7FE012020700B2020738F
:10591000BDE873402DE9F041A64CDFF8AC82AB4FF7
:10592000AB4EA34804F1E10582B0E9784A1E0B2A88
:1059300000F28080DFE802F0062233465B33465BEC
:105940003346636EA34909680968202088470F2001
:10595000F860072341F61D5038614FF4C0720220F1
:10596000009000F070F807234FF4C0720021404609
:10597000FDF7A4FE01203060022044E00120F86120
:10598000287800281DBF0020306103200620E87021
:1059900003203860002070607068800734D4E87895
:1059A000032804D1022000F04BF8042007E0002077
:1059B00000F046F8E87806280CBF07200A20E870B7
:1059C00001201AE0042903D12021B961012105E059
:1059D0000122BA610A290CBF03210221697000214A
:1059E00039600821C16001600120386026E0052986
:1059F0000CBF06200920E8700020706004E0002041
:105A0000306070600C20E87004F17800BDE8F64169
:105A1000FBF744BC002101600120644908600E20AE
:105A2000FFF73AFA0220FFF723FA0120E87000207E
:105A3000A87003E0BDE8F341FCF708BEBDE8F381C0
:105A400000900523602200214046FDF724BE00009F
:105A500080B558495E4891F8E410891E0A291AD881
:105A6000DFE801F0060A0E190A0E190A0E191200D3
:105A700001688907FCD510E041688907FCD40CE077
:105A800041688907FCD508E001688907FCD44168B2
:105A90008907FCD401E0FCF7D9FDBDE8014039E7F6
:105AA000F8B50746484C30212046FFF779FE414EB5
:105AB00006F1B805C0F30720686004212046FFF70F
:105AC0006FFEC0F38440A86020212046FFF768FEE7
:105AD000C0F38120A861B7F5C060286002D186F8C4
:105AE000D800F1BD296996F8D8202AB96A68A96852
:105AF000EA60E861AA696A61E86900284CBF6FF052
:105B00000102022200EB40001018421000EB9270DC
:105B100001EBA0006968E960012810DA6A69032ACC
:105B200004D1153001281DDA01201BE00B300128BB
:105B3000B8BF0120491E48BF0021E96007E01F28C7
:105B400012DB6A692AB915381F28A8BF1E20032155
:105B500009E00B381F28A8BF1E20491C4029A8BFF8
:105B60003F21E9600021696128610823E86880B26B
:105B700000904FF47F42302100F03CF8012000906B
:105B800011234FF4003200F034F8286900F024F8B3
:105B900000F02FF8686900F025F800F02BF8F1BD4F
:105BA00000800C402D0D0020A8AD000004800C40AA
:105BB0002C500C404C0C002008400C40B43F0050CE
:105BC000102009403C600C4000A00C4000400C40FC
:105BD00034600C40A001001080B2009012234FF4FA
:105BE000F802704780B200900A234FF440622021EF
:105BF000704704212046FDF74EBDFCF7C5B8FCF701
:105C0000C9B80000002804D008233C220021FCF77A
:105C1000A3BF70473EB504460D460820ADF800000E
:105C20000120ADF802006846DFF8181C09688847B3
:105C30009DF804102170029929603EBD00B583B023
:105C40000821ADF800100321ADF80210019068465C
:105C5000DFF8F01B0968884707BD70B584B00446BB
:105C60000D4616460820ADF800000920ADF80200E8
:105C70006846DFF8D01B09688847BDF8041021800A
:105C80009DF8061029700299316004B070BD00B50E
:105C900083B00821ADF800100A21ADF80210019080
:105CA0006846DFF8A01B096888470EBDF8B50E46A8
:105CB00017460025014640F20132891A32D0491EAA
:105CC0003BD0491E44D0891E4BD0491E00F0A38012
:105CD000491E00F0A980491E00F0C180491E00F055
:105CE000D980491E00F0E180491E00F0E980491E7C
:105CF00000F0F180491E00F0F980C91E00F001811A
:105D0000491E00F00981491E00F01481491E00F06F
:105D10001F81491E00F02881491F00F03481891E2F
:105D200045D04DE1102E06D110223946DFF8180B70
:105D3000FDF7B6FB4EE118254CE1102E06D11022DE
:105D40003946DFF8080BFDF7ABFB43E1182541E1CD
:105D5000042E04D13868DFF8F81AC8623AE1182531
:105D600038E1012E21D1DFF8E84A607901284ED0D0
:105D700020793978217100280BD00A0009D1A07848
:105D8000022802D0052840F02581607801F050F803
:105D900020E1002840F01E81002900F01B81A0783E
:105DA000012830D0042829D12DE0182512E1012E38
:105DB0002FD1DFF89C4A2079012828D060793978E2
:105DC000617100280DD00A000BD1A078032804D0FF
:105DD000072802D0052840F0FD80607801F028F8FF
:105DE000F8E0002840F0F680002900F0F380A07869
:105DF000012808D0042806D0062804D02046807840
:105E0000052840F0E780012000F015FDE2E01225B2
:105E1000E0E01825DEE0022E04D13888DFF8301AE1
:105E2000C883D7E01825D5E0202E16DADFF8204AFF
:105E300004F1CC0500221F212846FCF73FFF324623
:105E400039462846FDF72CFBA6712B463246012128
:105E5000607800F0C4FF0546BCE01825BAE0202EAB
:105E600016DADFF8EC4904F1EC0500221F21284680
:105E7000FCF724FF324639462846FDF711FBE67150
:105E80002B4632460021607800F0A9FF0546A1E0CC
:105E900018259FE0012E06D13878052803DADFF8AF
:105EA000B019087296E0182594E0012E06D13878D2
:105EB000042803DADFF8981948728BE0182589E086
:105EC000062E06D106223946DFF88809FDF7E8FAE2
:105ED00080E018257EE0012E06D13878082803DA04
:105EE000DFF86C19887275E0182573E0012E06D171
:105EF0003878042803DADFF85819C8726AE01825E0
:105F000068E0012E06D13878062803DADFF8401958
:105F100008745FE018255DE03888022E08D1811FE3
:105F200040F67B42914203D2DFF82419488251E0C7
:105F300018254FE03888022E08D1811F40F67B4299
:105F4000914203D2DFF80819888243E0182541E026
:105F50003888022E06D1B0F5FA7F03DADFF8F018A0
:105F6000C88237E0182535E03888022E09D1A0F123
:105F70000A0140F67742914203D2DFF8D418088331
:105F800028E0182526E0012E18D13878012815D1EF
:105F9000DFF8BC4804F1800001F056FA00280BD16C
:105FA00004F11001284600F0F8FB050012D104F1BD
:105FB0005C0001F053FA0DE016250BE0182509E00E
:105FC000282806DA022E04D1398800F03AFF054667
:105FD00000E002252846F2BD38B50D4600240146F2
:105FE0004FF44072891A44D0491E47D0491E4CD004
:105FF000491E51D0491E54D0491E59D0491E61D066
:10600000491E64D0491E6BD0491E72D0491E75D0FE
:10601000491E78D0491E7DD0491E00F08080491E5F
:1060200000F08280891E00F08480491E00F0868086
:10603000491E00F08880491E00F08A80491E00F049
:106040008C80491E00F08E80491E00F09280491E0F
:1060500000F09480491E00F09680891E00F09D801B
:10606000491E2AD0491E00F09380491E00F09A80F4
:106070009DE0DFF8DC07C07828709FE01022DFF891
:10608000C8172846FDF70CFA98E01022DFF8BC1775
:106090002846FDF705FA91E0DFF8B407C06A2860EA
:1060A0008CE00622DFF8B0172846FDF7F9F985E005
:1060B000DFF89C070079287080E0DFF894074079CA
:1060C00028707BE0DFF88807C08B288076E0DFF857
:1060D0008007827900F1CC012846FDF7E1F96DE0F7
:1060E000DFF86C07C27900F1EC012846FDF7D8F91A
:1060F00064E0DFF85C07007A28705FE0DFF85007A3
:10610000407A28705AE00622DFF848172846FDF743
:10611000C7F953E0DFF83807807A28704EE0DFF8DF
:106120003007C07A287049E0DFF82407008C288007
:1061300044E0DFF81C07007C28803FE0DFF8100710
:10614000408A28803AE0DFF80807808A288035E016
:10615000DFF8FC06C08A288030E0DFF8F406008B08
:1061600028802BE00622DFF8F4162846FDF798F980
:1061700024E0DFF8DC06408C28801FE0DFF8D00642
:10618000808C28801AE0DFF8C806C08C288015E0D3
:10619000DFF8BC06007B287010E0DFF8B4068078DA
:1061A00028700BE0DFF8A806407B287006E028285E
:1061B00003DA00F05FFE288000E00224204632BDB2
:1061C00080B5DFF88C168A78002A06D1002800D026
:1061D000086300F0BDFA002002BD112002BDDFF807
:1061E00070068178062901D0072904D11322018C79
:1061F000407800F0D0BD1220704700B58FB06846DF
:10620000FFF700FDDFF8580600F1500107914FF449
:10621000DC7108910321069100236A460FF2C50143
:10622000FCF7C6FC0FB000BD7CB5DFF8244604F1D6
:106230002801601CFFF7EEFC0020A0704FF6FF70F5
:10624000208400F034FE20700FF2196501200190C7
:106250000020009003460246294604F1380001F070
:10626000ADF8022001900020009003460246294626
:1062700004F15C0001F0A2F80420019000200090DD
:1062800003460246294604F1800001F097F80420F5
:10629000E07004F1A405002210212846FDF7F8FA69
:1062A00004F1B406002210213046FDF7F1FA002077
:1062B000E062207260720720A0720020E0722A461D
:1062C0001021022000F0FCFF32461021032000F0D4
:1062D000F7FF04F12C020421084602B0BDE870402B
:1062E00000F0EEBF10B586B0FFF79EFFDFF8604507
:1062F00038E0207A8DF80800607A8DF809000622CF
:106300004FF4867021180DF10A00FDF7C9F8A07A44
:106310008DF81000E07A8DF8110002A9607800F085
:1063200059FD002809D00820A070206B002804D057
:106330000168080001D008208847A08B810708D594
:106340004FF6FD710840A08304F11001002000F019
:1063500024FAA08B410705D54FF6FB710840A083B6
:1063600000F007FA4FF0FF30FFF791FC002829D129
:10637000002000906A460DF1060101A8FFF76DFCB0
:1063800000281FD1BDF80400102816D19DF8060082
:106390006178884211D1009801884FF6FF729142CE
:1063A00009D14088400408D504F12C020421084694
:1063B00000F0A1FF01E000F016F80098002801D0DD
:1063C000FFF73CFCA08BC107B7D54FF6FE71084024
:1063D000A083607921790143AFD0002889D00320C0
:1063E0008DF8080093E710B50178A22904D0D029D0
:1063F0001ED1BDE810401DE04179132918D1DFF806
:1064000050440089012809D1A07B022806D104F15B
:10641000800001F023F8BDE81040E0E6052000F020
:1064200029FD014604F18000BDE8104000F0F0BFF6
:1064300010BD000070B584B006460025B078DFF8C6
:1064400010440146112900F27881DFE811F01200B2
:1064500076013600620062009500CC00FA007601F9
:1064600076017601760176017601760116017601D4
:106470001B01707801001AD104F1A402102102203E
:1064800000F039FF04F1B4021021032000F033FFC3
:106490000622F11C04F1C400FDF702F80120A070EF
:1064A00004F1CC03A2790146607800F098FC002842
:1064B00001D00820A07001253FE17078002820D18C
:1064C000F078002808D004F1EC03E27929466078DE
:1064D00000F085FC707014E0A078022811D0072825
:1064E0000FD0062802D1617901290AD1032808D0EA
:1064F00004F1380000F0A8FF002802D1012000F0CC
:106500009AF97078002800F018810820A070012501
:1065100013E1717800292BD103280ED1A078062829
:1065200002D10720A07025E02079002802D00220A7
:10653000A0701FE00320A0701CE0E18B20790A000E
:1065400007D0627910430AD004F1380000F060FFF0
:1065500005E00128284601D1207100E06071A07893
:10656000072802D10620A07004E00420A07001E0FA
:106570000820A0700125E0E07078010028D10622F3
:10658000311D4FF48A702044FCF78AFF7089208403
:106590000620A070F0896084308AA084708AE0842C
:1065A000F0782073207C012801D0022809D11F2017
:1065B00000F060FC4FF47A71414304F15C0000F09C
:1065C00027FF04237289311DF07800F095FA08E066
:1065D000312804D1284620710420A07001E0082051
:1065E000A0700125A9E0B08800F0AAFA2A46062189
:1065F0004FF48A702044FCF761FB28466084A08435
:10660000E084B079607304F15C0000F027FF04F1CE
:10661000800000F023FF01254FF6FF702084607991
:10662000002802D00320A07087E0B079082802D1AA
:106630000520A07001E00420A070284600F0FBF8BF
:106640007BE004F1800000F009FF7078002874D12D
:10665000F08860843089A0847089E08404F15C0053
:1066600000F0F2FE002868D1636B002B65D0E28C4D
:10667000A18C608C1B6898475FE00521B08800F012
:10668000DCFB5AE0B088ADF80000207C052803D17F
:1066900028468DF80A004DE001208DF80A0004F12B
:1066A0005C0000F0DBFE207C012801D0042824D10E
:1066B000608AF1880A4603469A4200D30846ADF83C
:1066C00002003089A18A02460B469A4200D208464F
:1066D000ADF804007089E18A02460B469A4200D266
:1066E0000846ADF80600B089218B02460B469A4257
:1066F00000D20846ADF808001CE0032801D00228AB
:106700000CD1608AADF80200A08AADF80400E08ADE
:10671000ADF80600208BADF808000BE0F088ADF86E
:1067200002003089ADF804007089ADF80600B08928
:10673000ADF80800684600F028FB012D07D1206B5A
:10674000002804D00168080001D0A07888477FBDE8
:1067500000B583B03E4800F12C01019100F1B40175
:10676000009100F1A4030022C178407800F0D8FA2B
:1067700007BD80B53648817B012902D0022909D0A6
:1067800001BD01210091038BC28A818A408A00F0F9
:106790003AF801BDBDE8014021E5FEB504460F46CB
:1067A0002B4D688C01467A8891420AD3B988814280
:1067B00007D3A88CF988884203D1E88C39898842AC
:1067C0001ED0052000F056FB0646288CADF80000D0
:1067D0007888ADF80200B888ADF80400F888ADF804
:1067E00006003889ADF80800684600F0C8FA0700CE
:1067F00007D1AC73314605F1800000F009FE00E0DE
:1068000018273846FEBD3EB5114CA578062D01D09F
:1068100014203EBDADF80200ADF80410ADF806201E
:10682000ADF8083004F15C0000F018FE69460698E7
:10683000FFF7B3FF3EBD06498A8B10438883886A01
:10684000FAF728BEB0070020380A0020480A0020C6
:1068500094090020A00A0020580A0020A80A00205D
:10686000FC1D0020E7E70000E0B50821ADF80010AE
:106870000221ADF8021001906846DFF8741409682F
:106880008847002801D000200EBD02980EBD00B53B
:1068900083B00821ADF800100321ADF8021001907B
:1068A0006846DFF84C140968884707BD1FB50824FF
:1068B000ADF80040ADF802408DF80400ADF80610C8
:1068C0008DF8082003936846DFF824140968884788
:1068D00004B010BD30B585B014461D460822ADF891
:1068E00000201922ADF80220019002916846DFF8DD
:1068F000001409688847002C02D0BDF80C102180D4
:10690000002D02D09DF80E1029700499089A11608C
:1069100005B030BD00B583B00820ADF800001A20E6
:10692000ADF802006846DFF8C813096888470028F8
:1069300002D19DF804000EBDFF200EBDE0B5082178
:10694000ADF800102021ADF80210ADF80400684643
:10695000DFF89C1309688847002801D102980EBD12
:1069600000200EBD00B583B0ADF800000020ADF8EA
:1069700002008DF806106846DFF87413096888472E
:10698000002802D19DF807000EBDFF200EBD002893
:1069900001D10020704710F1040F01D1042070478D
:1069A00010F1030F01D102207047012070478123AD
:1069B00003700023C37042EAC11141F47C4181801D
:1069C0007047822303700023C370818082717047F7
:1069D00038B504460D461020FFF7B0FF002802D05E
:1069E0006FF0040032BD009500231A4621464FF097
:1069F000FF30FFF76FFF32BD10B582B01446CA7882
:106A0000012A03D18A88DFF8EC321A800B46022271
:106A10001021FFF74BFF00280DD1002000906946A0
:106A20002046FFF7D5FF002805D100984478FFF7EE
:106A30002EFF204616BDFFF7AAFF16BD38B5154636
:106A40001C460B4602221021FFF730FF00281BD105
:106A50000020009069462846FFF7BAFF002813D1AE
:106A60000098457828000AD10098C07921468842CC
:106A700005D12246009881680498FCF711FD009822
:106A8000FFF705FF284632BDFFF781FF32BDF8B59D
:106A900004460D4616460A20FFF7E6FE070011D011
:106AA00032462946FFF78DFF21465020FFF75AFF57
:106AB0003872FFF72FFF3B460222102101B0BDE8DC
:106AC000F040F3E6F1BD10220121E0E738B50446BD
:106AD0000C20FFF7C9FE05000DD004220121FFF7AD
