:100000000037002095090000A5090000A70900009D
:10001000A9090000A9090000A909000000000000CA
:10002000000000000000000000000000A90900001E
:10003000A909000000000000A9090000A9090000AA
:10004000A9090000A9090000A9090000A9090000E8
:10005000A9090000A9090000A9090000A9090000D8
:10006000A9090000A9090000A9090000A9090000C8
:10007000A9090000A9090000A9090000A9090000B8
:10008000A9090000A9090000A9090000A9090000A8
:10009000A9090000A9090000A9090000A909000098
:1000A000A9090000A9090000A9090000A909000088
:1000B000A9090000A9090000A9090000A909000078
:0800C000A9090000A9090000D4
:1000C80010B5DFF82405046814F1010F08BF0024F7
:1000D80000F04CFBDFF81415002008600120DFF861
:1000E80010150860DFF80C15086000F04CFADFF80E
:1000F8000805006828B1DFF804050068204600F00C
:1001080022F8DFF8FC14DFF8FC2400200860DFF890
:10011800F80401686FF31B4111430160DFF8EC0438
:100128000168C1F30131012907D10168DFF8E02432
:10013800114041F4003202600160DFF8D804006821
:100148000028FAD110BD70B50546DFF8CC040121AE
:100158000160DFF8C81409680029FAD0DFF8C04444
:10016800DFF8C024C02121605368DFF8BC149B0766
:100178005DBF13681B0C43F0F00372230B70002162
:1001880001639668304600F031F83146284600F0A1
:1001980061F8DFF89804816D89B240F20F2291422C
:1001A80014D201680068C1F30361C0F3034001B1D0
:1001B800491E072805D006280EBF0720801C00F01E
:1001C8000F0041EA0010DFF868140870304600F0AC
:1001D800B2F8DFF860140968C9680220884740202F
:1001E80020600120DFF85014086070BD10B5044687
:1001F800DFF848040068C0F3046000F0C0F9211774
:10020800491C08181628A8BF152004DA6FF0090140
:100218008842B8BF084600F01F00DFF8241440F4F5
:10022800F8500880DFF81C04006880074FBF44F0CE
:1002380040640020DFF810140860DFF81004C4F3ED
:10024800C06181F001010160C4F3806181F00101A6
:10025800816010BD70B5054682B0084600F0F0F820
:100268000246DFF8EC43182100F062F800F014F9B8
:1002780080B20090002340F2FF322C21204600F08B
:10028800C4FADFF8D063F068C0F30D021C2100F057
:100298004FF8706800F0FC32142100F049F830681B
:1002A800DFF8B413DFF8B46301EA0002102100F0AC
:1002B8003FF8284600F0FAF802460C2100F038F81A
:1002C800284600F01EF9400040F020003072284611
:1002D80000F020F940F010003072284600F023F9B1
:1002E8000246282100F024F8284600F001F94000D1
:1002F80040F06000F072284600F02FF9C00040F08E
:1003080080003070284600F031F98000DFF8501383
:1003180040F47C400880284600F012F90246082183
:1003280000F006F8DFF83C134FF48000086073BD56
:10033800204600F065BAF8B5810C01F003010129E7
:10034800C94CC84D02D002292AD026E0216A8A0366
:1003580023D44FF480422A606FF08F06C34AD2F844
:10036800023033404E0A06F080063343C1F30336A9
:100378003343C2F80230C1F30326D2F801301B0917
:1003880046EA0313C2F801306FF0E70613683340FA
:1003980001F0E7011943116002E04FF000412960C4
:1003A800B34EB44AB16809075CBF4021A9624FF453
:1003B80000712964800D216AC90C01F0030141F024
:1003C800300110F00300117003D0022826D008D3A2
:1003D80026E00121042000F03BFAA74800F0F4F8D9
:1003E80022E0012000F056FA07463946042000F0C2
:1003F8002FFA042000F04EFAB842FAD1366826F0F7
:100408007F4000F0E1F89D4B1B681B684FF06022AD
:100418000721300E98474FF480602860032100E0E0
:100428000221042000F014FA2068954900F03F00EA
:10043800087047F618009349088093480068F1BD92
:1004480092490968C1F383628303C1F38F2120D4E1
:10045800000400164FF6FF7307E0490804D1194657
:10046800520804BF01220121401C0028F5D40128AC
:100478000FDB490041F00101B1F5803F21BF0121A7
:10048800520042F00102102A24BF0F221946401ED2
:10049800EDE741EA024070477C48016800680002C5
:1004A800C1F3870100F440700843704730B55D4CD4
:1004B80077490A686568ED07C2F30351C2F303433D
:1004C8000AD42468250501EB2571240481F304016D
:1004D80003EB247383F304031B0443EA015193B22F
:1004E8001943222824BF02F080400143084630BD4A
:1004F8000021202803D367480068C0F3015108464B
:1005080070470121222803D363480068C0F30071B3
:10051800084670470121222803D35F480068C0F3CA
:100528004071084670470021202807D359480068C1
:10053800C10C01F44071C0F3845001430846704770
:100548002028564907D35348554A0068810A02EAC9
:10055800003040EA8151084670470021222803D321
:100568004D480068C0F3C061084670470021222842
:1005780003D349480068C0F3455108467047162818
:10058800A8BF20387047234800680028FBD1454899
:10059800454A416812688908890041F0005141F0D4
:1005A8000401520748BF41F001010BD4026812F060
:1005B800030F07D041F003024260026802F0030211
:1005C800032AFAD141607047384982B20A60C0F301
:1005D8000740486001208860354800680028FBD043
:1005E80000208860704700001C130050840460429B
:1005F8005C600C400822044380012843000120432A
:100608008C210840000039014820034004000940BB
:10061800FFFFFCFC0C0068421010094094022243C2
:1006280000600C40AC3F005056620840BC120050BD
:1006380002600840A001001094046042B812005003
:100648006E6208400000094094042A4300002043D9
:1006580000A00C4070130050FFFFFC0041A10C40AB
:10066800DCA10C4040A00C406C1300500A6008400C
:10067800A83F005008A10C40BD378600B401001007
:100688000BB00C4070B00C402C20094050130050A7
:1006980078130050981300508C13005000803F408E
:1006A80000F03F0000400340B03F00503C600C4069
:1006B80084088C432B490A68C2F30F324BF69A130D
:1006C8009A424FF0FF3006D10868000F0B280CBF84
:1006D8000420002070474BF6BE118A4201D1012048
:1006E80070474BF641318A4201D1032070474BF6DF
:1006F80020318A4208BF0220704700001948F8B527
:100708000068050F1848006800F0FF06802E28BF13
:100718000026FFF7CFFF04284FF0FF3406F10A0741
:100728001DD8DFE800F003121A1A1B00012D12D0A1
:10073800032D06D0072D06D0082D08BF06F1160494
:100748000DE014240BE0152409E025B1022D08BFA3
:1007580006F1140403E00A2401E005B93C4660B23E
:10076800F2BD000018130050A010005080B5FFF72C
:10077800A1FF20B9FFF7C2FF162800DB01BDFEE785
:1007880070B504460D46164600F094F8401E8041A8
:10079800C00F1A490A68002AFCD0012E02D0022E86
:1007A80002D003E0257002E0258000E025600122E8
:1007B8000A6000281CBFBDE8704000F07FB870BD1B
:1007C80038B504460D4600F075F8401E8041C00F4C
:1007D8000A490A68002AFCD0012D02D0022D02D055
:1007E80003E0247802E0248800E0246801220A60FB
:1007F80008B100F063F8204632BD000000800C40CC
:100808000B46114604221818BAE710B500EB410050
:10081800102B144600F5007002D3103B001D240C69
:100828000299994041EA0441BDE810400422A7E733
:1008380038B51D460818102D144602D3103D801CEB
:10084800240C0221FFF7BCFF204080B2E84032BDF3
:1008580070B50446E00782B00D46154E05D5A8B21E
:1008680000900023012200F011F8A00705D5A8B2D6
:1008780000900123022200F009F8600705D5ADB207
:10088800009502230C2200F001F873BD00213046C8
:10089800FFF7BBBF0146042907BF1D234FF0C04225
:1008A8001C234FF0805202483421FFF7C1BF0000DB
:1008B80000A00C40EFF3108072B67047EFF3108081
:1008C80062B6704780B508490968496905E080B58E
:1008D800054B1B689B69984700E08847034A00213D
:1008E800116002BD00000000A801001084046042ED
:1008F80080B51EF0EAFD002801D0002001E05FF07D
:10090800FF3002BD80B51EF0FBFD01BD70B50400CF
:100918000D0016003200290020001EF0F5FD002809
:1009280001D0002001E05FF0FF3070BD70B5040019
:100938000D0016003200290020001EF016FE0028C7
:1009480001D0002001E05FF0FF3070BD0120C046FB
:10095800002801D0AFF300800020AFF300801EF024
:100968001FFD00F000F800F001B800000746384607
:1009780000F002F8FBE7000080B5AFF30080024A00
:1009880011001820ABBEFBE72600020080B5FFF778
:1009980097FB00F006F800F002F801BDFEE7FEE75D
:0E09A800FEE7AFF30080AFF30080FFF7CFFF54
:020000040001F9
:10F000004FF0200383F3118872B6024B9D4600F047
:10F0100048B90000FC3600200120DFF874130860B6
:10F0200070470120DFF86C1308607047DFF8681341
:10F030000860704710B50400A4B24FF4805000FB84
:10F0400004F0E1F743FC002801D1002001E05FF06B
:10F05000FF3010BD13B504000422210001A8E1F720
:10F060003AFC002801D1002001E05FF0FF3016BD1E
:10F0700070B504000D0016002A0031002000E1F7F1
:10F0800049FC70BD70B504000D0016002A00310067
:10F090002000E1F74FFC70BD2DE9F84304000D009E
:10F0A0001600370BA819401E000B8046ED1CAD085A
:10F0B00016F0030F02D05FF0FF3038E0B84502D3FE
:10F0C000B8F11F0F02D35FF0FF3030E0B8452DD309
:10F0D0004FF48069474501D128008146380080B24D
:10F0E000FFF7A8FF002802D05FF0FF301FE048467E
:10F0F000B0F1010980B2002816D004226946200030
:10F10000FFF7B6FF002802D05FF0FF300FE0009954
:10F110003000FFF79FFF002802D05FF0FF3006E0CD
:10F12000241D361D6D1EE2E77F1CCFE70020BDE8E1
:10F13000F2832DE9F14F82B00C0000254FF4805985
:10F140009DF808004FF4805101FB00FA934F4A46A6
:10F150005146380000F032F99DF808008DF80000A3
:10F160008F48C0884FF4806190FBF1F88C48C088CC
:10F17000A4B2042194FBF1F108185FFA88F84FF467
:10F18000806101FB180080B287009DF8000010EB41
:10F1900008089DF80000060040463100C0B2C9B220
:10F1A00088423FD330009DF80010C0B2884202D19F
:10F1B00014F1040901E05FF000091FFA89F9B9F5BB
:10F1C000805F18DA30004146C0B2C9B2884205D328
:10F1D0004846390080B289B288420CD26F481FFA83
:10F1E00089F910F80910280080B200F03FF80500F6
:10F1F00019F10109E1E730004146C0B2C9B28842C5
:10F200000ED04FF4805AF6B2701C4FF48051484330
:10F210000190DFF888B152460199584600F0CEF8C7
:10F22000761CB9E70021280080B200F01FF8050025
:10F230000021280080B200F019F80500280080B2F3
:10F24000BDE8FE8F70B504000D001600290089B2DC
:10F250002000C0B2FFF76DFF318880B2814203D138
:10F2600030887080012000E0002070BD30B441F291
:10F27000210200242300DBB2082B0FDAC0F3C034D4
:10F2800014F0010440000D0601D550F00100E4B275
:10F29000002C00D050405B1C4900ECE780B230BC31
:10F2A000704770B504000D001600E1F725FB10F162
:10F2B000010F13D0320029002000FFF7EDFEE1F727
:10F2C00025FB042037490860FFF7ABFEFFF7A4FEDB
:10F2D0000020FFF7ABFEE1F7F5FAFEE770BD70B571
:10F2E000E1F70AFB10F1010F51D05FF4F0200400A8
:10F2F000B4F5F22F49D8102229492000FFF7B8FEB3
:10F30000274800884FF6FF7188423BD02448008888
:10F31000002837D02248008821494988884231D1C5
:10F320001F48C07BFF282DD11D48807B012802D1BA
:10F330000020050008E01A48807B022803D15FF412
:10F340000030050000E01DE0154880898200144867
:10F35000C08881002800FFF79FFE11488089800047
:10F36000000B06000E4A00213000C0B2FFF76AFF12
:10F370000028D9D080200A49C873102208492000EB
:10F38000FFF780FE14F58054B2E7E1F7BFFA70BDD5
:10F390000001004304010043000008400000002079
:10F3A000001000201021084080B5FFF798FF41F2BF
:10F3B00010004168D0F800D0084701BD62B38B0748
:10F3C00008D0521E11F8013B00F8013B00F02480E8
:10F3D0008B07F6D1830740F0208000BF103A07D397
:10F3E00030B4B1E83810103AA0E83810F9D230BC87
:10F3F000530724BFB1E80810A0E8081044BF51F833
:10F40000043B40F8043BD20724BF31F8022B20F81C
:10F41000022B44BF0B7803707047083A07D3B1E85A
:10F420000810083A40F8043B40F804CBF7D25307E1
:10F43000E4E70506012181402D4A11607047012152
:10F4400081402C4A1160704780B50E20FFF7F7FF0E
:10F4500001BD80B50E20FFF7EDFF01BD10B582B0F4
:10F46000254800788DF80100FFF7EEFF00F020F945
:10F47000FFF7EFFFFFF7E8FF01210DF1010000F0BA
:10F48000E0F80121684600F0F4F80400FFF7E1FF1E
:10F49000002C02D07FF0010004E09DF80000C007BE
:10F4A000E8D4002016BD10B582B0144800788DF85D
:10F4B0000000FFF7C9FF0121684600F0C2F8040010
:10F4C000FFF7C7FF002C02D07FF0020000E0002011
:10F4D00016BD80B511210A4800F0F5F80E20094943
:10F4E0000968C96B8847FFF7B4FF012002BD00001F
:10F4F00090200240A020024032F4010033F40100C9
:10F5000000093D00B401001080B500F032F901BDE2
:10F51000F8B504000D001600FFF7A0FF0700002F4C
:10F5200001D0002024E003208DF80000200C8DF88D
:10F530000100200A8DF8020020008DF80300FFF77B
:10F5400083FF0421684600F07CF8002803D0FFF711
:10F5500080FF00200CE02900300000F08AF807004E
:10F56000FFF777FF002F01D1012000E00020C0B29B
:10F57000F2BD2DE9F04182B004000D001600002D0F
:10F580003FD0FFF76BFF0700002F01D0002039E0CC
:10F59000FFF789FF0700002F01D0002032E004F0C0
:10F5A000FF00D0F580708046454500D2A846022075
:10F5B0008DF80000200C8DF80100200A8DF8020063
:10F5C00020008DF8030018EB0404B5EB0805FFF7E5
:10F5D0003BFF0421684600F034F8002803D0FFF711
:10F5E00038FF00200EE04146300000F02AF80028E5
:10F5F00003D0FFF72EFF002004E04644FFF729FF69
:10F60000BDE70120BDE8F681011D096851F0020146
:10F61000021D1160704710F1140212688A4310F144
:10F6200014031A60704710F1200211607047012026
:10F6300063490860704763480068400810F00100A3
:10F64000704738B504000D00002D10D021785FF010
:10F6500080405D4A12685268904769465FF080407A
:10F66000594A1268D26890476D1E641CECE700206E
:10F6700032BD38B504000D00002D17D000215FF019
:10F680008040514A126892689047002802D15FF08A
:10F69000FF300CE069465FF080404B4A1268D26848
:10F6A0009047009820706D1E641CE5E7002032BD75
:10F6B00080B569465FF08040434A126812699047FE
:10F6C0000028F6D101BD7CB504000D0006203F499D
:10F6D00009684969884706203C490968496B884799
:10F6E0000128F8D14FF4A06038490968C9698847F2
:10F6F000FFF79DFFFFF79FFF0028FBD04FF48070BE
:10F7000032490968C9698847FFF791FFFFF793FFFE
:10F710000028FBD00F215FF08040FFF77CFF032122
:10F720005FF08040FFF77FFF0820019000940023E6
:10F73000032227495FF08040234E36683668B04781
:10F7400000955FF0FF33132212215FF08040214EBD
:10F750003668766CB0475FF08040FFF755FF69462A
:10F760005FF08040184A1268126990470028F6D16D
:10F7700073BD80B54FF4807014490968096A8847E1
:10F78000FFF755FFFFF757FF0028FBD04FF4A060AD
:10F790000E490968096A8847FFF749FFFFF74BFFE1
:10F7A0000028FBD006200949096889698847062096
:10F7B00006490968496B88470228F8D101BD000055
:10F7C0002820086028200840C4010010B80100105B
:08F7D000006CDC02B401001022
:10FFA80000008001100082FFFDFF58003AFF3FF378
:10FFB800FFFFFFFFFFFFFFFFFFFFFFFFFFFFFFFF49
:10FFC800FFFFFFFFFFFFFFFFFFFFFFFFFFFFFFFF39
:10FFD800FFFFFF00FFFFFFFF00FFFFFFC500C5FF9A
:10FFE800000000FF00000000FFFFFFFFFFFFFFFF12
:08FFF800FFFFFFFFFFFFFFFF09
:04000005000009AB43
:00000001FF
