:1000000048430020E185000001CA011001CA011027
:1000100001CA011001CA011001CA011001CA011070
:1000200001CA011001CA011001CA011001CA011060
:0C00300001CA011001CA01103FCA0110F2
:100100003C0000000000000000000000340100007E
:1001100000000000000000000100000000000000DE
:1001200000000000000000000000000001000000CE
:0C013000000000000800000000000000BB
:10013C003400000000000000000000006801000016
:10014C0000000000000000000100000000000000A2
:10015C00010000000000000000000000080000008A
:04016C00000000008F
:1001700030000000000000000000000098010000B6
:10018000040000000000000001000000FFFFFFFF6E
:10019000FF00000001000000080000000000000057
:1001A0002C0000000000000000000000C40100005E
:1001B000040000000000000001000000FFFFFFFF3E
:0C01C000FFFFFFFF08000000000000002F
:1001CC0034050000E401000099A1011095A701106D
:1001DC00A5C2011009B2011045B8011000000000C1
:0801EC00000000002F000000DC
:1001F40028000000000000000000000014020000BD
:100204000000000000000000FFFFFFFF00000000EE
:080214000800000000000000DA
:10021C00300500003002000069C201106DC10110F0
:10022C001FC2011095BA0110000000000000000070
:04023C002D00000091
:10024000300500005402000075C20110A9B601106B
:100250009DBF011049B60110000000000000000021
:040260002E0000006C
:1002640024000000000000000000000080020000E4
:100274000000000000000000000000000800000072
:040284000000000076
:10028800240000000000000000000000A40200009C
:10029800000000000000000000000000080000004E
:0402A8000000000052
:1002AC00240000000000000000000000C802000054
:1002BC000000000001000000000000000800000029
:0402CC00000000002E
:1002D000000000001C0900200400000000000000D5
:1002E000000000002000000070010000300000004D
:1002F0001C0200003C090020040000000000000077
:10030000000000000C000000300400001800000095
:10031000400200004409002004000000000000002A
:100320000000000024000000480400001800000045
:10033000000000008409002004000000000000000C
:100340000000000010000000A00100002C000000D0
:10035000CC0100008C090020040000000000000017
:1003600000000000200000006402000024000000E3
:10037000FFFFFFFFAC0900200400000000000000A8
:100380000000000028000000880200002400000097
:10039000FFFFFFFFD4090020040000000000000060
:1003A00000000000580000003C0100003400000084
:1003B000FFFFFFFFDC090020040000000000000038
:1003C00000000000100000006004000018000000A1
:1003D000FFFFFFFFE4090020040000000000000010
:1003E000000000001C000000AC020000240000001F
:1003F000FFFFFFFFEC0900200400000000000000E8
:100400000000000038000000F40100002800000097
:10041000FFFFFFFF540A002004000000000000005E
:100420000000000054000000000100003C0000003B
:100430001800000000000000000000004004000060
:080440000800000000000000AC
:100448001800000000000000000000005804000030
:08045800080000000000000094
:100460001800000000000000000000007004000000
:0804700008000000000000007C
:080478000100000048860000AD
:040484000100000073
:0404880000000E0062
:04048C0000000F005D
:040490003200000036
:040494000100000063
:040498002409002013
:04049C00000200005A
:0404A0000000000058
:0404A40001CA011078
:0404A8000000000050
:0404AC00000000004C
:0404B0000800000040
:0404B4000000230021
:0404B8004C090020CB
:0404BC00010000003B
:0404C000940900207B
:0404C400080000002C
:0404C8000000000030
:0404CC00000000002C
:0404D0000000000028
:0404D4000000000024
:0404D8000000000020
:0404DC00010000001B
:0404E000F4090020FB
:0404E400060000000E
:0404E800010000000F
:0404EC005C0A002086
:0404F0000000000008
:0404F4000000000004
:0404F80000020000FE
:0404FC0000000000FC
:020502002900CE
:020504000100F4
:020506002500CE
:020508002D00C4
:02050A002E00C1
:02050C002F00BE
:02050E000100EA
:0105100001E9
:08051400040000000C86000049
:08051C000000000000000000D7
:0405240000000100D2
:0405280000000300CC
:04052C0087C401106F
:04053000380500008A
:040534003805000086
:0405380000000000BF
:04053C00900000002B
:040540009000000027
:0405440000000000B3
:0405480094090020F2
:04054C00CD7E000060
:040550002000000087
:04055400F885000026
:04055800008400001B
:04055C000DC30110BA
:040560001B1A000062
:040564001D1A00005C
:0405680099C801101D
:04056C009BC8011017
:040570000000000087
:04057400C61A0000A3
:04057800D08200002D
:04057C00E882000011
:04058000B88200003D
:0205840008006D
:0205860009006A
:02058800010070
:02058A0000006F
:01058C00016D
:040590000000000067
:040594000000000063
:04059800000000005F
:04059C00000000005B
:0405A0005F190000DF
:0405A4007F190000BB
:0405A80083180000B4
:0405AC00A919000089
:0405B000CB18000064
:0405B400A11800008A
:0405B800FD1800002A
:0405BC00D31900004F
:0405C000457E000074
:0405C4008D7F000027
:0405C800917F00001F
:0405CC000800000023
:0405D0002400000003
:0405D400180000000B
:0405D80028000000F7
:0405DC0020000000FB
:0405E0003C000000DB
:0405E4000C00000007
:0405E80034000000DB
:1005EC00DFF800F049C10110DFF800F019C201106A
:1005FC00DFF800F041AC0110DFF800F0CDA00110E5
:10060C00DFF800F085C10110DFF800F0C1C2011065
:10061C00DFF800F0E3BF0110DFF800F0C1C10110FA
:10062C00DFF800F009B70110DFF800F03DC1011050
:10063C00DFF800F029AF0110DFF800F0CDC1011098
:10064C00DFF800F085B00110DFF800F0DDB201102A
:10065C00DFF800F079B50110DFF800F0D5C001101B
:10066C00DFF800F0E1B5011020B1082328220021A9
:10067C00FFF7E2BF704720B1082330220021FFF7BB
:10068C00D3BF704738B50546FFF7AAFF2C680CB1ED
:10069C0021682960FFF7A8FF204632BD70B50546DA
:1006AC000E462C68002030601CB9FFF799FF2E60B5
:1006BC000DE0FFF795FF00E0246821680029FBD1CD
:1006CC00B44203D1FFF790FF002070BD2660FFF706
:1006DC008BFF012070BD10B501460022DFF8C40B62
:1006EC0000EB4210C37F1C0603D5B0F91C308B42C3
:1006FC0003D0521C082AF1DB002010BDF8B500F025
:10070C0016FFDFF8041A0546C87DE8B1401EC8750F
:10071C00C0B2C8B9DFF8F469082100F012F99CB135
:10072C00B06B703001F03AF8B16BDFF8F02BC868A1
:10073C00116806F1EC07241AB4FBF1F13846FFF707
:10074C0063FF3846FFF764FF2846BDE8F240FFF729
:10075C004BBF10B50446207B00F00F00022802BFEF
:10076C00DFF8A419087D002818D100F0ABFC014675
:10077C00A0688008A0EB91006FF0704188420DDA00
:10078C00B0F1704FBCBFDFF888190818DFF87C197E
:10079C008A6BD16801F57A71814200DB002010BDB3
:1007AC0038B5DFF87019DFF870090C68DFF85C59A0
:1007BC000440E0430860A00606D54868810603D5CE
:1007CC004FF4005100F070FD14F4602F0BD0A869A9
:1007DC0004F460240443AC6105F19C00BDE8344092
:1007EC00002101F001B831BD70B5FFF7F9FEDFF85B
:1007FC001C590446A86910F4602F26D0AE69F60186
:10080C00360EF00748BF002606D4B00748BF0126B5
:10081C0002D4700748BF0226701D40B200F0EFFEF4
:10082C00A969012206F1110082409143A961204679
:10083C00FFF7DAFE05EB860084684CB1686800228D
:10084C004FF00063711DA04702E02046FFF7CCFE7D
:10085C00A86920B1002105F19C0000F0C5FFE87FDC
:10086C0081070CD56C6934B1686800224FF00043E5
:10087C006FF00101A047E87F00F0FD00E87770BD44
:10088C0070B501F0C9F8DFF88468DFF8D85A810731
:10089C00B16A1DD4D1E90423104007D0F1628A69F2
:1008AC00104388614FF4804100F04BF8B06A002887
:1008BC0046D1746A002C43D0E068B16B884222D0D8
:1008CC0006F14C00BDE870404FF4805100F08CBF35
:1008DC0009B9B06AEAE70022B262D1E904238C6953
:1008EC00104040F0020020438861686990436861C1
:1008FC00E8689843E86006F13000FFF7CFFE02216C
:10090C0000F01FF8E5E7A068FFF723FFB06418B10B
:10091C00B06CBDE87040F1E6D4E904016A690243A9
:10092C006A610020EA680A43EA60E861A06828600E
:10093C00E8690028FCD006F12400FFF7A3FEB4629E
:10094C0070BD06F14C0000F04FBF0020D6E6F8B5A4
:10095C00074614463E6E1D4606B1B047A00708D4A4
:10096C00D7E91601204029400022914208BF90424D
:10097C0007D0C7E91A4507F13800BDE8F240FFF788
:10098C0037BEF1BDFEE780B500F028FFDFF87C270D
:10099C000146906BD26BBDE80840104710B5DFF8EC
:1009AC006C470FF23D01E06B884202D101F090F8E8
:1009BC00206404F14C00BDE81040042100F014BF89
:1009CC0080B501F029F8DFF8A019084207D0BDE87E
:1009DC0004404FF00051DFF8840B00F005BF01BD5F
:1009EC0038B5042952D1DFF82457686AA96B08B1CD
:1009FC00C16803E0E87FC20748BF6968A96308467D
:100A0C00DFF8682941680B781360126809788A420C
:100A1C001CBF8469002C05D000224FF000736FF0CE
:100A2C00FF01A047022001F097F9112001F0A9F96C
:100A3C00DFF8D4060121C176AA6B117C002919BFFD
:100A4C00407E00280E2001F09CF9A86BDFF81429D9
:100A5C0040688168002904BFC068002804D00021C8
:100A6C00D161DFF86C0A106040F2FF70DFF8641A95
:100A7C00086000219161DFF8F00850610FF211005D
:100A8C00E8631920BDE83240FFF7DEBD31BD000040
:100A9C00F0B50446880085B040F18780DFF86C56CD
:100AAC00A86B4068406800B18047A86BDFF8B46859
:100ABC0042689068002804BFD16800290DD000F06E
:100ACC0076F8906800B18047A86B4068C06800B1A8
:100ADC008047DFF88C0A00F0A7FF0020F061DFF8F8
:100AEC00840A3060012000F0E7FF0FF21D10DFF8E0
:100AFC001816E86340F60A02002048800023087BA1
:100B0C000A8000F0F00008734B60487B00F0F000A6
:100B1C0040F001004873A7687B80786820B1038897
:100B2C00934218BF0746F8D1796040F60302787BF0
:100B3C0000F0F0007873686A8068008890421CBFEF
:100B4C0040F60402904217D0208CA8B10022628497
:100B5C00626204F12C004378027803F0F00302F097
:100B6C00F00243F001030270437004F1200048606E
:100B7C00487B00F0F00048736946A06800F07CFFE9
:100B8C00684600F088FFA06800F084FF00F00FF8C2
:100B9C00012001F0B5FB012805D0787B00F09BF912
:100BAC000FF21900E863A068306005B0F0BDF06981
:100BBC000028FCD00021F16170470000DFF82C2ADE
:100BCC00114200D17047012010B501F099FB0128AA
:100BDC00DFF8384508D10FF23101DFF82C05E1635D
:100BEC00DFF88017086010BDDFF8540A0268EC3497
:100BFC003221B1FBF2F12046FFF706FD2046BDE89D
:100C0C001040FFF705BD00002DE9F04706460C46E5
:100C1C00600484B0DFF8F45417D5FFF7E1FCEE6AFA
:100C2C00B769FFF7E1FCB8070CD45EB1B069B84303
:100C3C00B061706830B1B6F91C10F06876683A464D
:100C4C000023B04724F480441EE1A007DFF8B874F9
:100C5C0061D52E6B002E56D0B168202000291CBF08
:100C6C00C2B2002A00F01B810A8840F603039A42A4
:100C7C001FBF40F604039A424968401EEED109E1B9
:100C8C0000224FF08043B6F91C10F068D6F804C06F
:100C9C00E047FFF7A5FC8046E88E401CC0F30B0034
:100CAC00E886286BC17F01F07F01C17705F1300028
:100CBC00FFF7E8FC00F0FCFAB5F93600F26802F137
:100CCC009403B3F90010884204BF397D00291AD16E
:100CDC00987808B9106820B900209870FFF70EFDBD
:100CEC0011E0A96B0B6813F1010F0CD0DFF82C7617
:100CFC003968B0FBF1F102F17000FFF785FCF06888
:100D0C007030FFF785FC286B002824F0020401D01A
:100D1C0044F00204B8E0A00005F1800840F609098F
:100D2C0057D5286CB8B1042001F0EAFA98B100F05C
:100D3C00CFFE296C814228BF401E401A000B00F5E3
:100D4C008D70F06040F2D761A0F2EE20884224BF93
:100D5C0040F6C410F06000202864D6F818C0BCF12E
:100D6C00000F0DD0787B10F00F0F04BF708C48452E
:100D7C0006D100224FF000736FF480713046E047CB
:100D8C000022DFF8C018404600F044FDB87E50B198
:100D9C000221ADF80010684600F046FEBDF80800D0
:100DAC00A8830020B876012085F820000021F87D6A
:100DBC00F976401CF875192000F02FFD77692FB1DA
:100DCC0000224FF0806300213046B84724F00054D5
:100DDC005AE0B87F24F0080A20B1210743D500203F
:100DEC00B8773EE020073ED5002085F82000012092
:100DFC003877002000F060FE0FF2E900DFF84818A9
:100E0C00DFF8D466E8630022404600F003FD797EEB
:100E1C0009B1B87E10B1012179760FE0A86CE0B170
:100E2C0000F056FE296C6A6C401A02EB10326A64B0
:100E3C00A86CB2EBC01F10D3002068640021787B33
:100E4C00A7F8009000F047F8796000207880387B94
:100E5C0000F0F0003873376003E04FF0005100F001
:100E6C0023FA544610E0A0040ED5AE6A002E1CBF27
:100E7C007068002806D0B6F91C10F068766800225D
:100E8C002023B04724F4005414B1214600F00CFA8E
:100E9C00BDE8FF87F0681822203001F0F7FAB2693C
:100EAC000020B061706800283FF4F3AEF07F00239F
:100EBC0000F00700012842F0020208D002283FF49B
:100ECC00DFAE042804BF00224FF08053DBE6002283
:100EDC004FF00053D7E600F0F00040F001007873BB
:100EEC007047000070B50446880028D500F0A9FDB5
:100EFC00864DDFF85807844EE863707D18B904F10D
:100F0C003800FFF775FBDFF8CC15002008600220D5
:100F1C0000F0B8FE112000F0C9FE207C10B90E20A4
:100F2C0000F0C4FE0020B083307E40B105F14C00CF
:100F3C00002131760421BDE8704000F055BC70BD35
:100F4C0030B58DB000F01FFEDFF80407DFF8044762
:100F5C0001686E4D41F00201016001A8FFF784FBAE
:100F6C00A078DFF8F4160790002301AA05F14C00D5
:100F7C00FFF766FB01A8FFF77EFB2178DFF8C82698
:100F8C0009910020ADF81C00009001AB192105F16E
:100F9C008000FFF74DFB01A8FFF766FBE078DFF858
:100FAC00BC160790002301AA05F19C00FFF748FB33
:100FBC0001A8FFF760FB0120ADF81C000021607850
:100FCC000990009101ABDFF898261A2105F1D000A9
:100FDC00FFF72EFB00230022DFF8881605F1EC004A
:100FEC00FFF736FBDFF86406E86301214FF6FF706C
:100FFC00A8830DB0DFF8700681760021E977417681
:10100C00C17681838177296430BD2DE9F0413E4E54
:10101C008EB00746707D884615461C4618B9FFF7FA
:10102C008FFF01217175B8F1000F1CBFC7F8048048
:10103C00002D45D0BD60FFF7D3FAB17D00293DD11D
:10104C000122B275FFF7D0FA34B909A80FF2486142
:10105C00142201F01BFA09AC206838606068F86053
:10106C00207A3874E0687861206900B1B861782121
:10107C0007F1200001F04EFA0823242200216846D3
:10108C00FFF7CAFA01208DF818006A46002107F113
:10109C003800FFF7C5FA0823242200216846FFF721
:1010AC00AFFA06976B460022DFF8C01507F1700007
:1010BC00FFF7CEFA38460EB0BDE8F081FFF794FA90
:1010CC000020F8E770B5FFF78BFA104A92F8201061
:1010DC0019B1DFF8A025146884E2FFF785FA00F057
:1010EC00F7FC10F50030DFF89025074E41F10001B8
:1010FC00A2FB004502FB015531690020221845EB8B
:10110C000103184670BD00006C2200205C210020F9
:10111C00F6FFFF1F0810044020000E002DE9F84FC9
:10112C000446894692469B46DFF84455FFF758FA29
:10113C00B5F934108046B5F93600091AC1F30B0124
:10114C0008296FF0010650DAA88E5649401CC0F3EE
:10115C000B00A886B5F93400ADF800000020420160
:10116C0001F11F039B5C1F0640F19980401CC0B22B
:10117C000828F4DB002704F1700000F00FFBC7F81F
:10118C00089087F81EA0C7F804B02021BDF8000015
:10119C00B883FC60DDE90AABDFF8E0040AEA000082
:1011AC000BEA0101C7E9040104F194090020F87766
:1011BC0040F6FF74686A0028394605F124000CD00B
:1011CC00FFF76CFA60B1BDF80000A9F80000F87FD9
:1011DC0040F08000F877404654E0FFF75FFA40B9E2
:1011EC00A88E2418C4F30B04AC8600F061F83046CA
:1011FC0053E0BDF80000DFF87064A9F8000000218E
:10120C00F87F40F08000F87789F80210717F002990
:10121C001CBF95F82000002807D000207077B0760E
:10122C000121F07DB177401CF07500F041F8A96AFE
:10123C00002930D195F8200018B1192000F0EDFAF2
:10124C0029E0F07E38BBFFF7CBF90446307F10B1B4
:10125C000121317615E0B868FFF77BFAA864A0B1DC
:10126C00A96CAA6BDFF8D833D0681A6805F1EC06C4
:10127C00091AB1FBF2F13046FFF7C6F93046FFF719
:10128C00C7F92046FFF7B0F905E02046FFF7ACF9A7
:10129C00042100F009F8BDF90000BDE8F28F8F18A9
:1012AC0069E70000000C002005F14C0000F09CBA2E
:1012BC004046FFF799B92DE9F04105460C46164614
:1012CC001F46FFF7C9F980462046FFF704FA0400D1
:1012DC0003D14046FFF7C4F90AE0E07F10F0070F96
:1012EC0009D04046FFF7BCF9E07F10F0070FFBD1A7
:1012FC000220002110E06168DFF88403814202D0F3
:10130C00616829666060C5E916674046FFF7A8F971
:10131C0000F006F8D5E91A01BDE8F081408600001E
:10132C004FF0FF3105F13800FFF766B9DCB5DDE9A8
:10133C0006670446CDE90067180008BFDFF84033A4
:10134C002046FFF7EBFE002803D500204FF00041AC
:10135C00DCBD0146204602B0BDE8D04002224FF071
:10136C00E043A8E70010044002000040D0210840F0
:10137C0001E042F002022DE9F843DFF8F452686A0A
:10138C0000900F4603261446FFF72AF917F1010FB8
:10139C0004F00108814609D1A86A002819BFA96A7E
:1013AC00B1F91C70EF8E7F1C0020E87738B2FFF784
:1013BC0092F901007BD0A86A814204F0020426D184
:1013CC001CB1686A009000226A620122C87F02FA8E
:1013DC0008F21043C877FFF73FF90646B8F1000F43
:1013EC0014BFDFF8A002DFF8A00200F01DFB00F034
:1013FC0081F824B906E000F071F800F076F8009856
:10140C000028F8D13046FFF72BF9832651E00098DD
:10141C00884205F1EC0316D1184600F0BFF9002CF8
:10142C0012BF0020686A0068686200F063F80098D8
:10143C0000F054F800F059F8009828B3002CF6D1BD
:10144C0022E0126800920098002835D002461068FD
:10145C008842F6D1184600F0A1F9009800681CB13A
:10146C00009A0021116004E00168009A11600022CA
:10147C000260009003E000F031F800F036F80098BC
:10148C000028F8D100F036F8832617E0087F80B9E1
:10149C00DFF8F811E96305F14C00022100F0A4F922
:1014AC0095F8200028B9DFF8A411E96301E000F0F9
:1014BC0021F83046BDE8F28300F01CF8DFF8A811E3
:1014CC00C87E0028E2D00221FFF7EEFEF1E7000013
:1014DC00510007060000046000100440C17F41F079
:1014EC000401C1776846FFF7CDB8014605F130001D
:1014FC00FFF7D4B84846FFF777B838B500F017F8BF
:10150C005B49054691F8200068B1204600F08CFA42
:10151C00044600F045F804F0FF04012C01D18120B1
:10152C0032BD022032BD00F03BF8012032BD044632
:10153C00FFF756B80A464E498B6B984201D00320F0
:10154C00704706E00A464A498B6B984201D003204B
:10155C00704700211046D0E700000000A8210020B1
:10156C000100070601010E0470B541498A6B9042D7
:10157C006FF07F0412D191F8200078B1FFF730F8AA
:10158C000546434800F050FA064600F009F806F00C
:10159C00FF00012802D13602301670BD204670BD06
:1015AC002846FFF721B870B50E461546FFF718F818
:1015BC0083242F4A1EB1022E0FD006D311E0916A5C
:1015CC0049B1926A918B29800CE0274B997E11B915
:1015DC00928B2A8006E0802404E092F82010297077
:1015EC0000E00324FFF700F8204670BD0400002043
:1015FC0080B50846FFF76FF800B1806802BD38B5BA
:10160C00FFF795FF1A4AD17F4B0702D5937F9C4277
:10161C0012D00123958B03FA04F10D431D499583D8
:10162C000C340A6803FA04F422EA04040C60096816
:10163C0011B90D4B00221A75BDE83240FEF7D4BF2C
:10164C00408600008D080000CD090000ED09000067
:10165C00002009402883000093090000F5070000D2
:10166C00AD070000A90900006C22002057090000FA
:10167C005C2100200430044000093D00F1EFFF9F85
:10168C005B0900000100020401000104150C0000BC
:10169C00010003040C100440FFFFFFFFC40900000D
:1016AC00010000000000000091090000DFF800F0CC
:1016BC0021B30110DFF800F095C00110DFF800F045
:1016CC000DA80110DFF800F0BDBE0110FEE7DFF839
:1016DC000801007D704772E079E070B5FFF7FBFF01
:1016EC00DFF800510446A8680021FFF7E3FF064627
:1016FC006869861BA869B04238BF00262046FFF7F0
:10170C00EBFF304670BD2DE9F041FFF7E4FFDFF849
:10171C00D4700646B8680121FFF7CCFF0121B983CC
:10172C000021F9837C693A683968051B401AA21AB2
:10173C00904203D20020B88330462CE03046FFF7AD
:10174C00CBFF002606E0341921460120FFF7B6FF37
:10175C00AD1B0646B542F6D2FFF7BDFF8046F88BAF
:10176C00012804D121460020FFF7A8FF0646B869DE
:10177C0016F1010F08BF054603D0751BA84238BFF0
:10178C00054629192846FFF79DFF012038840020C3
:10179C00B8833C604046BDE8F0419DE70021818262
:1017AC00DFF84010C0684A69904204D1DFF8582035
:1017BC001068FEF72DBF7047808A70477047DFF8BE
:1017CC004C100A68EFF3118082F31188704780F394
:1017DC0011887047F3E7FAE7A4010020DFF8300026
:1017EC00806870477801002038B504460D46FFF735
:1017FC00F1FF616A0D436562FFF7EDFF2046BDE81E
:10180C003240FFF753BF0000448600003C860000C6
:10181C00C8010020816042607047102804D3DFF8B3
:10182C000C101038C1F8000F7047000000E000E009
:10183C0000F074BEFFF7C3BFFFF7C9BFDFF89C1100
:10184C00C20744BF01220A60820744BF4FF4807272
:10185C000A60400744BF4FF4803008607047DFF8DF
:10186C008021C30748BF1160830748BF5160400700
:10187C0048BF9160704710B504460020D4E90A2394
:10188C0047F6906101F044F90123994228BF4FF0CB
:10189C00FF3010BD10B50C4600F010F9011D201AD8
:1018AC00B0F1004F05D8081BB0F1004F38BF8C4287
:1018BC0000D20C462146BDE810400120CFE72DE9AF
:1018CC00F04180460A46D8E90A01D8E90C45A0FB4C
:1018DC00026701FB0277A6196F41340C002244EA1F
:1018EC0007414046FFF7D6FFC8E90E67BDE8F08117
:1018FC00F8B50646FFF79EFF0446DFF8E850DFF820
:10190C00E8700120E861FFF799FFF96A0A6A142070
:10191C0090473169B1F5802F34BF0421090C0120A7
:10192C00FFF79DFF3A681368232100209847DFF8E2
:10193C00BC1001200860DFF8BC00016821F4E02134
:10194C0041F480310160012028602046BDE8F2405E
:10195C0072E700F0BDB810B5DFF894104C6800F0D9
:10196C0006F86069A169BDE8104008470000012035
:10197C0064E7F8B504460D46FFF7EBFFD4E90A67B8
:10198C0032463B4601F0C4F83DB1A6FB002306FBF2
:10199C00013307FB0033C4E90C23F2BD10B5DFF8AB
:1019AC004400DFF85440002101600121C161216035
:1019BC002068FFF7DCFFDFF848100A68136A142070
:1019CC009847206810BD80B5DFF830100868FFF725
:1019DC00C0FF000C40EA014002BD00000420094099
:1019EC001820094000002443840100108002244385
:1019FC00E4010020002009402C200940EC010020CB
:101A0C00B0010010DFF80C00C08870470000FEE742
:101A1C0070470000F001002021490868C2430A60A9
:101A2C000A680242FAD170471E490A68002AFCD1A2
:101A3C00CA610860C8690028FCD00020C8614868E9
:101A4C007047194801686FF00202114041F40071AF
:101A5C00016003211548816041F23001416101218F
:101A6C00C160502141610121C1604FF4CA614161E3
:101A7C000121C160016070470D4802680A608268EC
:101A8C004A60C2688A60406B20F0784040F0805019
:101A9C00C8607047704701461022064800F0E6BC4B
:101AAC001010044000100440000004600041044089
:101ABC004C130050180000217047000009480168C1
:101ACC00426803689942FAD1100C40EA0140704711
:101ADC0010B5044A136850681468A3421946F9D12A
:101AEC0010BD000008200940DFF800F0F5C001101F
:101AFC00DFF800F049BA011020B10823242200219C
:101B0C00FEF77EBD704780B50120009009234FF48D
:101B1C0000720021DFF8080701F0B7F801BD80B5AD
:101B2C00002301223421DFF8F80601F0C1F800B1DE
:101B3C000120C0B202BDDFF8EC0680687047DFF808
:101B4C00E416401890F8ED0070470022022904D1E9
:101B5C00012806D140F2EE2203E0012808BF4FF421
:101B6C007A7210467047DFF8BC06D0F8DC0070477C
:101B7C00DFF8B00690F8E61021B1D0F80C010100A6
:101B8C0018BF004770472DE9F041DFF8988608F13F
:101B9C00E1058AB0A879002861D10120A871DFF88D
:101BAC008866DFF88876307B68717068C8F80C013D
:101BBC0001A8FFF7A1FF00200690ADF814000790D4
:101BCC0001AB00220FF2F54108F10C00FEF740FDCD
:101BDC0001AB00220FF2A15108F13000FEF738FDE5
:101BEC0001AB00220FF2D94108F15400FEF730FD91
:101BFC00B16801208847DFF8380600787868C0F3B0
:101C0C008154707B20B1032C02D10120287003E099
:101C1C00032C18BF022C16D1022000F09DF8032CC7
:101C2C00DFF810160CBF4FF47A7042F2107009688E
:101C3C00B0FBF1F108F15400FEF7E6FC08F154009A
:101C4C00FEF7E6FC05E0012C03D100F063FAFFF788
:101C5C005AFF386840075CBF002000F07DF80AB0DE
:101C6C00BDE8F08110B508B1140001D1022010BDFF
:101C7C008160C26003610146DFF8A80501F032F80B
:101C8C00002010BD10B50446FEF7AAFCDFF8941531
:101C9C00621892F8E8305B1E82F8E830DBB223B9A8
:101CAC008A680123A3409A438A6066E02DE9F041DB
:101CBC000546FEF795FC8046DFF86815681890F825
:101CCC00ED20521E80F8ED20D2B2002A3FD10FF247
:101CDC00A050DFF8644500EB85052E786F88300640
:101CEC0015D52168096A384688472168896A3846BB
:101CFC0088472168096B38468847DFF84015012072
:101D0C000860DFF83C0500688007FAD512E0700621
:101D1C0006D501EB87010020D1F80011884709E0B6
:101D2C0021688969384688472168496B3846884755
:101D3C000228F9D106F03F003F2818BFFFF7B6FF85
:101D4C00687800F03F003F2818BFFFF7AFFF404610
:101D5C00BDE8F041FEF748BC10B50446FEF740FC68
:101D6C00DFF8C0148A680123A3401A438A60611803
:101D7C0091F8E820521C81F8E820BDE81040FEF7ED
:101D8C0033BCF8B50646FEF72BFC0446DFF894543A
:101D9C00701990F8ED104A1C002980F8ED2039D10B
:101DAC000FF2CC4000EB8607387800F03F003F285C
:101DBC0018BFFFF7E6FF787800F03F003F2818BF08
:101DCC00FFF7DFFF7E883878DFF86C7401060ED5DC
:101DDC003968C969304688473968496A3046884746
:101DEC003968C96A3046884700F019F812E0400695
:101DFC0006D505EB86010120D1F80011884709E0D2
:101E0C0039684969304688473968496B3046884794
:101E1C000128F9D12046BDE8F240FEF7E5BBDFF81A
:101E2C001C1401200860DFF8180400688007FAD53C
:101E3C0070472DE9F04F002483B04FF0000A0128C1
:101E4C00D04618BF012664D1DFF8D893D9F8DC004E
:101E5C0001285DD10220C9F8DC00FFF745FE009097
:101E6C00012000F062F9060054D1FEF7F5FBDFF813
:101E7C00D81301900C60012000F042FA012804D123
:101E8C00002000F0A7F94FF0010ADFF8C013DFF8CB
:101E9C00B4030C6000681120FFF751FE08B14FF03D
:101EAC0001081020FFF74BFE08B148F002080F2084
:101EBC00FFF745FE08B148F004080B20FFF73FFE82
:101ECC00DFF8746320B13168096B4FF48060884788
:101EDC000A20FFF734FE20B13168096B4FF48160A2
:101EEC008847DFF85813DFF86873DFF868B3012010
:101EFC00086048F02000316889698847DFF858137A
:101F0C000120086099F80800C00707D5012416E0E5
:101F1C00042673E00120C9F8DC006CE0584600F0A0
:101F2C0003FF0546042DF9D0012D04D1326A526805
:101F3C00032158469047386880088000386000209C
:101F4C0000F0FAFEBF4800683068806B804754B9D7
:101F5C00012D04D1326A52680121584690473868E5
:101F6C0040F0030038600120B849086040463168F1
:101F7C00496988470B20FFF7E2FD20B13168C96A37
:101F8C004FF4806088470A20FFF7D9FD20B13168F3
:101F9C00C96A4FF481608847A84901200860002075
:101FAC00AD4908600320C9F8DC003168496B404634
:101FBC0088470128F9D1042000F0B7F8A249012084
:101FCC000860A0480068A54800688006FBD5BAF1F7
:101FDC00000F1CBF012000F0FDF800F0F9FF0820F5
:101FEC0000F0A3F806460120C9F8DC000198FEF7C2
:101FFC0037FB00F071FF0098FFF77AFD3046BDE823
:10200C00FE8F38B50446FEF7EBFA054621468548A7
:10201C0000F07CFE28464BE030B5002401288BB044
:10202C0004D021D303281DD018D31DE001A8FFF73D
:10203C0063FD7C4D8A490694ADF81440079401ABBE
:10204C00012205F17800FEF703FB00940023854A7A
:10205C002C2105F19C00FEF7EBFA05E000F0D4FF13
:10206C00044601E001F076F820460BB030BD00F0DC
:10207C0054B938B5FEF7B4FA05466A4890F8E00052
:10208C00012410B1FFF74BFD04462846FEF7ACFACD
:10209C00204632BD38B5FEF7A3FA624D044695F8DA
:1020AC00E00020B100F080F9002085F8E000204627
:1020BC00BDE83240FEF798BA0000000070470000FF
:1020CC0010B582B0042000F01BF9022818BF0328B9
:1020DC0007D100F01FF8FFF716FDBDE816400220EF
:1020EC00D0E56148534900684E4CC0F38150032839
:1020FC000CBF4FF47A7041F288300968B0FBF1F1F3
:10210C0004F15400FEF780FA04F15400BDE81640C7
:10211C00FEF77EBA032000901C234FF040520021A2
:10212C003F4800F0B2BD0020704770B504463D4EEC
:10213C00304600F0CDFD002598B9304600F0CEFDBC
:10214C000646B068204207D03269F3680021204669
:10215C0098470546012D05D0304600F0C1FD06001C
:10216C00EFD1284670BD414901280CBF40F2FF70E9
:10217C00002008600020704770B5FEF731FA294E38
:10218C00294D044696F8E00028B100F00DF968B12D
:10219C00002086F8E0000220AD68A8470646102013
:1021AC00FFF7C3FF8EB10320A8470EE02149096851
:1021BC003220B0FBF1F101B9012106F13000FEF73C
:1021CC0023FA06F13000FEF723FA2046BDE87040F2
:1021DC00FEF70ABA38B501281ED100F091F8012893
:1021EC001CD000F0D7F80F4C1249012084F8E00005
:1021FC0032200968B0FBF1F505B9012504F1300076
:10220C00FFF7CCFA294604F13000FEF7FDF904F192
:10221C003000FEF7FDF901E000F0E8F8002032BDD7
:10222C0000A00C40E00A002018830000B03F0050D2
:10223C007D23002040860000B80100102820086093
:10224C00282008402C2009400C4009400002224361
:10225C00242208400040034080010443141009402C
:10226C009D3200006D300000B43F0050000004604F
:10227C008F3F00008F3F01008F3F02008F3F030014
:10228C00903F00018F3F0101903F0002903F0003FF
:10229C008F3F01048F3F00058F1208048F3F00040D
:1022AC008F3F0006513F00007F3F01003F3F04007D
:1022BC003F3F02003F3F01007F3F020070B50446E4
:1022CC00E00782B00D46624E05D5A8B200900023FF
:1022DC00012200F011F8A00705D5A8B20090012347
:1022EC00022200F009F8600705D5ADB20095022373
:1022FC000C2200F001F873BD0021304600F0C5BC83
:10230C000146042907BF1D234FF0C0421C234FF088
:10231C0080524F48342100F0CBBC38B50546FFF74E
:10232C00CDFB4C4CA168401A4FF47A71484305EB35
:10233C00104501F083F82169401A48BF404240F62D
:10234C00B9318D4207D2062805DAA068E1688142CE
:10235C0001D322685AB940494A68D2074FF4FA604F
:10236C0017D4086800F0FF007D21484308E0081AE4
:10237C003A494843000C00EB9000904238BF10469D
:10238C00C82801D2C82032BDB0F57A6F88BF4FF48F
:10239C007A6032BD80B501210320FFF78FFFFFF774
:1023AC008DFB2C49886001BD80B50120FFF7A8FF8B
:1023BC00012819D0002301223421254800F078FC93
:1023CC0098B100F026F8FFF779FB22498B680A6870
:1023DC00C860A2EB9202C01A204B5843000C086054
:1023EC00904238BF10460860012002BD10B5002194
:1023FC000320FFF763FF0120FFF782FF08B100F015
:10240C0008F8144CFFF75AFB606001F017F82061D4
:10241C0010BD1348006801F025B810B511490A68C1
:10242C0011490968140424161B384443E41004EBC6
:10243C002244120600FB00F3121609065A435843B5
:10244C00091604EBA222484302EBA04010BD000089
:10245C0000A00C405C230020AC3F005040420F0019
:10246C008000001090130050A410005062B38B0732
:10247C0008D0521E11F8013B00F8013B00F02480FB
:10248C008B07F6D1830740F0208000BF103A07D3AA
:10249C0030B4B1E83810103AA0E83810F9D230BC9A
:1024AC00530724BFB1E80810A0E8081044BF51F846
:1024BC00043B40F8043BD20724BF31F8022B20F830
:1024CC00022B44BF0B7803707047121F17D35B00AD
:1024DC0009D151F8043B20F8023B1B0C121F20F8C9
:1024EC00023BF6D20BE051F8043B00F8013B1B0A0F
:1024FC0020F8023B1B0C121F00F8013BF3D238BF33
:10250C00121D521E24BF11F8013B00F8013BF8D8F4
:10251C0070470000002200F0C1BF000010B5DFF8CA
:10252C002405046814F1010F08BF002401F038F8E9
:10253C00DFF81415002008600120DFF81015086082
:10254C00DFF80C15086000F04CFADFF8080500689D
:10255C0028B1DFF804050068204600F022F8DFF807
:10256C00FC14DFF8FC2400200860DFF8F804016894
:10257C006FF31B4111430160DFF8EC040168C1F3F8
:10258C000131012907D10168DFF8E024114041F441
:10259C00003202600160DFF8D80400680028FAD12C
:1025AC0010BD70B50546DFF8CC0401210160DFF8E1
:1025BC00C81409680029FAD0DFF8C044DFF8C02439
:1025CC00C02121605368DFF8BC149B075DBF136802
:1025DC001B0C43F0F00372230B700021016396680F
:1025EC00304600F031F83146284600F061F8DFF84B
:1025FC009804816D89B240F20F22914214D2016885
:10260C000068C1F30361C0F3034001B1491E072800
:10261C0005D006280EBF0720801C00F00F0041EAF1
:10262C000010DFF868140870304600F0B2F8DFF8DC
:10263C0060140968C9680220884740202060012086
:10264C00DFF85014086070BD10B50446DFF848047C
:10265C000068C0F3046000F0C0F92117491C081889
:10266C001628A8BF152004DA6FF009018842B8BFFC
:10267C00084600F01F00DFF8241440F4F8500880DE
:10268C00DFF81C04006880074FBF44F04064002052
:10269C00DFF810140860DFF81004C4F3C06181F097
:1026AC0001010160C4F3806181F00101816010BD02
:1026BC0070B5054682B0084600F0F0F80246DFF827
:1026CC00EC43182100F062F800F014F980B200908D
:1026DC00002340F2FF322C21204600F0D6FADFF81E
:1026EC00D063F068C0F30D021C2100F04FF8706845
:1026FC0000F0FC32142100F049F83068DFF8B41314
:10270C00DFF8B46301EA0002102100F03FF828461C
:10271C0000F0FAF802460C2100F038F8284600F0D8
:10272C001EF9400040F020003072284600F020F9DD
:10273C0040F010003072284600F023F902462821A0
:10274C0000F024F8284600F001F9400040F0600049
:10275C00F072284600F02FF9C00040F08000307075
:10276C00284600F031F98000DFF8501340F47C402B
:10277C000880284600F012F90246082100F006F8FD
:10278C00DFF83C134FF48000086073BD204600F066
:10279C0077BAF8B5810C01F003010129C94CC84D79
:1027AC0002D002292AD026E0216A8A0323D44FF4CE
:1027BC0080422A606FF08F06C34AD2F80230334051
:1027CC004E0A06F080063343C1F303363343C2F896
:1027DC000230C1F30326D2F801301B0946EA031379
:1027EC00C2F801306FF0E7061368334001F0E701DF
:1027FC001943116002E04FF000412960B34EB44A16
:10280C00B16809075CBF4021A9624FF400712964CB
:10281C00800D216AC90C01F0030141F0300110F068
:10282C000300117003D0022826D008D326E0012122
:10283C000420FFF743FDA74800F0F4F822E0012044
:10284C00FFF75EFD074639460420FFF737FD0420ED
:10285C00FFF756FDB842FAD1366826F07F4000F0FB
:10286C00E1F89D4B1B681B684FF060220721300E6E
:10287C0098474FF480602860032100E00221042077
:10288C00FFF71CFD2068954900F03F00087047F6E3
:10289C0018009349088093480068F1BD9249096873
:1028AC00C1F383628303C1F38F2120D4000400168B
:1028BC004FF6FF7307E0490804D11946520804BFCC
:1028CC0001220121401C0028F5D401280FDB49000E
:1028DC0041F00101B1F5803F21BF0121520042F0CE
:1028EC000102102A24BF0F221946401EEDE741EACF
:1028FC00024070477C48016800680002C1F3870100
:10290C0000F440700843704730B55D4C77490A6855
:10291C006568ED07C2F30351C2F303430AD424687C
:10292C00250501EB2571240481F3040103EB2473C9
:10293C0083F304031B0443EA015193B21943222885
:10294C0024BF02F080400143084630BD00212028FE
:10295C0003D367480068C0F3015108467047012152
:10296C00222803D363480068C0F3007108467047FF
:10297C000121222803D35F480068C0F34071084648
:10298C0070470021202807D359480068C10C01F476
:10299C004071C0F3845001430846704720285649C3
:1029AC0007D35348554A0068810A02EA003040EACE
:1029BC008151084670470021222803D34D480068F6
:1029CC00C0F3C061084670470021222803D3494850
:1029DC000068C0F34551084670471628A8BF203838
:1029EC007047234800680028FBD14548454A416898
:1029FC0012688908890041F0005141F00401520726
:102A0C0048BF41F001010BD4026812F0030F07D04C
:102A1C0041F003024260026802F00302032AFAD179
:102A2C0041607047384982B20A60C0F30740486081
:102A3C0001208860354800680028FBD000208860A1
:102A4C00704700001C130050840460425C600C4012
:102A5C000822044380012843000120438C210840B4
:102A6C00000039014820034004000940FFFFFCFC32
:102A7C000C006842101009409402224300600C4084
:102A8C00AC3F005056620840BC1200500260084037
:102A9C00A001001094046042B81200506E6208400D
:102AAC000000094094042A430000204300A00C407D
:102ABC0070130050FFFFFC0041A10C40DCA10C4046
:102ACC0040A00C406C1300500A600840A83F005016
:102ADC0008A10C40BD378600B40100100BB00C40AF
:102AEC0070B00C402C20094050130050781300504B
:102AFC00981300508C13005000803F4000F03F00B2
:102B0C0000400340B03F00503C600C4084088C43B4
:102B1C001B4213D1094236D12AB18446B0FBF2F0E4
:102B2C0002FB10C2704700F045BDFCD3002200230D
:102B3C0070470B000200002100207047904271EB9F
:102B4C00030CF6D370B5B1FA81F4B3FA83F52C1BF0
:102B5C00A340C4F1200532FA05F63343A2405FF0DE
:102B6C000046E64002E05B085FEA3202841A71EB31
:102B7C00030524BF204629467641F4D302000B00FE
:102B8C003000002170BD012ACFD970B5140C20D0B3
:102B9C00B1FA81F4B2FA82F5C4F120046419B4F1EB
:102BAC002006D6D3B2405FF00044F440002502E08A
:102BBC0052085FEA3303C61A71EB020E24BF30468B
:102BCC00714664416D41F3D302000B0020002900D3
:102BDC0070BD0C46B1FBF2F102FB11452D0445EA28
:102BEC001045B5FBF2F402FB145580B240EA0545E2
:102BFC00B5FBF2F002FB105240EA044070BD00003D
:102C0C0070B504460D46164600F0DEF9401E8041B4
:102C1C00C00F1A490A68002AFCD0012E02D0022EDD
:102C2C0002D003E0257002E0258000E0256001223F
:102C3C000A6000281CBFBDE8704000F0C9B970BD27
:102C4C0038B504460D4600F0BFF9401E8041C00F58
:102C5C000A490A68002AFCD0012D02D0022D02D0AC
:102C6C0003E0247802E0248800E0246801220A6052
:102C7C0008B100F0ADF9204632BD000000800C40D8
:102C8C000B46114604221818BAE710B500EB4100A8
:102C9C00102B144600F5007002D3103B001D240CC1
:102CAC000299994041EA0441BDE810400422A7E78B
:102CBC0038B51D460818102D144602D3103D801C43
:102CCC00240C0221FFF7BCFF204080B2E84032BD4B
:102CDC00006800280CBF0120002070470068704776
:102CEC000068704738B504460D4600F064FC0021BE
:102CFC002960616869606168002914BF0D602560F6
:102D0C006560FFE7BDE8324000F057BC0B684A68CD
:102D1C00002B0CBF42605A604A680968002A0CBF3D
:102D2C000160116070470000006801074CBF04206F
:102D3C0000F00300704700002DE9F84F0646934859
:102D4C00934C0068934D800704D50820A8719248D5
:102D5C002060BFE000F072FB804690480068009055
:102D6C000027001700F101090098800208D4C8F16F
:102D7C003E00C0100928A8BF08208145B8BF814675
:102D8C0087480068C0F30460FFF727FE8246854839
:102D9C000068C0F30440FFF720FE09EB0A01162976
:102DAC00A8BF152104DA6FF009029142B8BF114691
:102DBC0001F01F027C4B42F4F8521A807B4A1268D5
:102DCC0012F0030F18BF0127520748BF47F0020744
:102DDC000EB147F0040795F90720A8EB0202052A6B
:102DEC0002DAAA7997425DD0A8F10F0C0026BCF14B
:102DFC00000FB64607F0010207F00403DFF8B091AC
:102E0C0023D40CEB0C1C4FEA2C2EBEF1080F28BF60
:102E1C004FF0070E7646072E28BF062609EB860ACA
:102E2C0059F82660DAF804A0AAEB060A0AF0FF06A5
:102E3C0013B1CAF3072B5E445FEA877B44BFCAF326
:102E4C00074B5E440AB106EB1A6659F82E9009F04E
:102E5C00FF0A13B1C9F307239A44BB0744BFC9F354
:102E6C0007439A440AB10AEB196A401AACEB0E22DA
:102E7C000099AF71724380320128B8BF012034230E
:102E8C0001F0FF0158430AEB12224843B0FBF2F069
:102E9C00B0F5803F28BF4FF6FF7008F30708A880F5
:102EAC0085F8078043480068A988286000201F29FE
:102EBC0004D21F21A98004E04908401CB1F5007F11
:102ECC00FAD20F39090940EAC1003B490843206096
:102EDC0000206060BDE8F18F10B53848006884B2FE
:102EEC001CB300F0ABFA2B4991F90720904205DA9C
:102EFC006FF07F029042B8BF1046C8718888844238
:102F0C0001D28C8010BD2B4A12680B68D21A921C0D
:102F1C00202A28BF1F22231A5208D3401818B0F5B4
:102F2C00803F28BF4FF6FF70888010BD2448026890
:102F3C0002B9704710B5234B996801F04060B0F1AD
:102F4C00406F21D011480468A4071DD45C68A40705
:102F5C001AD404681B68C3F303531C331B0114F00D
:102F6C00050F06D09A420FD26FF005012140016087
:102F7C0010BD934208D20A0158BF44F00104490124
:102F8C0058BF44F00404046010BD00000000094068
:102F9C003010094070230020FDFDA400B43F005008
:102FAC00B81200503C1100506E62084024220840B8
:102FBC009C1300500820094000E7A48034100940FD
:102FCC0028500940AC3F0050EFF3108072B67047A8
:102FDC00EFF3108062B67047DFF800F099C801106B
:102FEC0010B50C18FFF7F0FF401E8041C00FDFF842
:102FFC00F0130A68002AFCD0246801220A6008B188
:10300C00FFF7E6FF204610BD38B5DFF8D843DFF8F0
:10301C00D8132078897B002508430AD0FDF7E0FA05
:10302C00A178002906BF0121A1700125FDF7DCFA6A
:10303C000DB1002032BD0220FEF78EFE0E20FEF7F1
:10304C00A0FEDFF8A803016809B1012032BDDFF84A
:10305C00A023402111600121C1610020607032BDAC
:10306C0070B5DFF88C0382B0002101604821C1608B
:10307C00DFF8800300F1D804A17A002968D0012977
:10308C00DFF8742329D110684BF2F5214843050A67
:10309C00DFF868030068C0F38140012806D100F016
:1030AC00CDF9FFF7BAF9684305EB9055607B10B189
:1030BC000020607305E0D2480068000215EB102078
:1030CC004508D0480560290C416001218160C64843
:1030DC00807B00283AD0052039E0022909D11568F7
:1030EC00284600F0FDF8A5F2FF5003282ED3082047
:1030FC002DE003292CD1116800F1B805A1F5C061B0
:10310C002868E961002848BF4042002948BF49426D
:10311C008842A8BF002018DA6868BB4E80B20090C5
:10312C0008234FF47F4230213046FFF7AEFDA868EC
:10313C0000F072F904213046FFF7A7FDA86900F0F2
:10314C0071F93046FFF7A1FD012020700B20207390
:10315C00BDE873402DE9F041A64CDFF8AC82AB4FD3
:10316C00AB4EA34804F1E10582B0E9784A1E0B2A64
:10317C0000F28080DFE802F0062233465B33465BC8
:10318C003346636EA34909680968202088470F20DD
:10319C00F860072341F61D5038614FF4C0720220CD
:1031AC00009000F070F807234FF4C07200214046E5
:1031BC00FFF77EFD01203060022044E00120F86121
:1031CC00287800281DBF0020306103200620E870FD
:1031DC0003203860002070607068800734D4E87871
:1031EC00032804D1022000F04BF8042007E0002053
:1031FC0000F046F8E87806280CBF07200A20E87093
:10320C0001201AE0042903D12021B961012105E034
:10321C000122BA610A290CBF032102216970002125
:10322C0039600821C16001600120386026E0052961
:10323C000CBF06200920E8700020706004E000201C
:10324C00306070600C20E87004F17800BDE8F64145
:10325C00FDF7DEB9002101600120644908600E20F1
:10326C00FEF724FD0220FEF70DFD0120E870002082
:10327C00A87003E0BDE8F341FFF7AEBEBDE8F381F3
:10328C0000900523602200214046FFF7FEBC0000A1
:10329C0080B558495E4891F8E410891E0A291AD85D
:1032AC00DFE801F0060A0E190A0E190A0E191200AF
:1032BC0001688907FCD510E041688907FCD40CE053
:1032CC0041688907FCD508E001688907FCD441688E
:1032DC008907FCD401E0FFF77FFEBDE8014039E728
:1032EC00F8B50746484C30212046FFF779FE414E91
:1032FC0006F1B805C0F30720686004212046FFF7EB
:10330C006FFEC0F38440A86020212046FFF768FEC2
:10331C00C0F38120A861B7F5C060286002D186F89F
:10332C00D800F1BD296996F8D8202AB96A68A9682D
:10333C00EA60E861AA696A61E86900284CBF6FF02D
:10334C000102022200EB40001018421000EB9270B8
:10335C0001EBA0006968E960012810DA6A69032AA8
:10336C0004D1153001281DDA01201BE00B30012897
:10337C00B8BF0120491E48BF0021E96007E01F28A3
:10338C0012DB6A692AB915381F28A8BF1E20032131
:10339C0009E00B381F28A8BF1E20491C4029A8BFD4
:1033AC003F21E9600021696128610823E86880B247
:1033BC0000904FF47F42302100F03CF80120009047
:1033CC0011234FF4003200F034F8286900F024F88F
:1033DC0000F02FF8686900F025F800F02BF8F1BD2B
:1033EC0000800C40C10B00201883000004800C40AE
:1033FC002C500C40E00A002008400C40B43F005018
:10340C00102009403C600C4000A00C4000400C40D7
:10341C0034600C40A001001080B2009012234FF4D5
:10342C00F802704780B200900A234FF440622021CA
:10343C00704704212046FFF728BC00000748084AC3
:10344C0081681278006852B2A0F54070C9035043ED
:10345C00C913A1EB2010803000127047285009408E
:10346C000C13005070B50446FFF7AEFD451EAD4180
:10347C00ED0F074E30680028FCD0A04701203060CB
:10348C00002D1CBFBDE87040FFF7A2BD70BD000051
:10349C0000800C4062F30F2262F31F4200B500BFA4
:1034AC00130096469446103928BFA0E80C50FAD861
:1034BC005FEA417C28BF0CC048BF40F8042BC90709
:1034CC0028BF20F8022B48BF00F8012B00BD0000DC
:1034DC0030480068000C00F00700052828BF4FF0AA
:1034EC00FF3070472C490A68C2F30F324BF69A131F
:1034FC009A424FF0FF3006D10868000F0B280CBF22
:10350C000420002070474BF6BE118A4201D10120E5
:10351C0070474BF641318A4201D1032070474BF67C
:10352C0020318A4208BF0220704700001A48F8B5C3
:10353C000068050F1948006800F0FF06802E28BFB0
:10354C000026FFF7CFFF04284FF0FF3406F10A07DF
:10355C001DD8DFE800F003121A1A1B00012D12D03F
:10356C00032D06D0072D06D0082D08BF06F1160432
:10357C000DE014240BE0152409E025B1022D08BF41
:10358C0006F1140403E00A2401E005B93C4660B2DC
:10359C00F2BD00009412005018130050A0100050FF
:1035AC0080B5FFF79FFF20B9FFF7C0FF162800DB9F
:1035BC0001BDFEE77047FDF713B8FDF715B8000025
:1035CC00DFF800F0D9C10110DFF800F0ADB5011043
:1035DC00DFF800F019AE0110DFF800F0E5C10110C2
:1035EC00DFF800F085C20110DFF800F081C2011095
:1035FC00DFF800F055C10110DFF800F043C20110F4
:10360C00DFF800F079AB0110DFF800F0D9B601104B
:10361C00DFF800F0EDB3011020B108232C220021BB
:10362C0000F020BD704720B108233C220021FFF799
:10363C00C7BF704780B5FEF757FAADF80000FCF72E
:10364C00CFFFADF80200009802BD01B5BDF8020035
:10365C00FCF7CAFFBDF80000BDE80240FEF748BA0F
:10366C0038B5DFF8B818DFF8B828DFF8B84889089B
:10367C008900521A2261E1600B4602E0002523F812
:10368C00025B5518AB42F9D3930801EB830300207E
:10369C0023F8040CE82008804FF6FC700240EC3A4A
:1036AC00A1F8E820E8316160002000F004F8A06087
:1036BC00E068606031BDF8B500250026071D17F0E5
:1036CC0003001CBF391D0F1AFFF7B4FF0146DFF8CA
:1036DC005408BFB20160112FB4BF446884682088BD
:1036EC00030403D580F40040002616E0330010D00C
:1036FC002B88228813442B809BB2BB420DD32C46C3
:10370C001846A4B1C01B80B20428ACBFE053278874
:10371C0009E0B842F5DA0126254604442088002841
:10372C00DED1002403E047F4004724F8047B00F0CA
:10373C00C8F92046F2BD10B50446FFF77BFFDFF851
:10374C00E417086034F8042CC2F30E0224F8042C9D
:10375C00221F4B689A4238BF4A60BDE8104074E79C
:10376C0070B50446FFF766FF0022DFF8BC570C2645
:10377C005643A95921B18C4203D0521C082AF6D3C6
:10378C0026E0FFF762FFA81970BD70B50546FFF77C
:10379C0051FF044600210C22DFF88C074A4386189F
:1037AC00306830B185420ED0491C0829F3D320462D
:1037BC000EE0B060356000220021FFF705FF70605D
:1037CC0008B900F059FC2046FFF73FFF304670BDAA
:1037DC00FFF73BFF002070BD38B50446FFF72AFF0A
:1037EC000025DFF848270C216943515A21B18C423E
:1037FC0006D06D1C0B2DF6D3FFF727FFFF2032BD33
:10380C00FFF723FFE8B232BD10B504462088FFF75E
:10381C00E3FFFF2800D179E10C21DFF810274843A2
:10382C001044816811B96FF0010010BD2046BDE84D
:10383C001040084702460FF26470104710B5002084
:10384C000C21DFF8E426002401FB00F3401CD450CB
:10385C00134408289C60F7D30020DFF8D0260023FF
:10386C0001FB00F4401C13530B28F9D308201080E3
:10387C000FF211709060BDE81040F1E670B590B099
:10388C00FEF732F905466846FFF7CDFE052040F2FB
:10389C00B631069008914FF65160DFF894160490FB
:1038AC00059100226946DFF88C06FFF791FE0400B3
:1038BC0006D0FFF7BFFE06462046FFF766FF08B9A5
:1038CC0000F0DAFB3046FFF7C0FE2846FEF710F991
:1038DC0010B070BDF8B500F0F1F8FFF756FF04001A
:1038EC006FF0020623D0FFF7A5FEAB88DFF83C761D
:1038FC00014600220C2000FB02FC07EB0C0EBEF86C
:10390C00000030B1834210D0521C0B2AF2D300F0CD
:10391C00B3FB381DAEF8003040F80C40A868CEF868
:10392C0008002A7360682861C6E200F0CAF83046C5
:10393C00F2BD38B500F0C2F8FFF727FF04000DD038
:10394C00FFF778FE014600220C23DFF8E005534315
:10395C000344188820B1521C0B2AF5D300F08CFBC1
:10396C004FF6F87018805C60002098602A716068CF
:10397C00A86000F0A6F8002032BD10B504466068BF
:10398C000C3080B2FFF797FE00B91AE06168018134
:10399C0000210160FF2181720C30A060002010BD5D
:1039AC0080B540680C3811E080B284E610B504464E
:1039BC00606880B2FFF77FFEA06000B901E00020D4
:1039CC0010BD6FF0030010BD80B54068FFF7B3FE6B
:1039DC00002002BD38B504460D46FFF72BFE002132
:1039EC0045F80C1C226812B9256006E00A4652F80C
:1039FC000C1C0029FAD142F80C5CBDE8324024E6DC
:103A0C002DE9F04104466FF00208E068A0F10C05C6
:103A1C00A0790B28BCBF21790B290BDAFFF70AFE22
:103A2C00A279DFF808750C26391D7243895819B92B
:103A3C00FFF70BFE404617E0FFF707FE20792871D1
:103A4C00A0796871207AA871381DA279E168724357
:103A5C0080580830FFF7BEFFA079391D46438859BE
:103A6C004068FCF7C5FD0020BDE8F08170B500F0A2
:103A7C0025F8FFF775FE040002D16FF0040070BD4D
:103A8C00FFF7D8FD0146A068002640B10646A6F116
:103A9C000C000268A26000220260FF22827200F019
:103AAC0010F83000AE6001D1022070BDA6F10C0000
:103ABC00017929714079A871002070BD0546FFF786
:103ACC008BBD0846C1E50B280ADA0C225043DFF8FF
:103ADC005C24105A00281CBF4FF6F872904202D199
:103AEC004FF0FF307047088000207047811D00792F
:103AFC00E9E710B50446E088FFF76EFEFF2800D119
:103B0C0004E0A0712046BDE8104079E74FF0FF308B
:103B1C0010BD3EB50546FFF7A9FF040017D1287963
:103B2C006946FFF7D0FF78B10820ADF804000321F7
:103B3C00ADF80610A868DFF800148A68029001A896
:103B4C0090476FF005003EBDBDF80000A8802046F0
:103B5C003EBD30B5DFF8E4532A680C464FF47A7159
:103B6C00A1FB00010023FEF7D3FF002399424FF085
:103B7C00004201D8904202D36FF0020030BD2060A9
:103B8C00002030BD38B5FFF799FFFFF7E9FD04467B
:103B9C00FDF79DFD002818BF012800D014B96FF067
:103BAC00040032BD686840B9009000996068FCF769
:103BBC0023FD401E8041C00F32BD10F1010F08BF24
:103BCC004FF0FF30F0D06946FFF7C3FF0028ECD070
:103BDC0032BD80B54068FCF70BFD002002BD00F043
:103BEC004BFA00BF80B54068FFF7FAFC002002BD1D
:103BFC0080B54068FFF7F8FC002002BD80B5FFF7E8
:103C0C00F7FCFFF7F9FC002002BD80B5FDF76CFF57
:103C1C00FCF7E6FC002002BD10B58CB004466846EB
:103C2C00FFF7FAFCE02100F013F808B900F024FAD1
:103C3C000BE010B58CB004466846FFF7EDFCE1686C
:103C4C0000F006F808B900F017FA00200CB010BD0F
:103C5C0008910023A16860686A46FFF7D1BC10B5D3
:103C6C000446FFF7D1FC6060002010BD0146886857
:103C7C0049680847F0B507468BB0BC68AE4D6CBBC5
:103C8C000C20FFF718FD04006FF003061ED008236C
:103C9C002422002101A8FCF7B3FC0020ADF814008D
:103CAC000690079400237968A54801AAFFF7B0FC99
:103CBC00206068B90C210820ADF80210ADF80000A6
:103CCC006846A96888472046FFF735FD304618E05E
:103CDC00F86860603869A060BC600AE028688047BA
:103CEC0006462068FDF75AFD3869A06030466968C1
:103CFC00884779682068FCF787FC2068FCF788FC0B
:103D0C0000200BB0F0BD10B5044682B06068694667
:103D1C00FFF71FFF20B9009860602046FFF7AAFF4D
:103D2C0016BD80B5406810B96FF0020002BD006886
:103D3C00FDF734FD002002BD80490A684260002076
:103D4C00704750B504467D4802686FF00046A6FBEC
:103D5C00020100234FF47A72FEF7DAFE0023994237
:103D6C004FF0004201D8904200D3304660600020F2
:103D7C0050BD2DE9F04186B00746FFF72DFCFFF74B
:103D8C00EFFC0646002001900025FDF7A0FC002862
:103D9C0018BF012800D016B96FF0040067E07868EE
:103DAC0008B900900BE010F1010F03D14FF0FF3177
:103DBC00009104E06946FFF7CCFE040056D1FFF7F2
:103DCC0023FC804600980124804414E0059901A846
:103DDC00FFF700FE009901246D1C11F1010F0AD0B0
:103DEC00080008D0FFF710FCB8EB000025D00099B4
:103DFC00814222D3009000997068FCF7FDFBE0B182
:103E0C0003A8FFF733FE0400E4D19DF8100002A9CB
:103E1C00FFF759FE0028D9D1059A9DF81210BDF86C
:103E2C000800BB6898470028D0D0BDF80800B881BE
:103E3C009DF81200B87305983861019FFFF7FAFBE3
:103E4C00014657B13A4600E0024652F80C0C0028E5
:103E5C00FAD1B06842F80C0CB760FFF732FE002DB7
:103E6C0003E07068FCF7C4FB6D1EFAD1204606B067
:103E7C00BDE8F081F8B5FFF721FE0446FDF727FCFD
:103E8C00002818BF01286FF0040612D0FFF7D2FBF0
:103E9C0001460022254B0C275743D85B38B1D81963
:103EAC0047683868A04206D0521C0B2AF3D3FFF7A0
:103EBC0008FE3046F2BD2A710846FFF7C6FB00200B
:103ECC00F2BDF8B50446FDF702FC002818BF012826
:103EDC0002D16FF00400F2BDFFF77EFB0546FFF741
:103EEC00A9FBA788114B014600220C265643985B70
:103EFC0020B1B84207D0521C0B2AF6D3FFF7E1FDD4
:103F0C004FF0FF30F2BD981940680268AA420CBF0E
:103F1C0001200020A060CFE70000000084230020D7
:103F2C00483F0020A8170020C416002024170020AA
:103F3C0060030020413800004C0300204086000044
:103F4C00793C000070B504463C20FFF7B4FB05003B
:103F5C006FF0030611D0FFF766FB207AA8610022F0
:103F6C00608928622946E06828616068FFF730FBA9
:103F7C0004462846FFF7DFFB0CB9304670BD002025
:103F8C0070BD000041882D2902D36FF001007047ED
:103F9C000FF2140252F821100847000015380000E7
:103FAC004136000057360000E13800003F39000070
:103FBC0087390000AD390000B9390000D53900004F
:103FCC000D3A0000793A0000FF3A00001F3B000058
:103FDC00913B0000DF3B0000EB3B0000F13B00009D
:103FEC00FD3B0000093C0000173C0000253C000094
:103FFC006B3C0000133D0000453D00004F3D0000B0
:10400C00F93A0000AF7C0000817D00007F3D00008C
:10401C00813E0000813C00002F3D00001B7D000014
:10402C00537D0000677D0000CF3E0000B57D000091
:10403C00CD7D0000513F000000000000000000009A
:10404C00C37D0000DB7D00003F3C00000000000051
:10405C00000000000000000000000000DFF800F08D
:10406C00F1C5011001B90149FFF7F8BFA00100002B
:10407C00DFF800F0ED8C01100120FFF7F9BF000014
:10408C00DFF800F025B101102DE9F04DDFF8BC5937
:10409C000F469046002440F2013B95F802C0697926
:1040AC002A7995F801A0B0EB0B0640F67B4332D091
:1040BC00761E37D0761E3DD0B61E41D0761E00F04F
:1040CC008280761E00F08580761E00F09180761E30
:1040DC0000F0A080761E00F0A580761E00F0AA806D
:1040EC00761E00F0B080761E00F0B580F61E00F053
:1040FC00BA80761E00F0BF80761E00F0C480761E5B
:10410C0000F0C980761E00F0CE80761F00F0D680BD
:10411C00B61E2FD0ECE0102F05D11022414605F130
:10412C00A4008DE0102F40F0E1801022414605F1F3
:10413C00B40085E0042F6ED1D8F80000E862E2E00C
:10414C00012F68D101293CD098F80000287142B1A8
:10415C000028F4D1BCF1020F1ED0BCF1050FEED13A
:10416C001AE00028EBD0BCF1010F26D0BCF1040FF3
:10417C0020D122E0012F4ED1012A22D098F8000044
:10418C00687169B100280AD1BCF1030F1CBFBCF1E6
:10419C00070FBCF1050F02D1504600F0C2FEB2E091
:1041AC000028FCD0BCF1010F1CBFBCF1040FBCF10A
:1041BC00060F02D0BCF1050F02D1012000F03FFC2C
:1041CC00A1E012249FE0022F25D1B8F80000E8836B
:1041DC0099E0202F0DDA05F1CC041F21204601F0C7
:1041EC000DF900F097F8AF7123463A4601210DE026
:1041FC00202F7BDA05F1EC041F21204601F0FEF89C
:10420C0000F088F8EF7123463A460021504600F042
:10421C006AFE75E0012F69D198F80000042865DC6E
:10422C00287270E0012F61D198F8000004285DDA43
:10423C00687268E0062F59D10622414605F5867052
:10424C00FEF714F95FE0012F50D198F80000072811
:10425C004CDCA87257E0012F48D198F800000428D4
:10426C0044DAE8724FE0012F40D198F8000005289D
:10427C003CDC287447E000F049F837D1811F9942A3
:10428C0034D268823FE000F041F82FD1811F99426F
:10429C002CD2A88237E000F039F827D1B0F5FA7F9C
:1042AC0024DAE8822FE000F031F81FD1A0F10A01E6
:1042BC0040F67742914219D2288324E0012F04BFA3
:1042CC0098F80000012811D105F1800001F0EDF8FB
:1042DC0050B905F1100100F063FB040013D105F196
:1042EC005C0001F0E9F80EE016240CE018240AE05A
:1042FC00282807DA022F05D1B8F8001000F024FEA8
:10430C00044600E002242046BDE8F08DB8F8000019
:10431C00022F70473A4641462046FEF7A7B838B5FB
:10432C0000244FF440730D46C21ADFF8201736D024
:10433C00521E36D0521E37D0521E38D0521E39D093
:10434C00521E3AD0521E3CD0521E3CD0521E3DD072
:10435C00521E3ED0521E3ED0521E3ED0521E40D057
:10436C00521E40D0521E40D0921E40D0521E40D001
:10437C00521E40D0521E40D0521E40D0521E40D031
:10438C00521E45D0521E45D0521E45D0921E47D0CB
:10439C00521E14D0521E41D0521E43D045E0C87854
:1043AC0041E01022A4312FE01022B4312CE0C86A75
:1043BC00286041E00622C43126E0087933E04879D0
:1043CC0031E0C88B35E08A79CC311DE0CA79EC310B
:1043DC001AE0087A27E0487A25E0062201F5867172
:1043EC0012E0887A1FE0C87A1DE0088C21E0087C76
:1043FC001FE0488A1DE0888A1BE0C88A19E0088BF8
:10440C0017E0062201F58A712846FEF72FF813E013
:10441C00488C0EE0888C0CE0C88C0AE0087B02E02B
:10442C00887800E0487B287006E0282803DA00F042
:10443C00A2FD288000E00224204632BD1CB5DFF826
:10444C000C46A17881B900B1206304F12C000190D5
:10445C0004F1B400009004F1A403E1786078002228
:10446C0000F0FBFC002016BD112016BDDFF8DC05AA
:10447C008178062918BF072904D1018C40781322B2
:10448C0000F015BD1220704700B58FB008233C22F8
:10449C0000216846FFF794F8DFF8B40500F15001ED
:1044AC0007914FF4DC7203210892069100236A46AF
:1044BC000FF2C901FFF7E4FD0FB000BD70B501218B
:1044CC0084B000F011F9DFF88C15DFF880450A682C
:1044DC000FF2855590479DF80400607000260298F5
:1044EC00A0620020A0704FF6FF70208400F063FDE6
:1044FC002070002101200190009100230022294608
:10450C0004F1380000F09AFF022000F02FF804F1BB
:10451C005C0000F093FF042000F028F804F1800008
:10452C0000F08CFF0420E07004F1A40200200021B4
:10453C000023002582E82B0004F1B405E06285E835
:10454C004B0020726072E1720720A07210210220D1
:10455C0000F004FF2A461021032000F0FFFE04F1B6
:10456C002C020421042000F0F9FE7FBD00210190F3
:10457C00009100230022294670470000FEB5FFF78A
:10458C009DFFDFF8C864DFF8CC5406F180070820E3
:10459C00ADF800000A21ADF802104FF0FF30019089
:1045AC00684629688847002849D1092100F09CF801
:1045BC00296888479DF80610029C00283FD1BDF859
:1045CC000400102804BF727891422DD120884FF638
:1045DC00FF71884209D16188480425D506F12C0267
:1045EC000421042000F0CFFE1EE02078A22805D084
:1045FC00D02804BF204600F07EF815E0607913281F
:10460C0012D12089012804BFB17B022905D138467B
:10461C0000F052FFFFF72AFF06E0052000F0ABFC8C
:10462C000146384600F031FF4CB103210820ADF8AB
:10463C000210ADF800000194684629688847B08BD9
:10464C00C1072ED54FF6FE710840B08331797079D1
:10465C00014326D018B103208DF800000CE0317A0C
:10466C00707A8DF800108DF80100062206F586711F
:10467C000DF10200FDF7FAFEB07A8DF808006946DC
:10468C00F07A8DF80900707800F029FC00281FBF23
:10469C000820B070306B002803D0016809B10820E5
:1046AC008847B08B810708D54FF6FD710840B08361
:1046BC0006F11001002000F073F9B08B41070AD508
:1046CC004FF6FB710840B083B07B012804D0022860
:1046DC0008BFFFF7CBFE5AE70090338BF28AB18A02
:1046EC00708A00F092F952E70820ADF80210ADF88C
:1046FC00000068467047FEB50546DFF85043A978C0
:10470C00A2786379080004F58A7604F1800715D045
:10471C0002293CD0032918BF04295DD0052900F0DB
:10472C007F80062900F0AB80072900F0CB800F2991
:10473C0000F0E380112900F0E580F7BD68780100F6
:10474C001AD104F1A4021021022000F01CFE04F185
:10475C00B4021021032000F016FE0622E91C04F11D
:10476C00C400FDF783FE0120A07004F1CC03A279F4
:10477C006078012100F0B7FB08B10820A070206B15
:10478C0000281FBF01680029A0788847F7BD697809
:10479C00E1B9E87838B1E279607804F1EC0300F023
:1047AC00A2FB687012E0022A18BF072A0ED0062A54
:1047BC0002D1012B0AD101E0032A07D004F1380001
:1047CC0000F073FE10B9012000F039F96878002868
:1047DC00DCD00821A170D2E7687800BB20790329CE
:1047EC0008D1062A08BF0720C8D000280CBF032018
:1047FC000220C3E7E18B31B103430AD004F1380046
:10480C0000F043FE05E0012807BF002020710020C6
:10481C006071A078072814BF04200620AEE7ACE72F
:10482C00687830BB0622291D3046FDF71FFE6889CB
:10483C0020840620A070E8896084288AA084688A75
:10484C00E084E8782073207C012818BF022809D165
:10485C001F2000F090FB4FF47A71414304F15C008F
:10486C0000F013FE6A89E8780423291D00F003FA8E
:10487C0085E73128D3D10020207104207EE7A88859
:10488C0000F010FA0621304600F0B8FD00206084DC
:10489C00A084E084A879607300F0CDF8384600F06D
:1048AC000BFE4FF6FF702084607908B1032191E76D
:1048BC00A87908280CBF05200420A070012000F066
:1048CC00BEF85CE7384600F0F7FD6878002813D195
:1048DC00E98861842889A0846889E08404F15C00FB
:1048EC0000F0E3FD002807D1636B002B04D0E28CB1
:1048FC00A18C608C1B689847F7BDA888052100F037
:10490C0015FBF7BD217CA888ADF80000052903D163
:10491C0000208DF80A003FE001218DF80A1000F00C
:10492C008AF8207C012818BF04281AD1608AE988EB
:10493C00814228BF0846ADF80200A18A2889884226
:10494C0038BF0846ADF80400E18A6889884238BF50
:10495C000846ADF80600218BA88988421AD2084671
:10496C0018E0032818BF02280AD1608AADF80200AB
:10497C00A08AADF80400E08AADF80600208B09E0AF
:10498C00E888ADF802002889ADF804006889ADF814
:10499C000600A889ADF80800684600F084FAF7BD57
:1049AC00FEB50F46294D79880446688C884224BF91
:1049BC00B988814207D3A88CF988884202BFE88C59
:1049CC00398988421ED0052000F0D5FA298CADF823
:1049DC00001006467888ADF80200B888ADF80400DF
:1049EC00F888ADF806003889ADF80800684600F084
:1049FC0055FA070007D1AC73314605F1800000F081
:104A0C0044FD00E018273846FEBD3EB50F4CA57896
:104A1C00062D01D014203EBDADF80200ADF80410F7
:104A2C00ADF80620ADF8083000F005F80698694698
:104A3C00FFF7B6FF3EBD04F15C0000F03DBD03493D
:104A4C008A8B10438883886AFBF7D2BD000800204C
:104A5C00441E002054030020F1E70000E0B50821BB
:104A6C00ADF80010022200F00EF808B100200EBDC7
:104A7C0002980EBD00B583B00821ADF800100322DA
:104A8C0000F001F807BDADF8022001906846DFF890
:104A9C0058130A6810471FB5ADF806108DF808209A
:104AAC008DF804000824DFF840130A680393ADF86E
:104ABC000040ADF802406846904704B010BD30B5D8
:104ACC0085B01446029108221D46ADF8002019232A
:104ADC00DFF814130A680190ADF80230684690476D
:104AEC0014B1BDF80C10218015B19DF80E10297071
:104AFC000899049A0A6005B030BD00B51A2183B03C
:104B0C000820ADF80210ADF80000FFF7BFFF10B998
:104B1C009DF804000EBDFF200EBD00B583B0ADF8AE
:104B2C0000008DF806100020DFF8BC120A68ADF802
:104B3C0002006846904710B99DF807000EBDFF2093
:104B4C000EBD50B110F1040F01D10420704710F1CB
:104B5C00030F01D10220704701207047812303709D
:104B6C0042EAC112002342F47C42C3708280704737
:104B7C008223037081800023C370827170473EB51D
:104B8C000D462021ADF80210044610220820ADF885
:104B9C000420ADF80000FFF779FF20B9029810B19E
:104BAC006FF004003EBD00950023002221464FF01B
:104BBC00FF30FFF784FF3EBD38B50B461446D9785D
:104BCC00012903D19D88DFF820150D8000F053FAE0
:104BDC0058B9009069462046FFF7D1FF28B90098D4
:104BEC004478FFF747FF204632BD1EE038B51C461F
:104BFC0015460B4600F03FFAB8B9009069462846B6
:104C0C00FFF7BDFF88B900984578280002BF0098CF
:104C1C00C179A14204D1816804982246FDF726FC93
:104C2C000098FFF727FF284632BDFFF78AFF32BDF9
:104C3C00F8B500F080FA00F0B8F904000ED03A464E
:104C4C003146FFF795FF294600F09EFA2072FFF7D8
:104C5C0054FF234601B0BDE8F0405CE0F1BD1022EA
:104C6C000121E5E738B500F00AFA040002D004226D
:104C7C00012147E031BD2DE9F04100F05BF9040062
:104C8C000FD0142200F019F82572E660278284F800
:104C9C001280FFF732FF2146BDE8F041DFF85C24BB
:104CAC008AE725E038B500F028F8040004D0152276
:104CBC0000F003F8258128E031BD012158E70022DE
:104CCC0004217EE02DE9F04100F034F904000FD00E
:104CDC00022200F010F8A560A681A773C4F810801A
:104CEC00FFF70BFF2146BDE8F041DFF8142463E722
:104CFC000420BDE8F08104213AE705460A20ADE620
:104D0C00022135E7FFF734FFA560FFF7F6FE2346D7
:104D1C0001B0BDE8304002221021BCE6F8B500F02D
:104D2C00A3F904000AD01522FFF7EAFF00F043FBB9
:104D3C002146BDE8F840DFF8CC233DE70420F2BD66
:104D4C00002203213DE01CB50FF24503019306241C
:104D5C000094032300F04AF816BD1078802802BF97
:104D6C00518840F27F60814208D19088984202BFFE
:104D7C0091790098814201D1012070470020704741
:104D8C0010B582B00624FFE70094FFF7E6FF16BDCE
:104D9C000323F5E71078802802BF518840F27F602A
:104DAC0081420CD19088032818BF042807D1907930
:104DBC0000281CBF1028112801D1012070470020A9
:104DCC007047F8B500F061FA04000BD03A46314652
:104DDC00FFF7CEFE00F057F92146BDE8F840DFF8AA
:104DEC002823E9E60420F2BD540300202DE9F0410C
:104DFC0000F02CF804000AD0069A4146FFF7B8FEE2
:104E0C002581668100F0D9FA079A00F07EBA6FE727
:104E1C0005460E460C2021E6424603219EE670B55F
:104E2C0082B004460D461646FFF767FE03461B206C
:104E3C00009032462946204600F02EF976BD10B57A
:104E4C0082B01D24009400F027F916BD05460E46CD
:104E5C00174698461020FFF701BE2DE9F041804619
:104E6C000E4617461D461820FFF7F8FD040014D017
:104E7C00002200F066F800F086F920726672A772C4
:104E8C00E5600698206107986061FFF736FE2146C1
:104E9C00BDE8F0410FF225328EE629E70FF22133FF
:104EAC00112200214BE10FF21D331222F9E7F8B564
:104EBC0000F0ECF8040010D00A2200F042F8294669
:104ECC0000F062F9207266812773FFF716FE214607
:104EDC00BDE8F8400FF2F1226EE60420F2BD0FF2AD
:104EEC00ED2306223CE12DE9F04180460E461746A3
:104EFC001D461020FFF7B2FD040011D0072200F070
:104F0C0020F800F040F920726672A772E560FFF796
:104F1C00F4FD2146BDE8F0410FF2B522FFF74CBE7F
:104F2C00E6E60FF2B1230822002119E10FF2A923C2
:104F3C001022EFE005460E46174698461420FFF760
:104F4C008DBD0421FFF70ABE70B5FFF761FF0400A9
:104F5C000BD03022FFF7F5FF00F009F82146BDE831
:104F6C0070400FF27922FFF727BE042070BD258117
:104F7C006681FFF7C2BD30B583B000210546ADF8A0
:104F8C00041000F012F804000CD03122FFF7D9FF06
:104F9C002581FFF7B2FD01A9009102230FF24122F6
:104FAC0000F006F8BDF804003EBD0A20FFF756BD20
:104FBC002146FFF71BBE1CB500F080F904000AD097
:104FCC001222FFF77AFEFFF798FD00F005F80FF2BA
:104FDC001522FFF7EDFF13E001A9009101237047A3
:104FEC001CB500F06BF904000AD01822FFF765FE1F
:104FFC00FFF783FDFFF7F0FF0FF2F912FFF7D8FF71
:10500C009DF8040016BD70B500F014F804000BD028
:10501C001922FFF752FE00F009F82146BDE8704056
:10502C000FF2D912FFF7C8BD042070BD2581E660D0
:10503C00FFF763BD05460E461020FFF70FBDF8B510
:10504C0000F012F804000DD03622FFF77AFF25810C
:10505C00668100F0B2F92146BDE8F8400FF2A512C6
:10506C00FFF7AABD0420F2BD05460E4617461020D8
:10507C00FFF7F4BC234602221021FFF70CBD0546B6
:10508C000C20FFF7EBBCA560FFF737BD05460E46BD
:10509C0017460E20FFF7E2BC2DE9F041FFF74AFF5F
:1050AC00040011D0069AFFF7B8FE25812774E6603C
:1050BC0000F069F86074FFF720FD2146BDE8F0416F
:1050CC000FF27512FFF778BDFFF712BE38B5154613
:1050DC000E4A146834B1009302460B46294601204F
:1050EC00A04732BD002032BDF00B00200A46084913
:1050FC000B6813B101460120184770476952000034
:10510C00795200006F520000A14D0000BC17002026
:10511C00C01700202DE9F04100F00DF898460C2046
:10512C00FFF79CFC040004D000F016F82581A67251
:10513C00E8E0FFF7DDBD05460E46174670472DE942
:10514C00F041FFF783FE040004D000F005F8A560E1
:10515C00E660D7E0FFF7CCBD3A460421FFF7FEBC72
:10516C002DE9F041FFF772FE040007D0FFF7F4FFC2
:10517C00294600F009F82072E660C3E0FFF7B8BDDD
:10518C0025816681A78141465020FFF7C6BC107867
:10519C00802802BF518840F27F6081420CD19088F8
:1051AC004FF680710140B1F57E4F04BF00F07F00D7
:1051BC00984201D101207047002070470023E6E798
:1051CC001123E4E71223E2E70A23E0E70623DEE7F4
:1051DC000723DCE70823DAE71023D8E73023D6E7E8
:1051EC003123D4E780B5122300930123FFF7B5FDDB
:1051FC0002BD000080B51823F6E7000080B5192326
:10520C00F2E700003623C2E71078802802BF5188ED
:10521C0040F27F6081420DD190884FF68071014041
:10522C004FF68052914204BF00F07F00984201D1AA
:10523C00012070470020704770B504460D46164695
:10524C001D23FFF7E1FF18B91B2300F003F800B191
:10525C00012070BD324629462046D5E780B514237F
:10526C00C2E780B5152300930223BFE780B5022364
:10527C0000930423BAE70FF20D0142F22F000AE06B
:10528C000000000042F22F0344E005460E4617468C
:10529C000C20FFF7E3BB70B505460E4600F011F885
:1052AC00040009D000F026F8FFF727FC324621460F
:1052BC00BDE87040FFF780BC042070BD00218DF864
:1052CC0004100820FFF7CABB2DE9F041FFF733FFAC
:1052DC0098460E20FFF7C2FB040009D000F00AF834
:1052EC0026816781A4F80C80FFF707FC069A0CE076
:1052FC00FFF7FEBC812121700120E070A580704772
:10530C002681E760FFF7F9FB42462146BDE8F041F4
:10531C00FFF752BC1078802802BF518840F27F60A2
:10532C00814204BF9088984201D10120704700202F
:10533C007047000038B504461546FFF725FF0FF2FD
:10534C0015010091C2B22B4621464FF61840FFF7CB
:10535C00BBFF32BD4FF61843DCE70000F8B5FFF792
:10536C0083FE04000DD0012200F022F82572667233
:10537C0000F023F82146BDE8F8400FF27902FFF760
:10538C001BBC0420F2BDF8B5FFF76EFE04000DD077
:10539C00022200F00DF82572667200F00EF821461C
:1053AC00BDE8F8400FF25102FFF706BC0420F2BD35
:1053BC000521FFF7D3BB2581A672E760FFF79DBBE4
:1053CC001078802802BF518840F27F6081420DD155
:1053DC0090884FF6807101404FF68062914204BF75
:1053EC0000F07F00984201D10120704700207047E7
:1053FC00000000000123E3E70223E1E7002200F0B4
:10540C00A3B80000DFF800F0F5B80110DFF800F0E9
:10541C002DBF0110DFF800F011BF011000B583B0F3
:10542C000821ADF800100522ADF80220019000F023
:10543C0001F807BD684642490A6810472DE9F04358
:10544C0089B08046894617461D46109C119E08233C
:10545C00242200216846FBF7D3F83A4906964FF40C
:10546C007A700A68B0FBF2F0454305954743ADF8F6
:10547C0010406B463A4649464046FBF7E9F8404631
:10548C0009B0BDE8F083FBF7C3B838B504460D4648
:10549C00FCF792F910B12046FCF780F900F00EF8F9
:1054AC002046BDE83240FBF7B3B880B5FCF784F971
:1054BC0000B10120C0B202BDFCF770B9214A1068DE
:1054CC004FF47A71B1FBF0F0454329462046FBF7C7
:1054DC009BB810B504460021FFF794FF204610BD81
:1054EC0070B50C460421164684B00546ADF8021082
:1054FC000C2208200192ADF80000FFF79BFF58B971
:10550C00029949B18E602846FFF780FF14B12046FE
:10551C00FBF76EF8012003E03046FFF77FFF002019
:10552C0004B070BD10B50446FFF774FFA04204D060
:10553C008468FFF773FF204610BD002010BD0000EB
:10554C005403002040860000401810F0030308D0DC
:10555C00C91A1FD3DB0748BF00F8012D28BF20F85C
:10556C00022D130030B414461546103928BF20E91B
:10557C003C00FAD8490728BF20E90C0048BF40F886
:10558C00042D890028BF20F8022D48BF00F8012DFA
:10559C0030BC7047C91818BF00F8012DCB0728BFC5
:1055AC0000F8012D70470000DFF800F061C2011017
:1055BC00DFF800F0E9C20110DFF800F0E1C20110E1
:1055CC00DFF800F0B9C20110DFF800F0F9BF0110EC
:1055DC0050F8382F11430160704750F8382F22EAE9
:1055EC00010101607047817DFF291DBFC07DFF282F
:1055FC0001200020704738B50446FAF7F1FF054644
:10560C00207820B90220FCF7A7FB012020700BE0CA
:10561C0038B50446FAF7E4FF0546207820B102209D
:10562C00FCF730FB002020702846BDE83240FAF72A
:10563C00DBBF4068B830FAF7DBBF4068D430FAF70C
:10564C00D7BF70B5446885680E4606E0206A401CDA
:10565C002062761E606A401C60624EB1206ADFF8E0
:10566C00A427126801782868926990470028EDD128
:10567C00304670BD70B5456886680C4608E0296BED
:10568C000870641E286B401C2863686B401C6863A0
:10569C003CB100F003FA30680969884710F1010F3A
:1056AC00EDD1204670BD70B5446804F1F0050E468E
:1056BC002846FCF773F8217F627FDFF84C070068FF
:1056CC005118C91D7143DFF844275143A269B1FB3E
:1056DC00F2F141186331B1FBF0F0411C2846FAF7A6
:1056EC0093FF2846BDE87040FAF792BFF8B5044620
:1056FC006568A76805F1F0063046FCF74FF8386886
:10570C008069000711D5DFF8001709684FF4FA70AB
:10571C00B0FBF1F1022938BF01213046FAF774FFD2
:10572C003046BDE8F240FAF773BFDFF8E406FFF746
:10573C006FFF38682021FFF750FF00F061FA00F08E
:10574C0059FA204601B0BDE8F040184738B5044678
:10575C000D4620212868FFF740FF297DE06C0122CF
:10576C0000F06EFD297DE06C012200F083FD297DA7
:10577C00E06C002200F0A9FDA97DE06C002200F095
:10578C00A4FDA078012804D1286880690007FBD407
:10579C0005E04FF0FF3104F1B800FAF72DFF00F0EF
:1057AC004BFB2846FFF71FFF30B1A97DE06CBDE82D
:1057BC003840112200F089BD31BD2DE9F8438046F7
:1057CC000024D8F808703868D8F80490056C456443
:1057DC0015F4F06F09F1280628D069050ED500F0F4
:1057EC0059F8016040463769212F28BF20273946D8
:1057FC00FFF740FF14E03069401E3061306978B12A
:10580C0001214046FFF736FF386800F043F8002CC2
:10581C000160F0D0B068401EB060F068401EF060CF
:10582C0089F81F40404600F032FA22E0680609F180
:10583C0084090BD531694046FFF71CFF3061707944
:10584C0008B1346112E0306900280EE0E80610D58A
:10585C00307D3769401EB84238BF0746394640464E
:10586C00FFF708FF3069C01B306102D14846FBF7D7
:10587C001DFFA8060CD5356855B129464046FFF7E3
:10588C00E0FE306020B9291D4046BDE8F4430AE72C
:10589C00BDE8F18350F8041F01F00F04002170479C
:1058AC0070B504466568A668DFF86805FFF7B0FEBA
:1058BC0000F00EFA03E2406800210170DFF8540595
:1058CC00017041707047F0B504468DB06568A768EB
:1058DC000E46FAF785FE2978002943D1012129705B
:1058EC00FAF782FE3078687000217078A8707068C2
:1058FC006860B068A860F068E86030692861307D45
:10590C002875707D6875B07DA875B069A861307F09
:10591C002877707F6877B07FA8770020286205F120
:10592C002C00416069628160A962C16001704170A4
:10593C0010210174002141747868FCF722FA20468A
:10594C0000F0CFF9204600F01EFA78B900F0A6F866
:10595C003868C96888477868FCF7A8F9FAF740FEF8
:10596C0000212970FAF740FE00205EE00823302267
:10597C00002101A8FAF758FE069401AB387BDFF83A
:10598C00982409900020009005F16800B968FAF796
:10599C004FFE08232822002101A8FAF74DFE05949A
:1059AC0000233869DFF87414079001AA05F184000C
:1059BC00FAF746FE08232422002101A8FAF72CFE50
:1059CC0001208DF81C00A87840B901AA002105F12E
:1059DC00B800FAF725FEDFF848042861687840B96A
:1059EC0001AA002105F1D400FAF71AFEDFF83404FD
:1059FC00E86008232422002101A8FAF701FE002008
:105A0C000690ADF81400079401AB0A22DFF81814C5
:105A1C0005F1F000FAF71CFE23460FF2294204218F
:105A2C0005F15400FCF71EF920460DB0F0BD38B559
:105A3C0044688568E06C00F0F6FB286840F2F2716F
:105A4C00FFF7CBFD00F02AF82868C968884768681A
